{
  "abi": [
    {
      "inputs": [
        {
          "internalType": "address",
          "name": "_votingContract",
          "type": "address"
        },
        {
          "internalType": "address",
          "name": "_featuredVotingContract",
          "type": "address"
        }
      ],
      "stateMutability": "nonpayable",
      "type": "constructor"
    },
    {
      "inputs": [
        {
          "internalType": "bytes",
          "name": "community",
          "type": "bytes"
        }
      ],
      "name": "addCommunity",
      "outputs": [],
      "stateMutability": "nonpayable",
      "type": "function"
    },
    {
      "inputs": [],
      "name": "featuredVotingContract",
      "outputs": [
        {
          "internalType": "address",
          "name": "",
          "type": "address"
        }
      ],
      "stateMutability": "view",
      "type": "function"
    },
    {
      "inputs": [],
      "name": "getCommunities",
      "outputs": [
        {
          "internalType": "bytes[]",
          "name": "",
          "type": "bytes[]"
        }
      ],
      "stateMutability": "view",
      "type": "function"
    },
    {
      "inputs": [],
      "name": "getFeaturedCommunities",
      "outputs": [
        {
          "internalType": "bytes[]",
          "name": "",
          "type": "bytes[]"
        }
      ],
      "stateMutability": "view",
      "type": "function"
    },
    {
      "inputs": [
        {
          "internalType": "bytes",
          "name": "community",
          "type": "bytes"
        }
      ],
      "name": "isCommunityFeatured",
      "outputs": [
        {
          "internalType": "bool",
          "name": "",
          "type": "bool"
        }
      ],
      "stateMutability": "view",
      "type": "function"
    },
    {
      "inputs": [
        {
          "internalType": "bytes",
          "name": "community",
          "type": "bytes"
        }
      ],
      "name": "isCommunityInDirectory",
      "outputs": [
        {
          "internalType": "bool",
          "name": "",
          "type": "bool"
        }
      ],
      "stateMutability": "view",
      "type": "function"
    },
    {
      "inputs": [
        {
          "internalType": "bytes",
          "name": "community",
          "type": "bytes"
        }
      ],
      "name": "removeCommunity",
      "outputs": [],
      "stateMutability": "nonpayable",
      "type": "function"
    },
    {
      "inputs": [
        {
          "internalType": "bytes[]",
          "name": "_featuredCommunities",
          "type": "bytes[]"
        }
      ],
      "name": "setFeaturedCommunities",
      "outputs": [],
      "stateMutability": "nonpayable",
      "type": "function"
    },
    {
      "inputs": [],
      "name": "votingContract",
      "outputs": [
        {
          "internalType": "address",
          "name": "",
          "type": "address"
        }
      ],
      "stateMutability": "view",
      "type": "function"
    }
  ],
  "bytecode": {
    "object": "0x608060405234801561001057600080fd5b5060405161113438038061113483398101604081905261002f9161007c565b600080546001600160a01b039384166001600160a01b031991821617909155600180549290931691161790556100af565b80516001600160a01b038116811461007757600080fd5b919050565b6000806040838503121561008f57600080fd5b61009883610060565b91506100a660208401610060565b90509250929050565b611076806100be6000396000f3fe608060405234801561001057600080fd5b50600436106100a35760003560e01c8063b3dbb52a11610076578063c251b5651161005b578063c251b56514610172578063d62879f11461017a578063f6a18e621461018d57600080fd5b8063b3dbb52a1461012f578063c1fc006a1461015257600080fd5b80633c01b93c146100a85780637475fe93146100bd5780637483793514610107578063967961c61461011a575b600080fd5b6100bb6100b6366004610a0d565b6101a0565b005b6001546100dd9073ffffffffffffffffffffffffffffffffffffffff1681565b60405173ffffffffffffffffffffffffffffffffffffffff90911681526020015b60405180910390f35b6100bb610115366004610a0d565b6102b4565b610122610427565b6040516100fe9190610aa3565b61014261013d366004610a0d565b610500565b60405190151581526020016100fe565b6000546100dd9073ffffffffffffffffffffffffffffffffffffffff1681565b61012261052e565b6100bb610188366004610b59565b6105fe565b61014261019b366004610a0d565b61082f565b60005473ffffffffffffffffffffffffffffffffffffffff163314610226576040517f08c379a000000000000000000000000000000000000000000000000000000000815260206004820152600e60248201527f496e76616c69642073656e64657200000000000000000000000000000000000060448201526064015b60405180910390fd5b61026b82828080601f01602080910402602001604051908101604052809392919081815260200183838082843760009201919091525060029250600391506108449050565b6102b082828080601f01602080910402602001604051908101604052809392919081815260200183838082843760009201919091525060049250600591506108449050565b5050565b60005473ffffffffffffffffffffffffffffffffffffffff163314610335576040517f08c379a000000000000000000000000000000000000000000000000000000000815260206004820152600e60248201527f496e76616c69642073656e646572000000000000000000000000000000000000604482015260640161021d565b60038282604051610347929190610bbc565b9081526020016040518091039020546000146103bf576040517f08c379a000000000000000000000000000000000000000000000000000000000815260206004820152601760248201527f436f6d6d756e69747920616c7265616479206578697374000000000000000000604482015260640161021d565b600280546001810182556000919091527f405787fa12a823e0f2b7631cc41b3ba8828b3321ca811111fa75cd3aa3bb5ace016103fc828483610c9c565b506002546040516003906104139085908590610bbc565b908152604051908190036020019020555050565b60606004805480602002602001604051908101604052809291908181526020016000905b828210156104f757838290600052602060002001805461046a90610bfb565b80601f016020809104026020016040519081016040528092919081815260200182805461049690610bfb565b80156104e35780601f106104b8576101008083540402835291602001916104e3565b820191906000526020600020905b8154815290600101906020018083116104c657829003601f168201915b50505050508152602001906001019061044b565b50505050905090565b60008060038484604051610515929190610bbc565b9081526020016040518091039020541190505b92915050565b60606002805480602002602001604051908101604052809291908181526020016000905b828210156104f757838290600052602060002001805461057190610bfb565b80601f016020809104026020016040519081016040528092919081815260200182805461059d90610bfb565b80156105ea5780601f106105bf576101008083540402835291602001916105ea565b820191906000526020600020905b8154815290600101906020018083116105cd57829003601f168201915b505050505081526020019060010190610552565b60015473ffffffffffffffffffffffffffffffffffffffff16331461067f576040517f08c379a000000000000000000000000000000000000000000000000000000000815260206004820152600e60248201527f496e76616c69642073656e646572000000000000000000000000000000000000604482015260640161021d565b60005b6004548110156106dd576005600482815481106106a1576106a1610d7b565b906000526020600020016040516106b89190610daa565b90815260200160405180910390206000905580806106d590610e6d565b915050610682565b506106ea6004600061097c565b60005b8181101561082a5761071c83838381811061070a5761070a610d7b565b905060200281019061013d9190610e87565b610782576040517f08c379a000000000000000000000000000000000000000000000000000000000815260206004820152601a60248201527f436f6d6d756e697479206e6f7420696e206469726563746f7279000000000000604482015260640161021d565b600483838381811061079657610796610d7b565b90506020028101906107a89190610e87565b825460018101845560009384526020909320909201916107c89183610c9c565b506107d4816001610ef3565b60058484848181106107e8576107e8610d7b565b90506020028101906107fa9190610e87565b604051610808929190610bbc565b908152604051908190036020019020558061082281610e6d565b9150506106ed565b505050565b60008060058484604051610515929190610bbc565b600081846040516108559190610f06565b9081526020016040518091039020549050806000036108745750505050565b8061087e81610f22565b915050600183805490501115610927578254839061089e90600190610f39565b815481106108ae576108ae610d7b565b906000526020600020018382815481106108ca576108ca610d7b565b9060005260206000200190816108e09190610f4c565b506108ec816001610ef3565b828483815481106108ff576108ff610d7b565b906000526020600020016040516109169190610daa565b908152604051908190036020019020555b8280548061093757610937611047565b600190038181906000526020600020016000610953919061099d565b9055600082856040516109669190610f06565b9081526040519081900360200190205550505050565b508054600082559060005260206000209081019061099a91906109d7565b50565b5080546109a990610bfb565b6000825580601f106109b9575050565b601f01602090049060005260206000209081019061099a91906109f8565b808211156109f45760006109eb828261099d565b506001016109d7565b5090565b5b808211156109f457600081556001016109f9565b60008060208385031215610a2057600080fd5b823567ffffffffffffffff80821115610a3857600080fd5b818501915085601f830112610a4c57600080fd5b813581811115610a5b57600080fd5b866020828501011115610a6d57600080fd5b60209290920196919550909350505050565b60005b83811015610a9a578181015183820152602001610a82565b50506000910152565b6000602080830181845280855180835260408601915060408160051b870101925083870160005b82811015610b4c577fffffffffffffffffffffffffffffffffffffffffffffffffffffffffffffffc088860301845281518051808752610b0f818989018a8501610a7f565b601f017fffffffffffffffffffffffffffffffffffffffffffffffffffffffffffffffe01695909501860194509285019290850190600101610aca565b5092979650505050505050565b60008060208385031215610b6c57600080fd5b823567ffffffffffffffff80821115610b8457600080fd5b818501915085601f830112610b9857600080fd5b813581811115610ba757600080fd5b8660208260051b8501011115610a6d57600080fd5b8183823760009101908152919050565b7f4e487b7100000000000000000000000000000000000000000000000000000000600052604160045260246000fd5b600181811c90821680610c0f57607f821691505b602082108103610c48577f4e487b7100000000000000000000000000000000000000000000000000000000600052602260045260246000fd5b50919050565b601f82111561082a57600081815260208120601f850160051c81016020861015610c755750805b601f850160051c820191505b81811015610c9457828155600101610c81565b505050505050565b67ffffffffffffffff831115610cb457610cb4610bcc565b610cc883610cc28354610bfb565b83610c4e565b6000601f841160018114610cfc5760008515610ce45750838201355b600019600387901b1c1916600186901b178355610d74565b6000838152602090207fffffffffffffffffffffffffffffffffffffffffffffffffffffffffffffffe0861690835b82811015610d4b5786850135825560209485019460019092019101610d2b565b5086821015610d685760001960f88860031b161c19848701351681555b505060018560011b0183555b5050505050565b7f4e487b7100000000000000000000000000000000000000000000000000000000600052603260045260246000fd5b6000808354610db881610bfb565b60018281168015610dd05760018114610e0357610e32565b7fffffffffffffffffffffffffffffffffffffffffffffffffffffffffffffff0084168752821515830287019450610e32565b8760005260208060002060005b85811015610e295781548a820152908401908201610e10565b50505082870194505b50929695505050505050565b7f4e487b7100000000000000000000000000000000000000000000000000000000600052601160045260246000fd5b60006000198203610e8057610e80610e3e565b5060010190565b60008083357fffffffffffffffffffffffffffffffffffffffffffffffffffffffffffffffe1843603018112610ebc57600080fd5b83018035915067ffffffffffffffff821115610ed757600080fd5b602001915036819003821315610eec57600080fd5b9250929050565b8082018082111561052857610528610e3e565b60008251610f18818460208701610a7f565b9190910192915050565b600081610f3157610f31610e3e565b506000190190565b8181038181111561052857610528610e3e565b818103610f57575050565b610f618254610bfb565b67ffffffffffffffff811115610f7957610f79610bcc565b610f8d81610f878454610bfb565b84610c4e565b6000601f821160018114610fc15760008315610fa95750848201545b600019600385901b1c1916600184901b178455610d74565b6000858152602090207fffffffffffffffffffffffffffffffffffffffffffffffffffffffffffffffe0841690600086815260209020845b838110156110195782860154825560019586019590910190602001610ff9565b50858310156110375781850154600019600388901b60f8161c191681555b5050505050600190811b01905550565b7f4e487b7100000000000000000000000000000000000000000000000000000000600052603160045260246000fd",
    "linkReferences": {}
  },
  "methodIdentifiers": {
    "addCommunity(bytes)": "74837935",
    "featuredVotingContract()": "7475fe93",
    "getCommunities()": "c251b565",
    "getFeaturedCommunities()": "967961c6",
    "isCommunityFeatured(bytes)": "f6a18e62",
    "isCommunityInDirectory(bytes)": "b3dbb52a",
    "removeCommunity(bytes)": "3c01b93c",
    "setFeaturedCommunities(bytes[])": "d62879f1",
    "votingContract()": "c1fc006a"
  },
  "id": 0
}