{
  "abi": [
    {
      "inputs": [
        {
          "internalType": "contract MiniMeToken",
          "name": "_token",
          "type": "address"
        },
        {
          "internalType": "uint256",
          "name": "_votingLength",
          "type": "uint256"
        },
        {
          "internalType": "uint256",
          "name": "_votingVerificationLength",
          "type": "uint256"
        },
        {
          "internalType": "uint256",
          "name": "_timeBetweenVoting",
          "type": "uint256"
        }
      ],
      "stateMutability": "nonpayable",
      "type": "constructor"
    },
    {
      "inputs": [
        {
          "internalType": "uint256",
          "name": "ID",
          "type": "uint256"
        }
      ],
      "name": "InvalidRoomID",
      "type": "error"
    },
    {
      "inputs": [
        {
          "internalType": "uint256",
          "name": "ID",
          "type": "uint256"
        }
      ],
      "name": "VotingRoomDoesntExist",
      "type": "error"
    },
    {
      "anonymous": false,
      "inputs": [
        {
          "indexed": false,
          "internalType": "uint256",
          "name": "roomId",
          "type": "uint256"
        },
        {
          "indexed": false,
          "internalType": "address",
          "name": "voter",
          "type": "address"
        }
      ],
      "name": "AlreadyVoted",
      "type": "event"
    },
    {
      "anonymous": false,
      "inputs": [
        {
          "indexed": false,
          "internalType": "uint256",
          "name": "roomId",
          "type": "uint256"
        },
        {
          "indexed": false,
          "internalType": "address",
          "name": "voter",
          "type": "address"
        }
      ],
      "name": "InvalidSignature",
      "type": "event"
    },
    {
      "anonymous": false,
      "inputs": [
        {
          "indexed": false,
          "internalType": "uint256",
          "name": "roomId",
          "type": "uint256"
        },
        {
          "indexed": false,
          "internalType": "address",
          "name": "voter",
          "type": "address"
        }
      ],
      "name": "NotEnoughToken",
      "type": "event"
    },
    {
      "anonymous": false,
      "inputs": [
        {
          "indexed": true,
          "internalType": "address",
          "name": "previousOwner",
          "type": "address"
        },
        {
          "indexed": true,
          "internalType": "address",
          "name": "newOwner",
          "type": "address"
        }
      ],
      "name": "OwnershipTransferStarted",
      "type": "event"
    },
    {
      "anonymous": false,
      "inputs": [
        {
          "indexed": true,
          "internalType": "address",
          "name": "previousOwner",
          "type": "address"
        },
        {
          "indexed": true,
          "internalType": "address",
          "name": "newOwner",
          "type": "address"
        }
      ],
      "name": "OwnershipTransferred",
      "type": "event"
    },
    {
      "anonymous": false,
      "inputs": [
        {
          "indexed": false,
          "internalType": "uint256",
          "name": "roomId",
          "type": "uint256"
        },
        {
          "indexed": false,
          "internalType": "address",
          "name": "voter",
          "type": "address"
        }
      ],
      "name": "VoteCast",
      "type": "event"
    },
    {
      "anonymous": false,
      "inputs": [
        {
          "indexed": false,
          "internalType": "uint256",
          "name": "roomId",
          "type": "uint256"
        },
        {
          "indexed": false,
          "internalType": "bytes",
          "name": "publicKey",
          "type": "bytes"
        },
        {
          "indexed": false,
          "internalType": "bool",
          "name": "passed",
          "type": "bool"
        },
        {
          "indexed": false,
          "internalType": "enum VotingContract.VoteType",
          "name": "voteType",
          "type": "uint8"
        }
      ],
      "name": "VotingRoomFinalized",
      "type": "event"
    },
    {
      "anonymous": false,
      "inputs": [
        {
          "indexed": false,
          "internalType": "uint256",
          "name": "roomId",
          "type": "uint256"
        },
        {
          "indexed": false,
          "internalType": "bytes",
          "name": "publicKey",
          "type": "bytes"
        }
      ],
      "name": "VotingRoomStarted",
      "type": "event"
    },
    {
      "anonymous": false,
      "inputs": [
        {
          "indexed": false,
          "internalType": "uint256",
          "name": "roomId",
          "type": "uint256"
        },
        {
          "indexed": false,
          "internalType": "bytes",
          "name": "publicKey",
          "type": "bytes"
        }
      ],
      "name": "VotingRoomVerificationStarted",
      "type": "event"
    },
    {
      "inputs": [],
      "name": "VOTE_TYPEHASH",
      "outputs": [
        {
          "internalType": "bytes32",
          "name": "",
          "type": "bytes32"
        }
      ],
      "stateMutability": "view",
      "type": "function"
    },
    {
      "inputs": [],
      "name": "acceptOwnership",
      "outputs": [],
      "stateMutability": "nonpayable",
      "type": "function"
    },
    {
      "inputs": [
        {
          "internalType": "bytes",
          "name": "",
          "type": "bytes"
        }
      ],
      "name": "activeRoomIDByCommunityID",
      "outputs": [
        {
          "internalType": "uint256",
          "name": "",
          "type": "uint256"
        }
      ],
      "stateMutability": "view",
      "type": "function"
    },
    {
      "inputs": [
        {
          "components": [
            {
              "internalType": "address",
              "name": "voter",
              "type": "address"
            },
            {
              "internalType": "uint256",
              "name": "roomIdAndType",
              "type": "uint256"
            },
            {
              "internalType": "uint256",
              "name": "sntAmount",
              "type": "uint256"
            },
            {
              "internalType": "uint256",
              "name": "timestamp",
              "type": "uint256"
            },
            {
              "internalType": "bytes32",
              "name": "r",
              "type": "bytes32"
            },
            {
              "internalType": "bytes32",
              "name": "vs",
              "type": "bytes32"
            }
          ],
          "internalType": "struct VotingContract.SignedVote[]",
          "name": "votes",
          "type": "tuple[]"
        }
      ],
      "name": "castVotes",
      "outputs": [],
      "stateMutability": "nonpayable",
      "type": "function"
    },
    {
      "inputs": [],
      "name": "directory",
      "outputs": [
        {
          "internalType": "contract Directory",
          "name": "",
          "type": "address"
        }
      ],
      "stateMutability": "view",
      "type": "function"
    },
    {
      "inputs": [
        {
          "internalType": "uint256",
          "name": "roomId",
          "type": "uint256"
        },
        {
          "internalType": "uint32",
          "name": "limit",
          "type": "uint32"
        }
      ],
      "name": "finalizeVotingRoom",
      "outputs": [],
      "stateMutability": "nonpayable",
      "type": "function"
    },
    {
      "inputs": [
        {
          "internalType": "bytes",
          "name": "publicKey",
          "type": "bytes"
        }
      ],
      "name": "getActiveVotingRoom",
      "outputs": [
        {
          "components": [
            {
              "internalType": "uint256",
              "name": "startBlock",
              "type": "uint256"
            },
            {
              "internalType": "uint256",
              "name": "startAt",
              "type": "uint256"
            },
            {
              "internalType": "uint256",
              "name": "verificationStartAt",
              "type": "uint256"
            },
            {
              "internalType": "uint256",
              "name": "endAt",
              "type": "uint256"
            },
            {
              "internalType": "enum VotingContract.VoteType",
              "name": "voteType",
              "type": "uint8"
            },
            {
              "internalType": "bool",
              "name": "finalized",
              "type": "bool"
            },
            {
              "internalType": "bytes",
              "name": "community",
              "type": "bytes"
            },
            {
              "internalType": "uint256",
              "name": "totalVotesFor",
              "type": "uint256"
            },
            {
              "internalType": "uint256",
              "name": "totalVotesAgainst",
              "type": "uint256"
            },
            {
              "internalType": "uint256",
              "name": "roomNumber",
              "type": "uint256"
            },
            {
              "internalType": "uint256",
              "name": "endBlock",
              "type": "uint256"
            },
            {
              "internalType": "uint32",
              "name": "evaluatingPos",
              "type": "uint32"
            },
            {
              "internalType": "bool",
              "name": "evaluated",
              "type": "bool"
            }
          ],
          "internalType": "struct VotingContract.VotingRoom",
          "name": "",
          "type": "tuple"
        }
      ],
      "stateMutability": "view",
      "type": "function"
    },
    {
      "inputs": [],
      "name": "getActiveVotingRooms",
      "outputs": [
        {
          "internalType": "uint256[]",
          "name": "",
          "type": "uint256[]"
        }
      ],
      "stateMutability": "view",
      "type": "function"
    },
    {
      "inputs": [
        {
          "internalType": "bytes",
          "name": "publicKey",
          "type": "bytes"
        }
      ],
      "name": "getVotingHistory",
      "outputs": [
        {
          "components": [
            {
              "internalType": "uint256",
              "name": "startBlock",
              "type": "uint256"
            },
            {
              "internalType": "uint256",
              "name": "startAt",
              "type": "uint256"
            },
            {
              "internalType": "uint256",
              "name": "verificationStartAt",
              "type": "uint256"
            },
            {
              "internalType": "uint256",
              "name": "endAt",
              "type": "uint256"
            },
            {
              "internalType": "enum VotingContract.VoteType",
              "name": "voteType",
              "type": "uint8"
            },
            {
              "internalType": "bool",
              "name": "finalized",
              "type": "bool"
            },
            {
              "internalType": "bytes",
              "name": "community",
              "type": "bytes"
            },
            {
              "internalType": "uint256",
              "name": "totalVotesFor",
              "type": "uint256"
            },
            {
              "internalType": "uint256",
              "name": "totalVotesAgainst",
              "type": "uint256"
            },
            {
              "internalType": "uint256",
              "name": "roomNumber",
              "type": "uint256"
            },
            {
              "internalType": "uint256",
              "name": "endBlock",
              "type": "uint256"
            },
            {
              "internalType": "uint32",
              "name": "evaluatingPos",
              "type": "uint32"
            },
            {
              "internalType": "bool",
              "name": "evaluated",
              "type": "bool"
            }
          ],
          "internalType": "struct VotingContract.VotingRoom[]",
          "name": "returnVotingRooms",
          "type": "tuple[]"
        }
      ],
      "stateMutability": "view",
      "type": "function"
    },
    {
      "inputs": [
        {
          "internalType": "enum VotingContract.VoteType",
          "name": "voteType",
          "type": "uint8"
        },
        {
          "internalType": "bytes",
          "name": "publicKey",
          "type": "bytes"
        },
        {
          "internalType": "uint256",
          "name": "voteAmount",
          "type": "uint256"
        }
      ],
      "name": "initializeVotingRoom",
      "outputs": [],
      "stateMutability": "nonpayable",
      "type": "function"
    },
    {
      "inputs": [
        {
          "internalType": "uint256",
          "name": "roomID",
          "type": "uint256"
        }
      ],
      "name": "listRoomVoters",
      "outputs": [
        {
          "internalType": "address[]",
          "name": "roomVoters",
          "type": "address[]"
        }
      ],
      "stateMutability": "view",
      "type": "function"
    },
    {
      "inputs": [],
      "name": "owner",
      "outputs": [
        {
          "internalType": "address",
          "name": "",
          "type": "address"
        }
      ],
      "stateMutability": "view",
      "type": "function"
    },
    {
      "inputs": [],
      "name": "pendingOwner",
      "outputs": [
        {
          "internalType": "address",
          "name": "",
          "type": "address"
        }
      ],
      "stateMutability": "view",
      "type": "function"
    },
    {
      "inputs": [],
      "name": "renounceOwnership",
      "outputs": [],
      "stateMutability": "nonpayable",
      "type": "function"
    },
    {
      "inputs": [
        {
          "internalType": "contract Directory",
          "name": "_address",
          "type": "address"
        }
      ],
      "name": "setDirectory",
      "outputs": [],
      "stateMutability": "nonpayable",
      "type": "function"
    },
    {
      "inputs": [],
      "name": "timeBetweenVoting",
      "outputs": [
        {
          "internalType": "uint256",
          "name": "",
          "type": "uint256"
        }
      ],
      "stateMutability": "view",
      "type": "function"
    },
    {
      "inputs": [],
      "name": "token",
      "outputs": [
        {
          "internalType": "contract MiniMeToken",
          "name": "",
          "type": "address"
        }
      ],
      "stateMutability": "view",
      "type": "function"
    },
    {
      "inputs": [
        {
          "internalType": "address",
          "name": "newOwner",
          "type": "address"
        }
      ],
      "name": "transferOwnership",
      "outputs": [],
      "stateMutability": "nonpayable",
      "type": "function"
    },
    {
      "inputs": [],
      "name": "votingLength",
      "outputs": [
        {
          "internalType": "uint256",
          "name": "",
          "type": "uint256"
        }
      ],
      "stateMutability": "view",
      "type": "function"
    },
    {
      "inputs": [
        {
          "internalType": "uint256",
          "name": "",
          "type": "uint256"
        }
      ],
      "name": "votingRooms",
      "outputs": [
        {
          "internalType": "uint256",
          "name": "startBlock",
          "type": "uint256"
        },
        {
          "internalType": "uint256",
          "name": "startAt",
          "type": "uint256"
        },
        {
          "internalType": "uint256",
          "name": "verificationStartAt",
          "type": "uint256"
        },
        {
          "internalType": "uint256",
          "name": "endAt",
          "type": "uint256"
        },
        {
          "internalType": "enum VotingContract.VoteType",
          "name": "voteType",
          "type": "uint8"
        },
        {
          "internalType": "bool",
          "name": "finalized",
          "type": "bool"
        },
        {
          "internalType": "bytes",
          "name": "community",
          "type": "bytes"
        },
        {
          "internalType": "uint256",
          "name": "totalVotesFor",
          "type": "uint256"
        },
        {
          "internalType": "uint256",
          "name": "totalVotesAgainst",
          "type": "uint256"
        },
        {
          "internalType": "uint256",
          "name": "roomNumber",
          "type": "uint256"
        },
        {
          "internalType": "uint256",
          "name": "endBlock",
          "type": "uint256"
        },
        {
          "internalType": "uint32",
          "name": "evaluatingPos",
          "type": "uint32"
        },
        {
          "internalType": "bool",
          "name": "evaluated",
          "type": "bool"
        }
      ],
      "stateMutability": "view",
      "type": "function"
    },
    {
      "inputs": [],
      "name": "votingVerificationLength",
      "outputs": [
        {
          "internalType": "uint256",
          "name": "",
          "type": "uint256"
        }
      ],
      "stateMutability": "view",
      "type": "function"
    }
  ],
  "bytecode": {
    "object": "0x60806040523480156200001157600080fd5b5060405162003524380380620035248339810160408190526200003491620001e5565b6200003f33620000d9565b600380546001600160a01b0319166001600160a01b0386161790556004839055600582905560068190556040805160c081018252600f608082019081526e159bdd1a5b99c810dbdb9d1c9858dd608a1b60a083015281528151808301835260018152603160f81b6020808301919091528201524691810191909152306060820152620000cb90620000f7565b600e55506200023292505050565b600180546001600160a01b0319169055620000f48162000195565b50565b60007f8b73c3c69bb8fe3d512ecc4cf759cc79239f7b179b0ffacaa9a75d522b39400f82600001518051906020012083602001518051906020012084604001518560600151604051602001620001789594939291909485526020850193909352604084019190915260608301526001600160a01b0316608082015260a00190565b604051602081830303815290604052805190602001209050919050565b600080546001600160a01b038381166001600160a01b0319831681178455604051919092169283917f8be0079c531659141344cd1fd0a4f28419497f9722a3daafe3b4186f6b6457e09190a35050565b60008060008060808587031215620001fc57600080fd5b84516001600160a01b03811681146200021457600080fd5b60208601516040870151606090970151919890975090945092505050565b6132e280620002426000396000f3fe608060405234801561001057600080fd5b50600436106101775760003560e01c80638da5cb5b116100d8578063daf1612b1161008c578063f6a54ac611610066578063f6a54ac614610357578063fc0c546a14610382578063ff9bd048146103a257600080fd5b8063daf1612b14610306578063e30c397814610326578063f2fde38b1461034457600080fd5b8063c1cde92c116100bd578063c1cde92c146102be578063c41c2f24146102d3578063da6d4a3d146102f357600080fd5b80638da5cb5b1461026c578063a68f1449146102ab57600080fd5b8063715018a61161012f57806379ba50971161011457806379ba5097146102345780637ed1689c1461023c578063865229731461024557600080fd5b8063715018a614610200578063730d01081461020857600080fd5b806354b6ec371161016057806354b6ec37146101ad5780635dacd0a0146101cd5780636e91818a146101ed57600080fd5b80630a64522f1461017c5780632111efc714610198575b600080fd5b61018560045481565b6040519081526020015b60405180910390f35b6101ab6101a6366004612809565b6103ab565b005b6101c06101bb3660046128c7565b610585565b60405161018f9190612a73565b6101e06101db3660046128c7565b610719565b60405161018f9190612a8d565b6101ab6101fb366004612b2f565b610994565b6101ab6109e3565b61021b610216366004612b4c565b6109f7565b60405161018f9d9c9b9a99989796959493929190612b65565b6101ab610b09565b61018560065481565b6101857fc8dfdde54cc98cd88a1a27e5243a7be688ac8c14d9008cb1cb7667059106044781565b60005473ffffffffffffffffffffffffffffffffffffffff165b60405173ffffffffffffffffffffffffffffffffffffffff909116815260200161018f565b6101ab6102b9366004612beb565b610ba9565b6102c6610d94565b60405161018f9190612c24565b6002546102869073ffffffffffffffffffffffffffffffffffffffff1681565b6101ab610301366004612c68565b610e8f565b610319610314366004612b4c565b6116c9565b60405161018f9190612cc8565b60015473ffffffffffffffffffffffffffffffffffffffff16610286565b6101ab610352366004612b2f565b6117d3565b610185610365366004612d45565b805160208183018101805160088252928201919093012091525481565b6003546102869073ffffffffffffffffffffffffffffffffffffffff1681565b61018560055481565b6000805b828110156104c35760006103d98585848181106103ce576103ce612df6565b905060c00201611883565b905080156104b057600060018686858181106103f7576103f7612df6565b602060c09091029290920182013590921c6000818152600a909252604082205490935063ffffffff169003905061046b57610433600185612e54565b600b80546001810182556000919091527f0175b7a638427703f0dbe7bb9bbf987a2551717b34e79f33b5b1008d1fa01db90182905593505b6000818152600a6020526040812080546001929061049090849063ffffffff16612e6f565b92506101000a81548163ffffffff021916908363ffffffff160217905550505b50806104bb81612e8c565b9150506103af565b5060005b8161ffff168161ffff161015610573576000600b8261ffff16815481106104f0576104f0612df6565b90600052602060002001549050600061050882611d3a565b6000838152600a602052604090205490915061052b90829063ffffffff16611ded565b50506000908152600a6020526040902080547fffffffffffffffffffffffffffffffffffffffffffffffffffffffff000000001690558061056b81612ec4565b9150506104c7565b50610580600b600061274f565b505050565b61058d61276d565b6105b6600884846040516105a2929190612ee5565b908152602001604051809103902054611d3a565b604080516101a081018252825481526001808401546020830152600284015492820192909252600383015460608201526004830154909291608084019160ff169081111561060657610606612909565b600181111561061757610617612909565b81526004820154610100900460ff161515602082015260058201805460409092019161064290612ef5565b80601f016020809104026020016040519081016040528092919081815260200182805461066e90612ef5565b80156106bb5780601f10610690576101008083540402835291602001916106bb565b820191906000526020600020905b81548152906001019060200180831161069e57829003601f168201915b505050918352505060068201546020820152600782015460408201526008820154606082015260098201546080820152600a9091015463ffffffff811660a0830152640100000000900460ff16151560c09091015290505b92915050565b60606009838360405161072d929190612ee5565b9081526040519081900360200190205467ffffffffffffffff81111561075557610755612d16565b60405190808252806020026020018201604052801561078e57816020015b61077b61276d565b8152602001906001900390816107735790505b50905060005b600984846040516107a6929190612ee5565b9081526040519081900360200190205481101561098d57610801600985856040516107d2929190612ee5565b908152602001604051809103902082815481106107f1576107f1612df6565b9060005260206000200154611d3a565b604080516101a081018252825481526001808401546020830152600284015492820192909252600383015460608201526004830154909291608084019160ff169081111561085157610851612909565b600181111561086257610862612909565b81526004820154610100900460ff161515602082015260058201805460409092019161088d90612ef5565b80601f01602080910402602001604051908101604052809291908181526020018280546108b990612ef5565b80156109065780601f106108db57610100808354040283529160200191610906565b820191906000526020600020905b8154815290600101906020018083116108e957829003601f168201915b505050918352505060068201546020820152600782015460408201526008820154606082015260098201546080820152600a9091015463ffffffff811660a0830152640100000000900460ff16151560c090910152825183908390811061096f5761096f612df6565b6020026020010181905250808061098590612e8c565b915050610794565b5092915050565b61099c61213e565b600280547fffffffffffffffffffffffff00000000000000000000000000000000000000001673ffffffffffffffffffffffffffffffffffffffff92909216919091179055565b6109eb61213e565b6109f560006121a5565b565b60078181548110610a0757600080fd5b60009182526020909120600b909102018054600182015460028301546003840154600485015460058601805495975093959294919360ff808316946101009093041692610a5390612ef5565b80601f0160208091040260200160405190810160405280929190818152602001828054610a7f90612ef5565b8015610acc5780601f10610aa157610100808354040283529160200191610acc565b820191906000526020600020905b815481529060010190602001808311610aaf57829003601f168201915b5050506006840154600785015460088601546009870154600a9097015495969295919450925063ffffffff81169060ff640100000000909104168d565b600154339073ffffffffffffffffffffffffffffffffffffffff168114610b9d5760405162461bcd60e51b815260206004820152602960248201527f4f776e61626c6532537465703a2063616c6c6572206973206e6f74207468652060448201527f6e6577206f776e6572000000000000000000000000000000000000000000000060648201526084015b60405180910390fd5b610ba6816121a5565b50565b6000610bb483611d3a565b6004810154909150610100900460ff16610cb55742816003015410610c1b5760405162461bcd60e51b815260206004820152601260248201527f766f7465207374696c6c206f6e676f696e6700000000000000000000000000006044820152606401610b94565b6004810180547fffffffffffffffffffffffffffffffffffffffffffffffffffffffffffff00ff16610100179055426003820155436009820155604051600090600890610c6c906005850190612f42565b90815260405190819003602001902055600a810180547fffffffffffffffffffffffffffffffffffffffffffffffffffffff000000000016905560006006820181905560078201555b600a810154640100000000900460ff1615610d125760405162461bcd60e51b815260206004820152601660248201527f766f746520616c72656164792066696e616c697a6564000000000000000000006044820152606401610b94565b6000610d1e8284611ded565b600a830154909150640100000000900460ff1615610d8e578015610d4557610d45826121d6565b60048201546040517f2ee1d50dd7d7f4ca1cd35dba9bde18b024b24f448a26c1c8846fe7b8bb450d1d91610d859187916005870191869160ff1690613071565b60405180910390a15b50505050565b60075460609060009067ffffffffffffffff811115610db557610db5612d16565b604051908082528060200260200182016040528015610dde578160200160208202803683370190505b5090506000805b600754811015610e875760078181548110610e0257610e02612df6565b90600052602060002090600b020160040160019054906101000a900460ff16610e755760078181548110610e3857610e38612df6565b90600052602060002090600b020160080154838381518110610e5c57610e5c612df6565b602090810291909101015281610e7181612e8c565b9250505b80610e7f81612e8c565b915050610de5565b508152919050565b60088383604051610ea1929190612ee5565b908152602001604051809103902054600014610eff5760405162461bcd60e51b815260206004820152601460248201527f766f746520616c7265616479206f6e676f696e670000000000000000000000006044820152606401610b94565b6000846001811115610f1357610f13612909565b03610ffd576002546040517fb3dbb52a00000000000000000000000000000000000000000000000000000000815273ffffffffffffffffffffffffffffffffffffffff9091169063b3dbb52a90610f7090869086906004016130d5565b602060405180830381865afa158015610f8d573d6000803e3d6000fd5b505050506040513d601f19601f82011682018060405250810190610fb191906130f1565b610ffd5760405162461bcd60e51b815260206004820152601a60248201527f436f6d6d756e697479206e6f7420696e206469726563746f72790000000000006044820152606401610b94565b600184600181111561101157611011612909565b036110fc576002546040517fb3dbb52a00000000000000000000000000000000000000000000000000000000815273ffffffffffffffffffffffffffffffffffffffff9091169063b3dbb52a9061106e90869086906004016130d5565b602060405180830381865afa15801561108b573d6000803e3d6000fd5b505050506040513d601f19601f820116820180604052508101906110af91906130f1565b156110fc5760405162461bcd60e51b815260206004820152601e60248201527f436f6d6d756e69747920616c726561647920696e206469726563746f727900006044820152606401610b94565b600060098484604051611110929190612ee5565b90815260405190819003602001902054905080156111dc5760006009858560405161113c929190612ee5565b908152604051908190036020019020611156600184613113565b8154811061116657611166612df6565b9060005260206000200154905060065461117f82611d3a565b6003015461118d9042613113565b116111da5760405162461bcd60e51b815260206004820181905260248201527f436f6d6d756e6974792077617320696e206120766f746520726563656e746c796044820152606401610b94565b505b6003546040517f70a08231000000000000000000000000000000000000000000000000000000008152336004820152839173ffffffffffffffffffffffffffffffffffffffff16906370a0823190602401602060405180830381865afa15801561124a573d6000803e3d6000fd5b505050506040513d601f19601f8201168201806040525081019061126e9190613126565b10156112bc5760405162461bcd60e51b815260206004820152601060248201527f6e6f7420656e6f75676820746f6b656e000000000000000000000000000000006044820152606401610b94565b6007546000906112cd90600161313f565b905080600886866040516112e2929190612ee5565b90815260200160405180910390208190555060098585604051611306929190612ee5565b90815260408051602092819003830181208054600180820183556000928352858320909101869055858252600c85528382206060840185523384528584018281529484018990528054808301825590835294909120825160029095020180547fffffffffffffffffffffffff0000000000000000000000000000000000000000811673ffffffffffffffffffffffffffffffffffffffff909616958617825593519294909384927fffffffffffffffffffffff00000000000000000000000000000000000000000090911690911790740100000000000000000000000000000000000000009084908111156113fd576113fd612909565b02179055506040918201516001918201556000838152600d602090815283822033835281529083902080547fffffffffffffffffffffffffffffffffffffffffffffffffffffffffffffff001690921790915581516101a08101835243815242918101829052600454600793919291830191611479919061313f565b81526020016005546004544261148f919061313f565b611499919061313f565b81526020018860018111156114b0576114b0612909565b815260200160001515815260200187878080601f0160208091040260200160405190810160405280939291908181526020018383808284376000920182905250938552505050602080830182905260408084018390526060808501889052608080860185905260a0860185905260c0909501849052865460018181018955978552938390208651600b909502019384559185015183870155840151600283015583015160038201559082015160048201805493949293919290917fffffffffffffffffffffffffffffffffffffffffffffffffffffffffffffff001690838181111561159e5761159e612909565b021790555060a0820151600482018054911515610100027fffffffffffffffffffffffffffffffffffffffffffffffffffffffffffff00ff90921691909117905560c082015160058201906115f390826131a0565b5060e08201516006820155610100820151600782015561012082015160088201556101408201516009820155610160820151600a9091018054610180909301511515640100000000027fffffffffffffffffffffffffffffffffffffffffffffffffffffff000000000090931663ffffffff9092169190911791909117905561168561167e82611d3a565b6001611ded565b507f56385c0d76ffcefeb38cb9226cb877000037647d09069d15e94ac4b29ec435878186866040516116b99392919061329c565b60405180910390a1505050505050565b6000818152600c602052604090205460609067ffffffffffffffff8111156116f3576116f3612d16565b60405190808252806020026020018201604052801561171c578160200160208202803683370190505b50905060005b6000838152600c60205260409020548110156117cd576000838152600c6020526040902080548290811061175857611758612df6565b6000918252602090912060029091020154825173ffffffffffffffffffffffffffffffffffffffff9091169083908390811061179657611796612df6565b73ffffffffffffffffffffffffffffffffffffffff90921660209283029190910190910152806117c581612e8c565b915050611722565b50919050565b6117db61213e565b6001805473ffffffffffffffffffffffffffffffffffffffff83167fffffffffffffffffffffffff0000000000000000000000000000000000000000909116811790915561183e60005473ffffffffffffffffffffffffffffffffffffffff1690565b73ffffffffffffffffffffffffffffffffffffffff167f38d16b8cac22d99fc7c124b9cd0de2d3fa1faef420bfe791d8c362d765e2270060405160405180910390a350565b600061188e826122dd565b6118fc577f35f8d4297cedff70ac1e00ca57f340dc39eb0234be11eeeb57a0ff94015b734660208301803560011c906118c79085612b2f565b6040805192835273ffffffffffffffffffffffffffffffffffffffff90911660208301520160405180910390a1506000919050565b602082013560011c600061190f82611d3a565b9050806003015442106119645760405162461bcd60e51b815260206004820152600b60248201527f766f746520636c6f7365640000000000000000000000000000000000000000006044820152606401610b94565b6004810154610100900460ff16156119be5760405162461bcd60e51b815260206004820152600e60248201527f726f6f6d2066696e616c697a65640000000000000000000000000000000000006044820152606401610b94565b8060020154846060013510611a155760405162461bcd60e51b815260206004820152601660248201527f696e76616c696420766f74652074696d657374616d70000000000000000000006044820152606401610b94565b806001015484606001351015611a6d5760405162461bcd60e51b815260206004820152601660248201527f696e76616c696420766f74652074696d657374616d70000000000000000000006044820152606401610b94565b6000828152600d6020908152604082209190611a8b90870187612b2f565b73ffffffffffffffffffffffffffffffffffffffff16815260208101919091526040016000205460ff1615611b20577f04f9da634a3ce855cf7785808a673a41608288999dcd1d08e55bb33c69118f4a82611ae96020870187612b2f565b6040805192835273ffffffffffffffffffffffffffffffffffffffff90911660208301520160405180910390a15060009392505050565b6000828152600d6020908152604082206001929091611b4190880188612b2f565b73ffffffffffffffffffffffffffffffffffffffff1681526020808201929092526040908101600090812080547fffffffffffffffffffffffffffffffffffffffffffffffffffffffffffffff001694151594909417909355848352600c82529182902082516060810190935291908190611bbe90880188612b2f565b73ffffffffffffffffffffffffffffffffffffffff1681526020018660200135600116600114611bef576000611bf2565b60015b6001811115611c0357611c03612909565b815260408701356020918201528254600181810185556000948552938290208351600290920201805473ffffffffffffffffffffffffffffffffffffffff9092167fffffffffffffffffffffffff000000000000000000000000000000000000000083168117825592840151939490939284927fffffffffffffffffffffff00000000000000000000000000000000000000000016179074010000000000000000000000000000000000000000908490811115611cc257611cc2612909565b0217905550604091909101516001909101557ff1003b73c437642c0460aee9cd9628b0b8c447b66e6c7c905531b9c644214a1182611d036020870187612b2f565b6040805192835273ffffffffffffffffffffffffffffffffffffffff90911660208301520160405180910390a15060019392505050565b6000816001811015611d7b576040517ff244389200000000000000000000000000000000000000000000000000000000815260048101829052602401610b94565b600754811115611dba576040517fdd085d4b00000000000000000000000000000000000000000000000000000000815260048101829052602401610b94565b6007611dc7600185613113565b81548110611dd757611dd7612df6565b90600052602060002090600b0201915050919050565b600a82015460088301546000908152600c60205260408120549091611e1a9163ffffffff90911690613113565b8263ffffffff161115611e955760405162461bcd60e51b815260206004820152602260248201527f6c696d69742069732067726561746572207468616e20766f746573206c656e6760448201527f74680000000000000000000000000000000000000000000000000000000000006064820152608401610b94565b60048301544390610100900460ff1615611eb0575060098301545b60005b8363ffffffff168163ffffffff16101561209c5760088501546000908152600c60205260408120600a870154611ef090849063ffffffff16612e6f565b63ffffffff1681548110611f0657611f06612df6565b60009182526020909120600290910201600181015460035482546040517f4ee2cd7e00000000000000000000000000000000000000000000000000000000815273ffffffffffffffffffffffffffffffffffffffff9182166004820152602481018890529394509192911690634ee2cd7e90604401602060405180830381865afa158015611f98573d6000803e3d6000fd5b505050506040513d601f19601f82011682018060405250810190611fbc9190613126565b10612032576001815474010000000000000000000000000000000000000000900460ff166001811115611ff157611ff1612909565b03612014578060010154866006015461200a919061313f565b6006870155612089565b80600101548660070154612028919061313f565b6007870155612089565b600886015481546040805192835273ffffffffffffffffffffffffffffffffffffffff90911660208301527f52de8a8b06ee845dd9537ef3906e0a37d48c140e75f780715ee892f0ee08c052910160405180910390a15b5080612094816132b6565b915050611eb3565b600a850180548291906000906120b990849063ffffffff16612e6f565b82546101009290920a63ffffffff81810219909316918316021790915560088701546000908152600c6020526040902054600a88015490911603905061212b57600a850180547fffffffffffffffffffffffffffffffffffffffffffffffffffffff00ffffffff166401000000001790555b5050505060078101546006909101541190565b60005473ffffffffffffffffffffffffffffffffffffffff1633146109f55760405162461bcd60e51b815260206004820181905260248201527f4f776e61626c653a2063616c6c6572206973206e6f7420746865206f776e65726044820152606401610b94565b600180547fffffffffffffffffffffffff0000000000000000000000000000000000000000169055610ba681612392565b6001600482015460ff1660018111156121f1576121f1612909565b03612284576002546040517f7483793500000000000000000000000000000000000000000000000000000000815273ffffffffffffffffffffffffffffffffffffffff9091169063748379359061224f9060058501906004016132cf565b600060405180830381600087803b15801561226957600080fd5b505af115801561227d573d6000803e3d6000fd5b5050505050565b6002546040517f3c01b93c00000000000000000000000000000000000000000000000000000000815273ffffffffffffffffffffffffffffffffffffffff90911690633c01b93c9061224f9060058501906004016132cf565b600080600e546122ec84612407565b6040517f190100000000000000000000000000000000000000000000000000000000000060208201526022810192909252604282015260620160408051601f198184030181529190528051602091820120915061234b90840184612b2f565b73ffffffffffffffffffffffffffffffffffffffff1661237482608086013560a08701356124a1565b73ffffffffffffffffffffffffffffffffffffffff16149392505050565b6000805473ffffffffffffffffffffffffffffffffffffffff8381167fffffffffffffffffffffffff0000000000000000000000000000000000000000831681178455604051919092169283917f8be0079c531659141344cd1fd0a4f28419497f9722a3daafe3b4186f6b6457e09190a35050565b60007fc8dfdde54cc98cd88a1a27e5243a7be688ac8c14d9008cb1cb76670591060447602083018035906040850135906124419086612b2f565b60408051602081019590955284019290925260608381019190915273ffffffffffffffffffffffffffffffffffffffff909116608083015283013560a082015260c001604051602081830303815290604052805190602001209050919050565b60008060006124b18686866124c7565b915091506124be81612519565b50949350505050565b6000807f7fffffffffffffffffffffffffffffffffffffffffffffffffffffffffffffff8316816124fd60ff86901c601b61313f565b905061250b8782888561267e565b935093505050935093915050565b600081600481111561252d5761252d612909565b036125355750565b600181600481111561254957612549612909565b036125965760405162461bcd60e51b815260206004820152601860248201527f45434453413a20696e76616c6964207369676e617475726500000000000000006044820152606401610b94565b60028160048111156125aa576125aa612909565b036125f75760405162461bcd60e51b815260206004820152601f60248201527f45434453413a20696e76616c6964207369676e6174757265206c656e677468006044820152606401610b94565b600381600481111561260b5761260b612909565b03610ba65760405162461bcd60e51b815260206004820152602260248201527f45434453413a20696e76616c6964207369676e6174757265202773272076616c60448201527f75650000000000000000000000000000000000000000000000000000000000006064820152608401610b94565b6000807f7fffffffffffffffffffffffffffffff5d576e7357a4501ddfe92f46681b20a08311156126b55750600090506003612746565b6040805160008082526020820180845289905260ff881692820192909252606081018690526080810185905260019060a0016020604051602081039080840390855afa158015612709573d6000803e3d6000fd5b5050604051601f19015191505073ffffffffffffffffffffffffffffffffffffffff811661273f57600060019250925050612746565b9150600090505b94509492505050565b5080546000825590600052602060002090810190610ba691906127f0565b604051806101a0016040528060008152602001600081526020016000815260200160008152602001600060018111156127a8576127a8612909565b81526020016000151581526020016060815260200160008152602001600081526020016000815260200160008152602001600063ffffffff1681526020016000151581525090565b5b8082111561280557600081556001016127f1565b5090565b6000806020838503121561281c57600080fd5b823567ffffffffffffffff8082111561283457600080fd5b818501915085601f83011261284857600080fd5b81358181111561285757600080fd5b86602060c08302850101111561286c57600080fd5b60209290920196919550909350505050565b60008083601f84011261289057600080fd5b50813567ffffffffffffffff8111156128a857600080fd5b6020830191508360208285010111156128c057600080fd5b9250929050565b600080602083850312156128da57600080fd5b823567ffffffffffffffff8111156128f157600080fd5b6128fd8582860161287e565b90969095509350505050565b7f4e487b7100000000000000000000000000000000000000000000000000000000600052602160045260246000fd5b6002811061296f577f4e487b7100000000000000000000000000000000000000000000000000000000600052602160045260246000fd5b9052565b6000815180845260005b818110156129995760208185018101518683018201520161297d565b506000602082860101526020601f19601f83011685010191505092915050565b60006101a08251845260208301516020850152604083015160408501526060830151606085015260808301516129f26080860182612938565b5060a0830151612a0660a086018215159052565b5060c08301518160c0860152612a1e82860182612973565b60e085810151908701526101008086015190870152610120808601519087015261014080860151908701526101608086015163ffffffff16908701526101809485015115159490950193909352509192915050565b602081526000612a8660208301846129b9565b9392505050565b6000602080830181845280855180835260408601915060408160051b870101925083870160005b82811015612b00577fffffffffffffffffffffffffffffffffffffffffffffffffffffffffffffffc0888603018452612aee8583516129b9565b94509285019290850190600101612ab4565b5092979650505050505050565b73ffffffffffffffffffffffffffffffffffffffff81168114610ba657600080fd5b600060208284031215612b4157600080fd5b8135612a8681612b0d565b600060208284031215612b5e57600080fd5b5035919050565b60006101a08f83528e60208401528d60408401528c6060840152612b8c608084018d612938565b8a151560a08401528060c0840152612ba68184018b612973565b60e0840199909952505061010081019590955261012085019390935261014084019190915263ffffffff16610160830152151561018090910152979650505050505050565b60008060408385031215612bfe57600080fd5b82359150602083013563ffffffff81168114612c1957600080fd5b809150509250929050565b6020808252825182820181905260009190848201906040850190845b81811015612c5c57835183529284019291840191600101612c40565b50909695505050505050565b60008060008060608587031215612c7e57600080fd5b843560028110612c8d57600080fd5b9350602085013567ffffffffffffffff811115612ca957600080fd5b612cb58782880161287e565b9598909750949560400135949350505050565b6020808252825182820181905260009190848201906040850190845b81811015612c5c57835173ffffffffffffffffffffffffffffffffffffffff1683529284019291840191600101612ce4565b7f4e487b7100000000000000000000000000000000000000000000000000000000600052604160045260246000fd5b600060208284031215612d5757600080fd5b813567ffffffffffffffff80821115612d6f57600080fd5b818401915084601f830112612d8357600080fd5b813581811115612d9557612d95612d16565b604051601f8201601f19908116603f01168101908382118183101715612dbd57612dbd612d16565b81604052828152876020848701011115612dd657600080fd5b826020860160208301376000928101602001929092525095945050505050565b7f4e487b7100000000000000000000000000000000000000000000000000000000600052603260045260246000fd5b7f4e487b7100000000000000000000000000000000000000000000000000000000600052601160045260246000fd5b61ffff81811683821601908082111561098d5761098d612e25565b63ffffffff81811683821601908082111561098d5761098d612e25565b60007fffffffffffffffffffffffffffffffffffffffffffffffffffffffffffffffff8203612ebd57612ebd612e25565b5060010190565b600061ffff808316818103612edb57612edb612e25565b6001019392505050565b8183823760009101908152919050565b600181811c90821680612f0957607f821691505b6020821081036117cd577f4e487b7100000000000000000000000000000000000000000000000000000000600052602260045260246000fd5b6000808354612f5081612ef5565b60018281168015612f685760018114612f9b57612fca565b7fffffffffffffffffffffffffffffffffffffffffffffffffffffffffffffff0084168752821515830287019450612fca565b8760005260208060002060005b85811015612fc15781548a820152908401908201612fa8565b50505082870194505b50929695505050505050565b60008154612fe381612ef5565b808552602060018381168015613000576001811461303857613066565b7fffffffffffffffffffffffffffffffffffffffffffffffffffffffffffffff008516838901528284151560051b8901019550613066565b866000528260002060005b8581101561305e5781548a8201860152908301908401613043565b890184019650505b505050505092915050565b84815260806020820152600061308a6080830186612fd6565b905083151560408301526130a16060830184612938565b95945050505050565b818352818160208501375060006020828401015260006020601f19601f840116840101905092915050565b6020815260006130e96020830184866130aa565b949350505050565b60006020828403121561310357600080fd5b81518015158114612a8657600080fd5b8181038181111561071357610713612e25565b60006020828403121561313857600080fd5b5051919050565b8082018082111561071357610713612e25565b601f82111561058057600081815260208120601f850160051c810160208610156131795750805b601f850160051c820191505b8181101561319857828155600101613185565b505050505050565b815167ffffffffffffffff8111156131ba576131ba612d16565b6131ce816131c88454612ef5565b84613152565b602080601f83116001811461322157600084156131eb5750858301515b7fffffffffffffffffffffffffffffffffffffffffffffffffffffffffffffffff600386901b1c1916600185901b178555613198565b600085815260208120601f198616915b8281101561325057888601518255948401946001909101908401613231565b508582101561328c57878501517fffffffffffffffffffffffffffffffffffffffffffffffffffffffffffffffff600388901b60f8161c191681555b5050505050600190811b01905550565b8381526040602082015260006130a16040830184866130aa565b600063ffffffff808316818103612edb57612edb612e25565b602081526000612a866020830184612fd656",
    "linkReferences": {}
  },
  "methodIdentifiers": {
    "VOTE_TYPEHASH()": "86522973",
    "acceptOwnership()": "79ba5097",
    "activeRoomIDByCommunityID(bytes)": "f6a54ac6",
    "castVotes((address,uint256,uint256,uint256,bytes32,bytes32)[])": "2111efc7",
    "directory()": "c41c2f24",
    "finalizeVotingRoom(uint256,uint32)": "a68f1449",
    "getActiveVotingRoom(bytes)": "54b6ec37",
    "getActiveVotingRooms()": "c1cde92c",
    "getVotingHistory(bytes)": "5dacd0a0",
    "initializeVotingRoom(uint8,bytes,uint256)": "da6d4a3d",
    "listRoomVoters(uint256)": "daf1612b",
    "owner()": "8da5cb5b",
    "pendingOwner()": "e30c3978",
    "renounceOwnership()": "715018a6",
    "setDirectory(address)": "6e91818a",
    "timeBetweenVoting()": "7ed1689c",
    "token()": "fc0c546a",
    "transferOwnership(address)": "f2fde38b",
    "votingLength()": "0a64522f",
    "votingRooms(uint256)": "730d0108",
    "votingVerificationLength()": "ff9bd048"
  },
  "id": 2
}