{
  "abi": [
    {
      "inputs": [
        {
          "internalType": "contract MiniMeToken",
          "name": "_token",
          "type": "address"
        },
        {
          "internalType": "uint256",
          "name": "_votingLength",
          "type": "uint256"
        },
        {
          "internalType": "uint256",
          "name": "_votingVerificationLength",
          "type": "uint256"
        },
        {
          "internalType": "uint256",
          "name": "_timeBetweenVoting",
          "type": "uint256"
        }
      ],
      "stateMutability": "nonpayable",
      "type": "constructor"
    },
    {
      "inputs": [
        {
          "internalType": "uint256",
          "name": "ID",
          "type": "uint256"
        }
      ],
      "name": "InvalidRoomID",
      "type": "error"
    },
    {
      "inputs": [
        {
          "internalType": "uint256",
          "name": "ID",
          "type": "uint256"
        }
      ],
      "name": "VotingRoomDoesntExist",
      "type": "error"
    },
    {
      "anonymous": false,
      "inputs": [
        {
          "indexed": false,
          "internalType": "uint256",
          "name": "roomId",
          "type": "uint256"
        },
        {
          "indexed": false,
          "internalType": "address",
          "name": "voter",
          "type": "address"
        }
      ],
      "name": "AlreadyVoted",
      "type": "event"
    },
    {
      "anonymous": false,
      "inputs": [
        {
          "indexed": false,
          "internalType": "uint256",
          "name": "roomId",
          "type": "uint256"
        },
        {
          "indexed": false,
          "internalType": "address",
          "name": "voter",
          "type": "address"
        }
      ],
      "name": "InvalidSignature",
      "type": "event"
    },
    {
      "anonymous": false,
      "inputs": [
        {
          "indexed": false,
          "internalType": "uint256",
          "name": "roomId",
          "type": "uint256"
        },
        {
          "indexed": false,
          "internalType": "address",
          "name": "voter",
          "type": "address"
        }
      ],
      "name": "NotEnoughToken",
      "type": "event"
    },
    {
      "anonymous": false,
      "inputs": [
        {
          "indexed": false,
          "internalType": "uint256",
          "name": "roomId",
          "type": "uint256"
        },
        {
          "indexed": false,
          "internalType": "address",
          "name": "voter",
          "type": "address"
        }
      ],
      "name": "VoteCast",
      "type": "event"
    },
    {
      "anonymous": false,
      "inputs": [
        {
          "indexed": false,
          "internalType": "uint256",
          "name": "roomId",
          "type": "uint256"
        },
        {
          "indexed": false,
          "internalType": "bytes",
          "name": "publicKey",
          "type": "bytes"
        },
        {
          "indexed": false,
          "internalType": "bool",
          "name": "passed",
          "type": "bool"
        },
        {
          "indexed": false,
          "internalType": "enum VotingContract.VoteType",
          "name": "voteType",
          "type": "uint8"
        }
      ],
      "name": "VotingRoomFinalized",
      "type": "event"
    },
    {
      "anonymous": false,
      "inputs": [
        {
          "indexed": false,
          "internalType": "uint256",
          "name": "roomId",
          "type": "uint256"
        },
        {
          "indexed": false,
          "internalType": "bytes",
          "name": "publicKey",
          "type": "bytes"
        }
      ],
      "name": "VotingRoomStarted",
      "type": "event"
    },
    {
      "anonymous": false,
      "inputs": [
        {
          "indexed": false,
          "internalType": "uint256",
          "name": "roomId",
          "type": "uint256"
        },
        {
          "indexed": false,
          "internalType": "bytes",
          "name": "publicKey",
          "type": "bytes"
        }
      ],
      "name": "VotingRoomVerificationStarted",
      "type": "event"
    },
    {
      "inputs": [],
      "name": "VOTE_TYPEHASH",
      "outputs": [
        {
          "internalType": "bytes32",
          "name": "",
          "type": "bytes32"
        }
      ],
      "stateMutability": "view",
      "type": "function"
    },
    {
      "inputs": [
        {
          "internalType": "bytes",
          "name": "",
          "type": "bytes"
        }
      ],
      "name": "activeRoomIDByCommunityID",
      "outputs": [
        {
          "internalType": "uint256",
          "name": "",
          "type": "uint256"
        }
      ],
      "stateMutability": "view",
      "type": "function"
    },
    {
      "inputs": [
        {
          "components": [
            {
              "internalType": "address",
              "name": "voter",
              "type": "address"
            },
            {
              "internalType": "uint256",
              "name": "roomIdAndType",
              "type": "uint256"
            },
            {
              "internalType": "uint256",
              "name": "sntAmount",
              "type": "uint256"
            },
            {
              "internalType": "uint256",
              "name": "timestamp",
              "type": "uint256"
            },
            {
              "internalType": "bytes32",
              "name": "r",
              "type": "bytes32"
            },
            {
              "internalType": "bytes32",
              "name": "vs",
              "type": "bytes32"
            }
          ],
          "internalType": "struct VotingContract.SignedVote[]",
          "name": "votes",
          "type": "tuple[]"
        }
      ],
      "name": "castVotes",
      "outputs": [],
      "stateMutability": "nonpayable",
      "type": "function"
    },
    {
      "inputs": [],
      "name": "directory",
      "outputs": [
        {
          "internalType": "contract Directory",
          "name": "",
          "type": "address"
        }
      ],
      "stateMutability": "view",
      "type": "function"
    },
    {
      "inputs": [
        {
          "internalType": "uint256",
          "name": "roomId",
          "type": "uint256"
        },
        {
          "internalType": "uint32",
          "name": "limit",
          "type": "uint32"
        }
      ],
      "name": "finalizeVotingRoom",
      "outputs": [],
      "stateMutability": "nonpayable",
      "type": "function"
    },
    {
      "inputs": [
        {
          "internalType": "bytes",
          "name": "publicKey",
          "type": "bytes"
        }
      ],
      "name": "getActiveVotingRoom",
      "outputs": [
        {
          "components": [
            {
              "internalType": "uint256",
              "name": "startBlock",
              "type": "uint256"
            },
            {
              "internalType": "uint256",
              "name": "startAt",
              "type": "uint256"
            },
            {
              "internalType": "uint256",
              "name": "verificationStartAt",
              "type": "uint256"
            },
            {
              "internalType": "uint256",
              "name": "endAt",
              "type": "uint256"
            },
            {
              "internalType": "enum VotingContract.VoteType",
              "name": "voteType",
              "type": "uint8"
            },
            {
              "internalType": "bool",
              "name": "finalized",
              "type": "bool"
            },
            {
              "internalType": "bytes",
              "name": "community",
              "type": "bytes"
            },
            {
              "internalType": "uint256",
              "name": "totalVotesFor",
              "type": "uint256"
            },
            {
              "internalType": "uint256",
              "name": "totalVotesAgainst",
              "type": "uint256"
            },
            {
              "internalType": "uint256",
              "name": "roomNumber",
              "type": "uint256"
            },
            {
              "internalType": "uint256",
              "name": "endBlock",
              "type": "uint256"
            },
            {
              "internalType": "uint32",
              "name": "evaluatingPos",
              "type": "uint32"
            },
            {
              "internalType": "bool",
              "name": "evaluated",
              "type": "bool"
            }
          ],
          "internalType": "struct VotingContract.VotingRoom",
          "name": "",
          "type": "tuple"
        }
      ],
      "stateMutability": "view",
      "type": "function"
    },
    {
      "inputs": [],
      "name": "getActiveVotingRooms",
      "outputs": [
        {
          "internalType": "uint256[]",
          "name": "",
          "type": "uint256[]"
        }
      ],
      "stateMutability": "view",
      "type": "function"
    },
    {
      "inputs": [
        {
          "internalType": "bytes",
          "name": "publicKey",
          "type": "bytes"
        }
      ],
      "name": "getVotingHistory",
      "outputs": [
        {
          "components": [
            {
              "internalType": "uint256",
              "name": "startBlock",
              "type": "uint256"
            },
            {
              "internalType": "uint256",
              "name": "startAt",
              "type": "uint256"
            },
            {
              "internalType": "uint256",
              "name": "verificationStartAt",
              "type": "uint256"
            },
            {
              "internalType": "uint256",
              "name": "endAt",
              "type": "uint256"
            },
            {
              "internalType": "enum VotingContract.VoteType",
              "name": "voteType",
              "type": "uint8"
            },
            {
              "internalType": "bool",
              "name": "finalized",
              "type": "bool"
            },
            {
              "internalType": "bytes",
              "name": "community",
              "type": "bytes"
            },
            {
              "internalType": "uint256",
              "name": "totalVotesFor",
              "type": "uint256"
            },
            {
              "internalType": "uint256",
              "name": "totalVotesAgainst",
              "type": "uint256"
            },
            {
              "internalType": "uint256",
              "name": "roomNumber",
              "type": "uint256"
            },
            {
              "internalType": "uint256",
              "name": "endBlock",
              "type": "uint256"
            },
            {
              "internalType": "uint32",
              "name": "evaluatingPos",
              "type": "uint32"
            },
            {
              "internalType": "bool",
              "name": "evaluated",
              "type": "bool"
            }
          ],
          "internalType": "struct VotingContract.VotingRoom[]",
          "name": "returnVotingRooms",
          "type": "tuple[]"
        }
      ],
      "stateMutability": "view",
      "type": "function"
    },
    {
      "inputs": [
        {
          "internalType": "enum VotingContract.VoteType",
          "name": "voteType",
          "type": "uint8"
        },
        {
          "internalType": "bytes",
          "name": "publicKey",
          "type": "bytes"
        },
        {
          "internalType": "uint256",
          "name": "voteAmount",
          "type": "uint256"
        }
      ],
      "name": "initializeVotingRoom",
      "outputs": [],
      "stateMutability": "nonpayable",
      "type": "function"
    },
    {
      "inputs": [
        {
          "internalType": "uint256",
          "name": "roomID",
          "type": "uint256"
        }
      ],
      "name": "listRoomVoters",
      "outputs": [
        {
          "internalType": "address[]",
          "name": "roomVoters",
          "type": "address[]"
        }
      ],
      "stateMutability": "view",
      "type": "function"
    },
    {
      "inputs": [],
      "name": "owner",
      "outputs": [
        {
          "internalType": "address",
          "name": "",
          "type": "address"
        }
      ],
      "stateMutability": "view",
      "type": "function"
    },
    {
      "inputs": [
        {
          "internalType": "contract Directory",
          "name": "_address",
          "type": "address"
        }
      ],
      "name": "setDirectory",
      "outputs": [],
      "stateMutability": "nonpayable",
      "type": "function"
    },
    {
      "inputs": [],
      "name": "timeBetweenVoting",
      "outputs": [
        {
          "internalType": "uint256",
          "name": "",
          "type": "uint256"
        }
      ],
      "stateMutability": "view",
      "type": "function"
    },
    {
      "inputs": [],
      "name": "token",
      "outputs": [
        {
          "internalType": "contract MiniMeToken",
          "name": "",
          "type": "address"
        }
      ],
      "stateMutability": "view",
      "type": "function"
    },
    {
      "inputs": [],
      "name": "votingLength",
      "outputs": [
        {
          "internalType": "uint256",
          "name": "",
          "type": "uint256"
        }
      ],
      "stateMutability": "view",
      "type": "function"
    },
    {
      "inputs": [
        {
          "internalType": "uint256",
          "name": "",
          "type": "uint256"
        }
      ],
      "name": "votingRooms",
      "outputs": [
        {
          "internalType": "uint256",
          "name": "startBlock",
          "type": "uint256"
        },
        {
          "internalType": "uint256",
          "name": "startAt",
          "type": "uint256"
        },
        {
          "internalType": "uint256",
          "name": "verificationStartAt",
          "type": "uint256"
        },
        {
          "internalType": "uint256",
          "name": "endAt",
          "type": "uint256"
        },
        {
          "internalType": "enum VotingContract.VoteType",
          "name": "voteType",
          "type": "uint8"
        },
        {
          "internalType": "bool",
          "name": "finalized",
          "type": "bool"
        },
        {
          "internalType": "bytes",
          "name": "community",
          "type": "bytes"
        },
        {
          "internalType": "uint256",
          "name": "totalVotesFor",
          "type": "uint256"
        },
        {
          "internalType": "uint256",
          "name": "totalVotesAgainst",
          "type": "uint256"
        },
        {
          "internalType": "uint256",
          "name": "roomNumber",
          "type": "uint256"
        },
        {
          "internalType": "uint256",
          "name": "endBlock",
          "type": "uint256"
        },
        {
          "internalType": "uint32",
          "name": "evaluatingPos",
          "type": "uint32"
        },
        {
          "internalType": "bool",
          "name": "evaluated",
          "type": "bool"
        }
      ],
      "stateMutability": "view",
      "type": "function"
    },
    {
      "inputs": [],
      "name": "votingVerificationLength",
      "outputs": [
        {
          "internalType": "uint256",
          "name": "",
          "type": "uint256"
        }
      ],
      "stateMutability": "view",
      "type": "function"
    }
  ],
  "bytecode": {
    "object": "0x60806040523480156200001157600080fd5b50604051620032143803806200321483398101604081905262000034916200017a565b60008054336001600160a01b031991821617909155600280549091166001600160a01b0386161790556003839055600482905560058190556040805160c081018252600f608082019081526e159bdd1a5b99c810dbdb9d1c9858dd608a1b60a083015281528151808301835260018152603160f81b6020808301919091528201524691810191909152306060820152620000ce90620000dc565b600d5550620001c792505050565b60007f8b73c3c69bb8fe3d512ecc4cf759cc79239f7b179b0ffacaa9a75d522b39400f826000015180519060200120836020015180519060200120846040015185606001516040516020016200015d9594939291909485526020850193909352604084019190915260608301526001600160a01b0316608082015260a00190565b604051602081830303815290604052805190602001209050919050565b600080600080608085870312156200019157600080fd5b84516001600160a01b0381168114620001a957600080fd5b60208601516040870151606090970151919890975090945092505050565b61303d80620001d76000396000f3fe608060405234801561001057600080fd5b506004361061011b5760003560e01c80638da5cb5b116100b2578063da6d4a3d11610081578063f6a54ac611610066578063f6a54ac6146102c0578063fc0c546a146102eb578063ff9bd0481461030b57600080fd5b8063da6d4a3d1461028d578063daf1612b146102a057600080fd5b80638da5cb5b14610200578063a68f144914610245578063c1cde92c14610258578063c41c2f241461026d57600080fd5b80636e91818a116100ee5780636e91818a14610191578063730d0108146101a45780637ed1689c146101d057806386522973146101d957600080fd5b80630a64522f146101205780632111efc71461013c57806354b6ec37146101515780635dacd0a014610171575b600080fd5b61012960035481565b6040519081526020015b60405180910390f35b61014f61014a366004612564565b610314565b005b61016461015f366004612622565b6104ee565b60405161013391906127ce565b61018461017f366004612622565b610682565b60405161013391906127e8565b61014f61019f36600461288a565b6108fd565b6101b76101b23660046128a7565b6109b0565b6040516101339d9c9b9a999897969594939291906128c0565b61012960055481565b6101297fc8dfdde54cc98cd88a1a27e5243a7be688ac8c14d9008cb1cb7667059106044781565b6000546102209073ffffffffffffffffffffffffffffffffffffffff1681565b60405173ffffffffffffffffffffffffffffffffffffffff9091168152602001610133565b61014f610253366004612946565b610ac2565b610260610cad565b604051610133919061297f565b6001546102209073ffffffffffffffffffffffffffffffffffffffff1681565b61014f61029b3660046129c3565b610da8565b6102b36102ae3660046128a7565b6115e2565b6040516101339190612a23565b6101296102ce366004612aa0565b805160208183018101805160078252928201919093012091525481565b6002546102209073ffffffffffffffffffffffffffffffffffffffff1681565b61012960045481565b6000805b8281101561042c57600061034285858481811061033757610337612b51565b905060c002016116ec565b90508015610419576000600186868581811061036057610360612b51565b602060c09091029290920182013590921c60008181526009909252604082205490935063ffffffff16900390506103d45761039c600185612baf565b600a80546001810182556000919091527fc65a7bb8d6351c1cf70c95a316cc6a92839c986682d98bc35f958f4883f9d2a80182905593505b60008181526009602052604081208054600192906103f990849063ffffffff16612bca565b92506101000a81548163ffffffff021916908363ffffffff160217905550505b508061042481612be7565b915050610318565b5060005b8161ffff168161ffff1610156104dc576000600a8261ffff168154811061045957610459612b51565b90600052602060002001549050600061047182611ba3565b60008381526009602052604090205490915061049490829063ffffffff16611c56565b5050600090815260096020526040902080547fffffffffffffffffffffffffffffffffffffffffffffffffffffffff00000000169055806104d481612c1f565b915050610430565b506104e9600a60006124aa565b505050565b6104f66124c8565b61051f6007848460405161050b929190612c40565b908152602001604051809103902054611ba3565b604080516101a081018252825481526001808401546020830152600284015492820192909252600383015460608201526004830154909291608084019160ff169081111561056f5761056f612664565b600181111561058057610580612664565b81526004820154610100900460ff16151560208201526005820180546040909201916105ab90612c50565b80601f01602080910402602001604051908101604052809291908181526020018280546105d790612c50565b80156106245780601f106105f957610100808354040283529160200191610624565b820191906000526020600020905b81548152906001019060200180831161060757829003601f168201915b505050918352505060068201546020820152600782015460408201526008820154606082015260098201546080820152600a9091015463ffffffff811660a0830152640100000000900460ff16151560c09091015290505b92915050565b606060088383604051610696929190612c40565b9081526040519081900360200190205467ffffffffffffffff8111156106be576106be612a71565b6040519080825280602002602001820160405280156106f757816020015b6106e46124c8565b8152602001906001900390816106dc5790505b50905060005b6008848460405161070f929190612c40565b908152604051908190036020019020548110156108f65761076a6008858560405161073b929190612c40565b9081526020016040518091039020828154811061075a5761075a612b51565b9060005260206000200154611ba3565b604080516101a081018252825481526001808401546020830152600284015492820192909252600383015460608201526004830154909291608084019160ff16908111156107ba576107ba612664565b60018111156107cb576107cb612664565b81526004820154610100900460ff16151560208201526005820180546040909201916107f690612c50565b80601f016020809104026020016040519081016040528092919081815260200182805461082290612c50565b801561086f5780601f106108445761010080835404028352916020019161086f565b820191906000526020600020905b81548152906001019060200180831161085257829003601f168201915b505050918352505060068201546020820152600782015460408201526008820154606082015260098201546080820152600a9091015463ffffffff811660a0830152640100000000900460ff16151560c09091015282518390839081106108d8576108d8612b51565b602002602001018190525080806108ee90612be7565b9150506106fd565b5092915050565b60005473ffffffffffffffffffffffffffffffffffffffff1633146109695760405162461bcd60e51b815260206004820152600960248201527f4e6f74206f776e6572000000000000000000000000000000000000000000000060448201526064015b60405180910390fd5b600180547fffffffffffffffffffffffff00000000000000000000000000000000000000001673ffffffffffffffffffffffffffffffffffffffff92909216919091179055565b600681815481106109c057600080fd5b60009182526020909120600b909102018054600182015460028301546003840154600485015460058601805495975093959294919360ff808316946101009093041692610a0c90612c50565b80601f0160208091040260200160405190810160405280929190818152602001828054610a3890612c50565b8015610a855780601f10610a5a57610100808354040283529160200191610a85565b820191906000526020600020905b815481529060010190602001808311610a6857829003601f168201915b5050506006840154600785015460088601546009870154600a9097015495969295919450925063ffffffff81169060ff640100000000909104168d565b6000610acd83611ba3565b6004810154909150610100900460ff16610bce5742816003015410610b345760405162461bcd60e51b815260206004820152601260248201527f766f7465207374696c6c206f6e676f696e6700000000000000000000000000006044820152606401610960565b6004810180547fffffffffffffffffffffffffffffffffffffffffffffffffffffffffffff00ff16610100179055426003820155436009820155604051600090600790610b85906005850190612c9d565b90815260405190819003602001902055600a810180547fffffffffffffffffffffffffffffffffffffffffffffffffffffff000000000016905560006006820181905560078201555b600a810154640100000000900460ff1615610c2b5760405162461bcd60e51b815260206004820152601660248201527f766f746520616c72656164792066696e616c697a6564000000000000000000006044820152606401610960565b6000610c378284611c56565b600a830154909150640100000000900460ff1615610ca7578015610c5e57610c5e82611fa3565b60048201546040517f2ee1d50dd7d7f4ca1cd35dba9bde18b024b24f448a26c1c8846fe7b8bb450d1d91610c9e9187916005870191869160ff1690612dcc565b60405180910390a15b50505050565b60065460609060009067ffffffffffffffff811115610cce57610cce612a71565b604051908082528060200260200182016040528015610cf7578160200160208202803683370190505b5090506000805b600654811015610da05760068181548110610d1b57610d1b612b51565b90600052602060002090600b020160040160019054906101000a900460ff16610d8e5760068181548110610d5157610d51612b51565b90600052602060002090600b020160080154838381518110610d7557610d75612b51565b602090810291909101015281610d8a81612be7565b9250505b80610d9881612be7565b915050610cfe565b508152919050565b60078383604051610dba929190612c40565b908152602001604051809103902054600014610e185760405162461bcd60e51b815260206004820152601460248201527f766f746520616c7265616479206f6e676f696e670000000000000000000000006044820152606401610960565b6000846001811115610e2c57610e2c612664565b03610f16576001546040517fb3dbb52a00000000000000000000000000000000000000000000000000000000815273ffffffffffffffffffffffffffffffffffffffff9091169063b3dbb52a90610e899086908690600401612e30565b602060405180830381865afa158015610ea6573d6000803e3d6000fd5b505050506040513d601f19601f82011682018060405250810190610eca9190612e4c565b610f165760405162461bcd60e51b815260206004820152601a60248201527f436f6d6d756e697479206e6f7420696e206469726563746f72790000000000006044820152606401610960565b6001846001811115610f2a57610f2a612664565b03611015576001546040517fb3dbb52a00000000000000000000000000000000000000000000000000000000815273ffffffffffffffffffffffffffffffffffffffff9091169063b3dbb52a90610f879086908690600401612e30565b602060405180830381865afa158015610fa4573d6000803e3d6000fd5b505050506040513d601f19601f82011682018060405250810190610fc89190612e4c565b156110155760405162461bcd60e51b815260206004820152601e60248201527f436f6d6d756e69747920616c726561647920696e206469726563746f727900006044820152606401610960565b600060088484604051611029929190612c40565b90815260405190819003602001902054905080156110f557600060088585604051611055929190612c40565b90815260405190819003602001902061106f600184612e6e565b8154811061107f5761107f612b51565b9060005260206000200154905060055461109882611ba3565b600301546110a69042612e6e565b116110f35760405162461bcd60e51b815260206004820181905260248201527f436f6d6d756e6974792077617320696e206120766f746520726563656e746c796044820152606401610960565b505b6002546040517f70a08231000000000000000000000000000000000000000000000000000000008152336004820152839173ffffffffffffffffffffffffffffffffffffffff16906370a0823190602401602060405180830381865afa158015611163573d6000803e3d6000fd5b505050506040513d601f19601f820116820180604052508101906111879190612e81565b10156111d55760405162461bcd60e51b815260206004820152601060248201527f6e6f7420656e6f75676820746f6b656e000000000000000000000000000000006044820152606401610960565b6006546000906111e6906001612e9a565b905080600786866040516111fb929190612c40565b9081526020016040518091039020819055506008858560405161121f929190612c40565b90815260408051602092819003830181208054600180820183556000928352858320909101869055858252600b85528382206060840185523384528584018281529484018990528054808301825590835294909120825160029095020180547fffffffffffffffffffffffff0000000000000000000000000000000000000000811673ffffffffffffffffffffffffffffffffffffffff909616958617825593519294909384927fffffffffffffffffffffff000000000000000000000000000000000000000000909116909117907401000000000000000000000000000000000000000090849081111561131657611316612664565b02179055506040918201516001918201556000838152600c602090815283822033835281529083902080547fffffffffffffffffffffffffffffffffffffffffffffffffffffffffffffff001690921790915581516101a081018352438152429181018290526003546006939192918301916113929190612e9a565b8152602001600454600354426113a89190612e9a565b6113b29190612e9a565b81526020018860018111156113c9576113c9612664565b815260200160001515815260200187878080601f0160208091040260200160405190810160405280939291908181526020018383808284376000920182905250938552505050602080830182905260408084018390526060808501889052608080860185905260a0860185905260c0909501849052865460018181018955978552938390208651600b909502019384559185015183870155840151600283015583015160038201559082015160048201805493949293919290917fffffffffffffffffffffffffffffffffffffffffffffffffffffffffffffff00169083818111156114b7576114b7612664565b021790555060a0820151600482018054911515610100027fffffffffffffffffffffffffffffffffffffffffffffffffffffffffffff00ff90921691909117905560c0820151600582019061150c9082612efb565b5060e08201516006820155610100820151600782015561012082015160088201556101408201516009820155610160820151600a9091018054610180909301511515640100000000027fffffffffffffffffffffffffffffffffffffffffffffffffffffff000000000090931663ffffffff9092169190911791909117905561159e61159782611ba3565b6001611c56565b507f56385c0d76ffcefeb38cb9226cb877000037647d09069d15e94ac4b29ec435878186866040516115d293929190612ff7565b60405180910390a1505050505050565b6000818152600b602052604090205460609067ffffffffffffffff81111561160c5761160c612a71565b604051908082528060200260200182016040528015611635578160200160208202803683370190505b50905060005b6000838152600b60205260409020548110156116e6576000838152600b6020526040902080548290811061167157611671612b51565b6000918252602090912060029091020154825173ffffffffffffffffffffffffffffffffffffffff909116908390839081106116af576116af612b51565b73ffffffffffffffffffffffffffffffffffffffff90921660209283029190910190910152806116de81612be7565b91505061163b565b50919050565b60006116f7826120ad565b611765577f35f8d4297cedff70ac1e00ca57f340dc39eb0234be11eeeb57a0ff94015b734660208301803560011c90611730908561288a565b6040805192835273ffffffffffffffffffffffffffffffffffffffff90911660208301520160405180910390a1506000919050565b602082013560011c600061177882611ba3565b9050806003015442106117cd5760405162461bcd60e51b815260206004820152600b60248201527f766f746520636c6f7365640000000000000000000000000000000000000000006044820152606401610960565b6004810154610100900460ff16156118275760405162461bcd60e51b815260206004820152600e60248201527f726f6f6d2066696e616c697a65640000000000000000000000000000000000006044820152606401610960565b806002015484606001351061187e5760405162461bcd60e51b815260206004820152601660248201527f696e76616c696420766f74652074696d657374616d70000000000000000000006044820152606401610960565b8060010154846060013510156118d65760405162461bcd60e51b815260206004820152601660248201527f696e76616c696420766f74652074696d657374616d70000000000000000000006044820152606401610960565b6000828152600c60209081526040822091906118f49087018761288a565b73ffffffffffffffffffffffffffffffffffffffff16815260208101919091526040016000205460ff1615611989577f04f9da634a3ce855cf7785808a673a41608288999dcd1d08e55bb33c69118f4a82611952602087018761288a565b6040805192835273ffffffffffffffffffffffffffffffffffffffff90911660208301520160405180910390a15060009392505050565b6000828152600c60209081526040822060019290916119aa9088018861288a565b73ffffffffffffffffffffffffffffffffffffffff1681526020808201929092526040908101600090812080547fffffffffffffffffffffffffffffffffffffffffffffffffffffffffffffff001694151594909417909355848352600b82529182902082516060810190935291908190611a279088018861288a565b73ffffffffffffffffffffffffffffffffffffffff1681526020018660200135600116600114611a58576000611a5b565b60015b6001811115611a6c57611a6c612664565b815260408701356020918201528254600181810185556000948552938290208351600290920201805473ffffffffffffffffffffffffffffffffffffffff9092167fffffffffffffffffffffffff000000000000000000000000000000000000000083168117825592840151939490939284927fffffffffffffffffffffff00000000000000000000000000000000000000000016179074010000000000000000000000000000000000000000908490811115611b2b57611b2b612664565b0217905550604091909101516001909101557ff1003b73c437642c0460aee9cd9628b0b8c447b66e6c7c905531b9c644214a1182611b6c602087018761288a565b6040805192835273ffffffffffffffffffffffffffffffffffffffff90911660208301520160405180910390a15060019392505050565b6000816001811015611be4576040517ff244389200000000000000000000000000000000000000000000000000000000815260048101829052602401610960565b600654811115611c23576040517fdd085d4b00000000000000000000000000000000000000000000000000000000815260048101829052602401610960565b6006611c30600185612e6e565b81548110611c4057611c40612b51565b90600052602060002090600b0201915050919050565b600a82015460088301546000908152600b60205260408120549091611c839163ffffffff90911690612e6e565b8263ffffffff161115611cfe5760405162461bcd60e51b815260206004820152602260248201527f6c696d69742069732067726561746572207468616e20766f746573206c656e6760448201527f74680000000000000000000000000000000000000000000000000000000000006064820152608401610960565b60048301544390610100900460ff1615611d19575060098301545b60005b8363ffffffff168163ffffffff161015611f015760088501546000908152600b60205260408120600a870154611d5990849063ffffffff16612bca565b63ffffffff1681548110611d6f57611d6f612b51565b600091825260209091206002918202016001810154915481546040517f4ee2cd7e00000000000000000000000000000000000000000000000000000000815273ffffffffffffffffffffffffffffffffffffffff9182166004820152602481018890529294501690634ee2cd7e90604401602060405180830381865afa158015611dfd573d6000803e3d6000fd5b505050506040513d601f19601f82011682018060405250810190611e219190612e81565b10611e97576001815474010000000000000000000000000000000000000000900460ff166001811115611e5657611e56612664565b03611e795780600101548660060154611e6f9190612e9a565b6006870155611eee565b80600101548660070154611e8d9190612e9a565b6007870155611eee565b600886015481546040805192835273ffffffffffffffffffffffffffffffffffffffff90911660208301527f52de8a8b06ee845dd9537ef3906e0a37d48c140e75f780715ee892f0ee08c052910160405180910390a15b5080611ef981613011565b915050611d1c565b600a85018054829190600090611f1e90849063ffffffff16612bca565b82546101009290920a63ffffffff81810219909316918316021790915560088701546000908152600b6020526040902054600a880154909116039050611f9057600a850180547fffffffffffffffffffffffffffffffffffffffffffffffffffffff00ffffffff166401000000001790555b5050505060078101546006909101541190565b6001600482015460ff166001811115611fbe57611fbe612664565b03612051576001546040517f7483793500000000000000000000000000000000000000000000000000000000815273ffffffffffffffffffffffffffffffffffffffff9091169063748379359061201c90600585019060040161302a565b600060405180830381600087803b15801561203657600080fd5b505af115801561204a573d6000803e3d6000fd5b5050505050565b6001546040517f3c01b93c00000000000000000000000000000000000000000000000000000000815273ffffffffffffffffffffffffffffffffffffffff90911690633c01b93c9061201c90600585019060040161302a565b50565b600080600d546120bc84612162565b6040517f190100000000000000000000000000000000000000000000000000000000000060208201526022810192909252604282015260620160408051601f198184030181529190528051602091820120915061211b9084018461288a565b73ffffffffffffffffffffffffffffffffffffffff1661214482608086013560a08701356121fc565b73ffffffffffffffffffffffffffffffffffffffff16149392505050565b60007fc8dfdde54cc98cd88a1a27e5243a7be688ac8c14d9008cb1cb766705910604476020830180359060408501359061219c908661288a565b60408051602081019590955284019290925260608381019190915273ffffffffffffffffffffffffffffffffffffffff909116608083015283013560a082015260c001604051602081830303815290604052805190602001209050919050565b600080600061220c868686612222565b9150915061221981612274565b50949350505050565b6000807f7fffffffffffffffffffffffffffffffffffffffffffffffffffffffffffffff83168161225860ff86901c601b612e9a565b9050612266878288856123d9565b935093505050935093915050565b600081600481111561228857612288612664565b036122905750565b60018160048111156122a4576122a4612664565b036122f15760405162461bcd60e51b815260206004820152601860248201527f45434453413a20696e76616c6964207369676e617475726500000000000000006044820152606401610960565b600281600481111561230557612305612664565b036123525760405162461bcd60e51b815260206004820152601f60248201527f45434453413a20696e76616c6964207369676e6174757265206c656e677468006044820152606401610960565b600381600481111561236657612366612664565b036120aa5760405162461bcd60e51b815260206004820152602260248201527f45434453413a20696e76616c6964207369676e6174757265202773272076616c60448201527f75650000000000000000000000000000000000000000000000000000000000006064820152608401610960565b6000807f7fffffffffffffffffffffffffffffff5d576e7357a4501ddfe92f46681b20a083111561241057506000905060036124a1565b6040805160008082526020820180845289905260ff881692820192909252606081018690526080810185905260019060a0016020604051602081039080840390855afa158015612464573d6000803e3d6000fd5b5050604051601f19015191505073ffffffffffffffffffffffffffffffffffffffff811661249a576000600192509250506124a1565b9150600090505b94509492505050565b50805460008255906000526020600020908101906120aa919061254b565b604051806101a00160405280600081526020016000815260200160008152602001600081526020016000600181111561250357612503612664565b81526020016000151581526020016060815260200160008152602001600081526020016000815260200160008152602001600063ffffffff1681526020016000151581525090565b5b80821115612560576000815560010161254c565b5090565b6000806020838503121561257757600080fd5b823567ffffffffffffffff8082111561258f57600080fd5b818501915085601f8301126125a357600080fd5b8135818111156125b257600080fd5b86602060c0830285010111156125c757600080fd5b60209290920196919550909350505050565b60008083601f8401126125eb57600080fd5b50813567ffffffffffffffff81111561260357600080fd5b60208301915083602082850101111561261b57600080fd5b9250929050565b6000806020838503121561263557600080fd5b823567ffffffffffffffff81111561264c57600080fd5b612658858286016125d9565b90969095509350505050565b7f4e487b7100000000000000000000000000000000000000000000000000000000600052602160045260246000fd5b600281106126ca577f4e487b7100000000000000000000000000000000000000000000000000000000600052602160045260246000fd5b9052565b6000815180845260005b818110156126f4576020818501810151868301820152016126d8565b506000602082860101526020601f19601f83011685010191505092915050565b60006101a082518452602083015160208501526040830151604085015260608301516060850152608083015161274d6080860182612693565b5060a083015161276160a086018215159052565b5060c08301518160c0860152612779828601826126ce565b60e085810151908701526101008086015190870152610120808601519087015261014080860151908701526101608086015163ffffffff16908701526101809485015115159490950193909352509192915050565b6020815260006127e16020830184612714565b9392505050565b6000602080830181845280855180835260408601915060408160051b870101925083870160005b8281101561285b577fffffffffffffffffffffffffffffffffffffffffffffffffffffffffffffffc0888603018452612849858351612714565b9450928501929085019060010161280f565b5092979650505050505050565b73ffffffffffffffffffffffffffffffffffffffff811681146120aa57600080fd5b60006020828403121561289c57600080fd5b81356127e181612868565b6000602082840312156128b957600080fd5b5035919050565b60006101a08f83528e60208401528d60408401528c60608401526128e7608084018d612693565b8a151560a08401528060c08401526129018184018b6126ce565b60e0840199909952505061010081019590955261012085019390935261014084019190915263ffffffff16610160830152151561018090910152979650505050505050565b6000806040838503121561295957600080fd5b82359150602083013563ffffffff8116811461297457600080fd5b809150509250929050565b6020808252825182820181905260009190848201906040850190845b818110156129b75783518352928401929184019160010161299b565b50909695505050505050565b600080600080606085870312156129d957600080fd5b8435600281106129e857600080fd5b9350602085013567ffffffffffffffff811115612a0457600080fd5b612a10878288016125d9565b9598909750949560400135949350505050565b6020808252825182820181905260009190848201906040850190845b818110156129b757835173ffffffffffffffffffffffffffffffffffffffff1683529284019291840191600101612a3f565b7f4e487b7100000000000000000000000000000000000000000000000000000000600052604160045260246000fd5b600060208284031215612ab257600080fd5b813567ffffffffffffffff80821115612aca57600080fd5b818401915084601f830112612ade57600080fd5b813581811115612af057612af0612a71565b604051601f8201601f19908116603f01168101908382118183101715612b1857612b18612a71565b81604052828152876020848701011115612b3157600080fd5b826020860160208301376000928101602001929092525095945050505050565b7f4e487b7100000000000000000000000000000000000000000000000000000000600052603260045260246000fd5b7f4e487b7100000000000000000000000000000000000000000000000000000000600052601160045260246000fd5b61ffff8181168382160190808211156108f6576108f6612b80565b63ffffffff8181168382160190808211156108f6576108f6612b80565b60007fffffffffffffffffffffffffffffffffffffffffffffffffffffffffffffffff8203612c1857612c18612b80565b5060010190565b600061ffff808316818103612c3657612c36612b80565b6001019392505050565b8183823760009101908152919050565b600181811c90821680612c6457607f821691505b6020821081036116e6577f4e487b7100000000000000000000000000000000000000000000000000000000600052602260045260246000fd5b6000808354612cab81612c50565b60018281168015612cc35760018114612cf657612d25565b7fffffffffffffffffffffffffffffffffffffffffffffffffffffffffffffff0084168752821515830287019450612d25565b8760005260208060002060005b85811015612d1c5781548a820152908401908201612d03565b50505082870194505b50929695505050505050565b60008154612d3e81612c50565b808552602060018381168015612d5b5760018114612d9357612dc1565b7fffffffffffffffffffffffffffffffffffffffffffffffffffffffffffffff008516838901528284151560051b8901019550612dc1565b866000528260002060005b85811015612db95781548a8201860152908301908401612d9e565b890184019650505b505050505092915050565b848152608060208201526000612de56080830186612d31565b90508315156040830152612dfc6060830184612693565b95945050505050565b818352818160208501375060006020828401015260006020601f19601f840116840101905092915050565b602081526000612e44602083018486612e05565b949350505050565b600060208284031215612e5e57600080fd5b815180151581146127e157600080fd5b8181038181111561067c5761067c612b80565b600060208284031215612e9357600080fd5b5051919050565b8082018082111561067c5761067c612b80565b601f8211156104e957600081815260208120601f850160051c81016020861015612ed45750805b601f850160051c820191505b81811015612ef357828155600101612ee0565b505050505050565b815167ffffffffffffffff811115612f1557612f15612a71565b612f2981612f238454612c50565b84612ead565b602080601f831160018114612f7c5760008415612f465750858301515b7fffffffffffffffffffffffffffffffffffffffffffffffffffffffffffffffff600386901b1c1916600185901b178555612ef3565b600085815260208120601f198616915b82811015612fab57888601518255948401946001909101908401612f8c565b5085821015612fe757878501517fffffffffffffffffffffffffffffffffffffffffffffffffffffffffffffffff600388901b60f8161c191681555b5050505050600190811b01905550565b838152604060208201526000612dfc604083018486612e05565b600063ffffffff808316818103612c3657612c36612b80565b6020815260006127e16020830184612d3156",
    "linkReferences": {}
  },
  "methodIdentifiers": {
    "VOTE_TYPEHASH()": "86522973",
    "activeRoomIDByCommunityID(bytes)": "f6a54ac6",
    "castVotes((address,uint256,uint256,uint256,bytes32,bytes32)[])": "2111efc7",
    "directory()": "c41c2f24",
    "finalizeVotingRoom(uint256,uint32)": "a68f1449",
    "getActiveVotingRoom(bytes)": "54b6ec37",
    "getActiveVotingRooms()": "c1cde92c",
    "getVotingHistory(bytes)": "5dacd0a0",
    "initializeVotingRoom(uint8,bytes,uint256)": "da6d4a3d",
    "listRoomVoters(uint256)": "daf1612b",
    "owner()": "8da5cb5b",
    "setDirectory(address)": "6e91818a",
    "timeBetweenVoting()": "7ed1689c",
    "token()": "fc0c546a",
    "votingLength()": "0a64522f",
    "votingRooms(uint256)": "730d0108",
    "votingVerificationLength()": "ff9bd048"
  },
  "id": 2
}