{
  "abi": [
    {
      "inputs": [
        {
          "internalType": "contract IERC20",
          "name": "_address",
          "type": "address"
        },
        {
          "internalType": "uint256",
          "name": "_votingLength",
          "type": "uint256"
        },
        {
          "internalType": "uint256",
          "name": "_votingVerificationLength",
          "type": "uint256"
        },
        {
          "internalType": "uint256",
          "name": "_timeBetweenVoting",
          "type": "uint256"
        }
      ],
      "stateMutability": "nonpayable",
      "type": "constructor"
    },
    {
      "inputs": [
        {
          "internalType": "uint256",
          "name": "ID",
          "type": "uint256"
        }
      ],
      "name": "InvalidRoomID",
      "type": "error"
    },
    {
      "inputs": [
        {
          "internalType": "uint256",
          "name": "ID",
          "type": "uint256"
        }
      ],
      "name": "VotingRoomDoesntExist",
      "type": "error"
    },
    {
      "anonymous": false,
      "inputs": [
        {
          "indexed": false,
          "internalType": "uint256",
          "name": "roomId",
          "type": "uint256"
        },
        {
          "indexed": false,
          "internalType": "address",
          "name": "voter",
          "type": "address"
        }
      ],
      "name": "AlreadyVoted",
      "type": "event"
    },
    {
      "anonymous": false,
      "inputs": [
        {
          "indexed": false,
          "internalType": "uint256",
          "name": "roomId",
          "type": "uint256"
        },
        {
          "indexed": false,
          "internalType": "address",
          "name": "voter",
          "type": "address"
        }
      ],
      "name": "InvalidSignature",
      "type": "event"
    },
    {
      "anonymous": false,
      "inputs": [
        {
          "indexed": false,
          "internalType": "uint256",
          "name": "roomId",
          "type": "uint256"
        },
        {
          "indexed": false,
          "internalType": "address",
          "name": "voter",
          "type": "address"
        }
      ],
      "name": "NotEnoughToken",
      "type": "event"
    },
    {
      "anonymous": false,
      "inputs": [
        {
          "indexed": false,
          "internalType": "uint256",
          "name": "roomId",
          "type": "uint256"
        },
        {
          "indexed": false,
          "internalType": "address",
          "name": "voter",
          "type": "address"
        }
      ],
      "name": "VoteCast",
      "type": "event"
    },
    {
      "anonymous": false,
      "inputs": [
        {
          "indexed": false,
          "internalType": "uint256",
          "name": "roomId",
          "type": "uint256"
        },
        {
          "indexed": false,
          "internalType": "bytes",
          "name": "publicKey",
          "type": "bytes"
        },
        {
          "indexed": false,
          "internalType": "bool",
          "name": "passed",
          "type": "bool"
        },
        {
          "indexed": false,
          "internalType": "enum VotingContract.VoteType",
          "name": "voteType",
          "type": "uint8"
        }
      ],
      "name": "VotingRoomFinalized",
      "type": "event"
    },
    {
      "anonymous": false,
      "inputs": [
        {
          "indexed": false,
          "internalType": "uint256",
          "name": "roomId",
          "type": "uint256"
        },
        {
          "indexed": false,
          "internalType": "bytes",
          "name": "publicKey",
          "type": "bytes"
        }
      ],
      "name": "VotingRoomStarted",
      "type": "event"
    },
    {
      "anonymous": false,
      "inputs": [
        {
          "indexed": false,
          "internalType": "uint256",
          "name": "roomId",
          "type": "uint256"
        },
        {
          "indexed": false,
          "internalType": "bytes",
          "name": "publicKey",
          "type": "bytes"
        }
      ],
      "name": "VotingRoomVerificationStarted",
      "type": "event"
    },
    {
      "inputs": [],
      "name": "VOTE_TYPEHASH",
      "outputs": [
        {
          "internalType": "bytes32",
          "name": "",
          "type": "bytes32"
        }
      ],
      "stateMutability": "view",
      "type": "function"
    },
    {
      "inputs": [
        {
          "internalType": "bytes",
          "name": "",
          "type": "bytes"
        }
      ],
      "name": "activeRoomIDByCommunityID",
      "outputs": [
        {
          "internalType": "uint256",
          "name": "",
          "type": "uint256"
        }
      ],
      "stateMutability": "view",
      "type": "function"
    },
    {
      "inputs": [
        {
          "components": [
            {
              "internalType": "address",
              "name": "voter",
              "type": "address"
            },
            {
              "internalType": "uint256",
              "name": "roomIdAndType",
              "type": "uint256"
            },
            {
              "internalType": "uint256",
              "name": "sntAmount",
              "type": "uint256"
            },
            {
              "internalType": "uint256",
              "name": "timestamp",
              "type": "uint256"
            },
            {
              "internalType": "bytes32",
              "name": "r",
              "type": "bytes32"
            },
            {
              "internalType": "bytes32",
              "name": "vs",
              "type": "bytes32"
            }
          ],
          "internalType": "struct VotingContract.SignedVote[]",
          "name": "votes",
          "type": "tuple[]"
        }
      ],
      "name": "castVotes",
      "outputs": [],
      "stateMutability": "nonpayable",
      "type": "function"
    },
    {
      "inputs": [],
      "name": "directory",
      "outputs": [
        {
          "internalType": "contract Directory",
          "name": "",
          "type": "address"
        }
      ],
      "stateMutability": "view",
      "type": "function"
    },
    {
      "inputs": [
        {
          "internalType": "uint256",
          "name": "roomId",
          "type": "uint256"
        }
      ],
      "name": "finalizeVotingRoom",
      "outputs": [],
      "stateMutability": "nonpayable",
      "type": "function"
    },
    {
      "inputs": [
        {
          "internalType": "bytes",
          "name": "publicKey",
          "type": "bytes"
        }
      ],
      "name": "getActiveVotingRoom",
      "outputs": [
        {
          "components": [
            {
              "internalType": "uint256",
              "name": "startBlock",
              "type": "uint256"
            },
            {
              "internalType": "uint256",
              "name": "startAt",
              "type": "uint256"
            },
            {
              "internalType": "uint256",
              "name": "verificationStartAt",
              "type": "uint256"
            },
            {
              "internalType": "uint256",
              "name": "endAt",
              "type": "uint256"
            },
            {
              "internalType": "enum VotingContract.VoteType",
              "name": "voteType",
              "type": "uint8"
            },
            {
              "internalType": "bool",
              "name": "finalized",
              "type": "bool"
            },
            {
              "internalType": "bytes",
              "name": "community",
              "type": "bytes"
            },
            {
              "internalType": "uint256",
              "name": "totalVotesFor",
              "type": "uint256"
            },
            {
              "internalType": "uint256",
              "name": "totalVotesAgainst",
              "type": "uint256"
            },
            {
              "internalType": "uint256",
              "name": "roomNumber",
              "type": "uint256"
            }
          ],
          "internalType": "struct VotingContract.VotingRoom",
          "name": "",
          "type": "tuple"
        }
      ],
      "stateMutability": "view",
      "type": "function"
    },
    {
      "inputs": [],
      "name": "getActiveVotingRooms",
      "outputs": [
        {
          "internalType": "uint256[]",
          "name": "",
          "type": "uint256[]"
        }
      ],
      "stateMutability": "view",
      "type": "function"
    },
    {
      "inputs": [
        {
          "internalType": "bytes",
          "name": "publicKey",
          "type": "bytes"
        }
      ],
      "name": "getVotingHistory",
      "outputs": [
        {
          "components": [
            {
              "internalType": "uint256",
              "name": "startBlock",
              "type": "uint256"
            },
            {
              "internalType": "uint256",
              "name": "startAt",
              "type": "uint256"
            },
            {
              "internalType": "uint256",
              "name": "verificationStartAt",
              "type": "uint256"
            },
            {
              "internalType": "uint256",
              "name": "endAt",
              "type": "uint256"
            },
            {
              "internalType": "enum VotingContract.VoteType",
              "name": "voteType",
              "type": "uint8"
            },
            {
              "internalType": "bool",
              "name": "finalized",
              "type": "bool"
            },
            {
              "internalType": "bytes",
              "name": "community",
              "type": "bytes"
            },
            {
              "internalType": "uint256",
              "name": "totalVotesFor",
              "type": "uint256"
            },
            {
              "internalType": "uint256",
              "name": "totalVotesAgainst",
              "type": "uint256"
            },
            {
              "internalType": "uint256",
              "name": "roomNumber",
              "type": "uint256"
            }
          ],
          "internalType": "struct VotingContract.VotingRoom[]",
          "name": "returnVotingRooms",
          "type": "tuple[]"
        }
      ],
      "stateMutability": "view",
      "type": "function"
    },
    {
      "inputs": [
        {
          "internalType": "enum VotingContract.VoteType",
          "name": "voteType",
          "type": "uint8"
        },
        {
          "internalType": "bytes",
          "name": "publicKey",
          "type": "bytes"
        },
        {
          "internalType": "uint256",
          "name": "voteAmount",
          "type": "uint256"
        }
      ],
      "name": "initializeVotingRoom",
      "outputs": [],
      "stateMutability": "nonpayable",
      "type": "function"
    },
    {
      "inputs": [
        {
          "internalType": "uint256",
          "name": "roomID",
          "type": "uint256"
        }
      ],
      "name": "listRoomVoters",
      "outputs": [
        {
          "internalType": "address[]",
          "name": "roomVoters",
          "type": "address[]"
        }
      ],
      "stateMutability": "view",
      "type": "function"
    },
    {
      "inputs": [],
      "name": "owner",
      "outputs": [
        {
          "internalType": "address",
          "name": "",
          "type": "address"
        }
      ],
      "stateMutability": "view",
      "type": "function"
    },
    {
      "inputs": [
        {
          "internalType": "contract Directory",
          "name": "_address",
          "type": "address"
        }
      ],
      "name": "setDirectory",
      "outputs": [],
      "stateMutability": "nonpayable",
      "type": "function"
    },
    {
      "inputs": [],
      "name": "timeBetweenVoting",
      "outputs": [
        {
          "internalType": "uint256",
          "name": "",
          "type": "uint256"
        }
      ],
      "stateMutability": "view",
      "type": "function"
    },
    {
      "inputs": [],
      "name": "token",
      "outputs": [
        {
          "internalType": "contract IERC20",
          "name": "",
          "type": "address"
        }
      ],
      "stateMutability": "view",
      "type": "function"
    },
    {
      "inputs": [],
      "name": "votingLength",
      "outputs": [
        {
          "internalType": "uint256",
          "name": "",
          "type": "uint256"
        }
      ],
      "stateMutability": "view",
      "type": "function"
    },
    {
      "inputs": [
        {
          "internalType": "uint256",
          "name": "",
          "type": "uint256"
        }
      ],
      "name": "votingRooms",
      "outputs": [
        {
          "internalType": "uint256",
          "name": "startBlock",
          "type": "uint256"
        },
        {
          "internalType": "uint256",
          "name": "startAt",
          "type": "uint256"
        },
        {
          "internalType": "uint256",
          "name": "verificationStartAt",
          "type": "uint256"
        },
        {
          "internalType": "uint256",
          "name": "endAt",
          "type": "uint256"
        },
        {
          "internalType": "enum VotingContract.VoteType",
          "name": "voteType",
          "type": "uint8"
        },
        {
          "internalType": "bool",
          "name": "finalized",
          "type": "bool"
        },
        {
          "internalType": "bytes",
          "name": "community",
          "type": "bytes"
        },
        {
          "internalType": "uint256",
          "name": "totalVotesFor",
          "type": "uint256"
        },
        {
          "internalType": "uint256",
          "name": "totalVotesAgainst",
          "type": "uint256"
        },
        {
          "internalType": "uint256",
          "name": "roomNumber",
          "type": "uint256"
        }
      ],
      "stateMutability": "view",
      "type": "function"
    },
    {
      "inputs": [],
      "name": "votingVerificationLength",
      "outputs": [
        {
          "internalType": "uint256",
          "name": "",
          "type": "uint256"
        }
      ],
      "stateMutability": "view",
      "type": "function"
    }
  ],
  "bytecode": {
    "object": "0x60806040523480156200001157600080fd5b5060405162002d2538038062002d2583398101604081905262000034916200017a565b60008054336001600160a01b031991821617909155600280549091166001600160a01b0386161790556003839055600482905560058190556040805160c081018252600f608082019081526e159bdd1a5b99c810dbdb9d1c9858dd608a1b60a083015281528151808301835260018152603160f81b6020808301919091528201524691810191909152306060820152620000ce90620000dc565b600b5550620001c792505050565b60007f8b73c3c69bb8fe3d512ecc4cf759cc79239f7b179b0ffacaa9a75d522b39400f826000015180519060200120836020015180519060200120846040015185606001516040516020016200015d9594939291909485526020850193909352604084019190915260608301526001600160a01b0316608082015260a00190565b604051602081830303815290604052805190602001209050919050565b600080600080608085870312156200019157600080fd5b84516001600160a01b0381168114620001a957600080fd5b60208601516040870151606090970151919890975090945092505050565b612b4e80620001d76000396000f3fe608060405234801561001057600080fd5b506004361061011b5760003560e01c80638da5cb5b116100b2578063da6d4a3d11610081578063f6a54ac611610066578063f6a54ac6146102bd578063fc0c546a146102e8578063ff9bd0481461030857600080fd5b8063da6d4a3d1461028a578063daf1612b1461029d57600080fd5b80638da5cb5b146101fd578063c1cde92c14610242578063c41c2f2414610257578063d810fabe1461027757600080fd5b80636e91818a116100ee5780636e91818a14610191578063730d0108146101a45780637ed1689c146101cd57806386522973146101d657600080fd5b80630a64522f146101205780632111efc71461013c57806354b6ec37146101515780635dacd0a014610171575b600080fd5b61012960035481565b6040519081526020015b60405180910390f35b61014f61014a366004612169565b610311565b005b61016461015f366004612227565b610353565b60405161013391906123aa565b61018461017f366004612227565b6104b9565b60405161013391906123c4565b61014f61019f366004612466565b610704565b6101b76101b2366004612483565b6107b7565b6040516101339a9998979695949392919061249c565b61012960055481565b6101297fc8dfdde54cc98cd88a1a27e5243a7be688ac8c14d9008cb1cb7667059106044781565b60005461021d9073ffffffffffffffffffffffffffffffffffffffff1681565b60405173ffffffffffffffffffffffffffffffffffffffff9091168152602001610133565b61024a6108a8565b6040516101339190612502565b60015461021d9073ffffffffffffffffffffffffffffffffffffffff1681565b61014f610285366004612483565b6109a3565b61014f610298366004612546565b610b22565b6102b06102ab366004612483565b6112e9565b60405161013391906125a6565b6101296102cb366004612623565b805160208183018101805160078252928201919093012091525481565b60025461021d9073ffffffffffffffffffffffffffffffffffffffff1681565b61012960045481565b60005b8181101561034e5761033c838383818110610331576103316126d4565b905060c002016113f3565b8061034681612732565b915050610314565b505050565b61035b612103565b6103846007848460405161037092919061276a565b90815260200160405180910390205461195b565b6040805161014081018252825481526001808401546020830152600284015492820192909252600383015460608201526004830154909291608084019160ff16908111156103d4576103d4612269565b60018111156103e5576103e5612269565b81526004820154610100900460ff16151560208201526005820180546040909201916104109061277a565b80601f016020809104026020016040519081016040528092919081815260200182805461043c9061277a565b80156104895780601f1061045e57610100808354040283529160200191610489565b820191906000526020600020905b81548152906001019060200180831161046c57829003601f168201915b50505050508152602001600682015481526020016007820154815260200160088201548152505090505b92915050565b6060600883836040516104cd92919061276a565b9081526040519081900360200190205467ffffffffffffffff8111156104f5576104f56125f4565b60405190808252806020026020018201604052801561052e57816020015b61051b612103565b8152602001906001900390816105135790505b50905060005b6008848460405161054692919061276a565b908152604051908190036020019020548110156106fd576105a16008858560405161057292919061276a565b90815260200160405180910390208281548110610591576105916126d4565b906000526020600020015461195b565b6040805161014081018252825481526001808401546020830152600284015492820192909252600383015460608201526004830154909291608084019160ff16908111156105f1576105f1612269565b600181111561060257610602612269565b81526004820154610100900460ff161515602082015260058201805460409092019161062d9061277a565b80601f01602080910402602001604051908101604052809291908181526020018280546106599061277a565b80156106a65780601f1061067b576101008083540402835291602001916106a6565b820191906000526020600020905b81548152906001019060200180831161068957829003601f168201915b5050505050815260200160068201548152602001600782015481526020016008820154815250508282815181106106df576106df6126d4565b602002602001018190525080806106f590612732565b915050610534565b5092915050565b60005473ffffffffffffffffffffffffffffffffffffffff1633146107705760405162461bcd60e51b815260206004820152600960248201527f4e6f74206f776e6572000000000000000000000000000000000000000000000060448201526064015b60405180910390fd5b600180547fffffffffffffffffffffffff00000000000000000000000000000000000000001673ffffffffffffffffffffffffffffffffffffffff92909216919091179055565b600681815481106107c757600080fd5b600091825260209091206009909102018054600182015460028301546003840154600485015460058601805495975093959294919360ff8083169461010090930416926108139061277a565b80601f016020809104026020016040519081016040528092919081815260200182805461083f9061277a565b801561088c5780601f106108615761010080835404028352916020019161088c565b820191906000526020600020905b81548152906001019060200180831161086f57829003601f168201915b505050505090806006015490806007015490806008015490508a565b60065460609060009067ffffffffffffffff8111156108c9576108c96125f4565b6040519080825280602002602001820160405280156108f2578160200160208202803683370190505b5090506000805b60065481101561099b5760068181548110610916576109166126d4565b906000526020600020906009020160040160019054906101000a900460ff16610989576006818154811061094c5761094c6126d4565b906000526020600020906009020160080154838381518110610970576109706126d4565b60209081029190910101528161098581612732565b9250505b8061099381612732565b9150506108f9565b508152919050565b60006109ae8261195b565b6004810154909150610100900460ff1615610a0b5760405162461bcd60e51b815260206004820152601660248201527f766f746520616c72656164792066696e616c697a6564000000000000000000006044820152606401610767565b42816003015410610a5e5760405162461bcd60e51b815260206004820152601260248201527f766f7465207374696c6c206f6e676f696e6700000000000000000000000000006044820152606401610767565b6004810180547fffffffffffffffffffffffffffffffffffffffffffffffffffffffffffff00ff16610100179055426003820155604051600090600790610aa99060058501906127c7565b908152604051908190036020019020556000610ac482611a0e565b90508015610ad557610ad582611bfc565b60048201546040517f2ee1d50dd7d7f4ca1cd35dba9bde18b024b24f448a26c1c8846fe7b8bb450d1d91610b159186916005870191869160ff16906128f6565b60405180910390a1505050565b60078383604051610b3492919061276a565b908152602001604051809103902054600014610b925760405162461bcd60e51b815260206004820152601460248201527f766f746520616c7265616479206f6e676f696e670000000000000000000000006044820152606401610767565b6000846001811115610ba657610ba6612269565b03610c90576001546040517fb3dbb52a00000000000000000000000000000000000000000000000000000000815273ffffffffffffffffffffffffffffffffffffffff9091169063b3dbb52a90610c03908690869060040161295a565b602060405180830381865afa158015610c20573d6000803e3d6000fd5b505050506040513d601f19601f82011682018060405250810190610c449190612976565b610c905760405162461bcd60e51b815260206004820152601a60248201527f436f6d6d756e697479206e6f7420696e206469726563746f72790000000000006044820152606401610767565b6001846001811115610ca457610ca4612269565b03610d8f576001546040517fb3dbb52a00000000000000000000000000000000000000000000000000000000815273ffffffffffffffffffffffffffffffffffffffff9091169063b3dbb52a90610d01908690869060040161295a565b602060405180830381865afa158015610d1e573d6000803e3d6000fd5b505050506040513d601f19601f82011682018060405250810190610d429190612976565b15610d8f5760405162461bcd60e51b815260206004820152601e60248201527f436f6d6d756e69747920616c726561647920696e206469726563746f727900006044820152606401610767565b600060088484604051610da392919061276a565b9081526040519081900360200190205490508015610e6f57600060088585604051610dcf92919061276a565b908152604051908190036020019020610de9600184612998565b81548110610df957610df96126d4565b90600052602060002001549050600554610e128261195b565b60030154610e209042612998565b11610e6d5760405162461bcd60e51b815260206004820181905260248201527f436f6d6d756e6974792077617320696e206120766f746520726563656e746c796044820152606401610767565b505b6002546040517f70a08231000000000000000000000000000000000000000000000000000000008152336004820152839173ffffffffffffffffffffffffffffffffffffffff16906370a0823190602401602060405180830381865afa158015610edd573d6000803e3d6000fd5b505050506040513d601f19601f82011682018060405250810190610f0191906129ab565b1015610f4f5760405162461bcd60e51b815260206004820152601060248201527f6e6f7420656e6f75676820746f6b656e000000000000000000000000000000006044820152606401610767565b600654600090610f609060016129c4565b90508060078686604051610f7592919061276a565b90815260200160405180910390208190555060088585604051610f9992919061276a565b90815260408051602092819003830181208054600180820183556000928352858320909101869055858252600985528382206060840185523384528584018281529484018990528054808301825590835294909120825160029095020180547fffffffffffffffffffffffff0000000000000000000000000000000000000000811673ffffffffffffffffffffffffffffffffffffffff909616958617825593519294909384927fffffffffffffffffffffff000000000000000000000000000000000000000000909116909117907401000000000000000000000000000000000000000090849081111561109057611090612269565b02179055506040918201516001918201556000838152600a602090815283822033835281529083902080547fffffffffffffffffffffffffffffffffffffffffffffffffffffffffffffff00169092179091558151610140810183524381524291810182905260035460069391929183019161110c91906129c4565b81526020016004546003544261112291906129c4565b61112c91906129c4565b815260200188600181111561114357611143612269565b815260200160001515815260200187878080601f016020809104026020016040519081016040528093929190818152602001838380828437600092018290525093855250505060208083018290526040808401839052606093840187905285546001818101885596845292829020855160099094020192835590840151828601558301516002820155908201516003820155608082015160048201805493949293919290917fffffffffffffffffffffffffffffffffffffffffffffffffffffffffffffff001690838181111561121c5761121c612269565b021790555060a0820151600482018054911515610100027fffffffffffffffffffffffffffffffffffffffffffffffffffffffffffff00ff90921691909117905560c082015160058201906112719082612a25565b5060e082015181600601556101008201518160070155610120820151816008015550506112a56112a08261195b565b611a0e565b507f56385c0d76ffcefeb38cb9226cb877000037647d09069d15e94ac4b29ec435878186866040516112d993929190612b21565b60405180910390a1505050505050565b60008181526009602052604090205460609067ffffffffffffffff811115611313576113136125f4565b60405190808252806020026020018201604052801561133c578160200160208202803683370190505b50905060005b6000838152600960205260409020548110156113ed576000838152600960205260409020805482908110611378576113786126d4565b6000918252602090912060029091020154825173ffffffffffffffffffffffffffffffffffffffff909116908390839081106113b6576113b66126d4565b73ffffffffffffffffffffffffffffffffffffffff90921660209283029190910190910152806113e581612732565b915050611342565b50919050565b6113fc81611d06565b611465577f35f8d4297cedff70ac1e00ca57f340dc39eb0234be11eeeb57a0ff94015b734660208201803560011c906114359084612466565b6040805192835273ffffffffffffffffffffffffffffffffffffffff90911660208301520160405180910390a150565b602081013560011c60006114788261195b565b9050806003015442106114cd5760405162461bcd60e51b815260206004820152600b60248201527f766f746520636c6f7365640000000000000000000000000000000000000000006044820152606401610767565b6004810154610100900460ff16156115275760405162461bcd60e51b815260206004820152600e60248201527f726f6f6d2066696e616c697a65640000000000000000000000000000000000006044820152606401610767565b806002015483606001351061157e5760405162461bcd60e51b815260206004820152601660248201527f696e76616c696420766f74652074696d657374616d70000000000000000000006044820152606401610767565b8060010154836060013510156115d65760405162461bcd60e51b815260206004820152601660248201527f696e76616c696420766f74652074696d657374616d70000000000000000000006044820152606401610767565b6000828152600a60209081526040822091906115f490860186612466565b73ffffffffffffffffffffffffffffffffffffffff16815260208101919091526040016000205460ff161561167c577f04f9da634a3ce855cf7785808a673a41608288999dcd1d08e55bb33c69118f4a826116526020860186612466565b6040805192835273ffffffffffffffffffffffffffffffffffffffff909116602083015201610b15565b60025460408401359073ffffffffffffffffffffffffffffffffffffffff166370a082316116ad6020870187612466565b6040517fffffffff0000000000000000000000000000000000000000000000000000000060e084901b16815273ffffffffffffffffffffffffffffffffffffffff9091166004820152602401602060405180830381865afa158015611716573d6000803e3d6000fd5b505050506040513d601f19601f8201168201806040525081019061173a91906129ab565b101561176f577f52de8a8b06ee845dd9537ef3906e0a37d48c140e75f780715ee892f0ee08c052826116526020860186612466565b6000828152600a602090815260408220600192909161179090870187612466565b73ffffffffffffffffffffffffffffffffffffffff1681526020808201929092526040908101600090812080547fffffffffffffffffffffffffffffffffffffffffffffffffffffffffffffff00169415159490941790935584835260098252918290208251606081019093529190819061180d90870187612466565b73ffffffffffffffffffffffffffffffffffffffff168152602001856020013560011660011461183e576000611841565b60015b600181111561185257611852612269565b815260408601356020918201528254600181810185556000948552938290208351600290920201805473ffffffffffffffffffffffffffffffffffffffff9092167fffffffffffffffffffffffff000000000000000000000000000000000000000083168117825592840151939490939284927fffffffffffffffffffffff0000000000000000000000000000000000000000001617907401000000000000000000000000000000000000000090849081111561191157611911612269565b021790555060408201518160010155505061192b81611a0e565b507ff1003b73c437642c0460aee9cd9628b0b8c447b66e6c7c905531b9c644214a11826116526020860186612466565b600081600181101561199c576040517ff244389200000000000000000000000000000000000000000000000000000000815260048101829052602401610767565b6006548111156119db576040517fdd085d4b00000000000000000000000000000000000000000000000000000000815260048101829052602401610767565b60066119e8600185612998565b815481106119f8576119f86126d4565b9060005260206000209060090201915050919050565b60006006820181905560078201819055805b6008830154600090815260096020526040902054811015611beb5760088301546000908152600960205260408120805483908110611a6057611a606126d4565b600091825260209091206002918202016001810154915481546040517f70a0823100000000000000000000000000000000000000000000000000000000815273ffffffffffffffffffffffffffffffffffffffff918216600482015292945016906370a0823190602401602060405180830381865afa158015611ae7573d6000803e3d6000fd5b505050506040513d601f19601f82011682018060405250810190611b0b91906129ab565b10611b81576001815474010000000000000000000000000000000000000000900460ff166001811115611b4057611b40612269565b03611b635780600101548460060154611b5991906129c4565b6006850155611bd8565b80600101548460070154611b7791906129c4565b6007850155611bd8565b600884015481546040805192835273ffffffffffffffffffffffffffffffffffffffff90911660208301527f52de8a8b06ee845dd9537ef3906e0a37d48c140e75f780715ee892f0ee08c052910160405180910390a15b5080611be381612732565b915050611a20565b505060078101546006909101541190565b6001600482015460ff166001811115611c1757611c17612269565b03611caa576001546040517f7483793500000000000000000000000000000000000000000000000000000000815273ffffffffffffffffffffffffffffffffffffffff90911690637483793590611c75906005850190600401612b3b565b600060405180830381600087803b158015611c8f57600080fd5b505af1158015611ca3573d6000803e3d6000fd5b5050505050565b6001546040517f3c01b93c00000000000000000000000000000000000000000000000000000000815273ffffffffffffffffffffffffffffffffffffffff90911690633c01b93c90611c75906005850190600401612b3b565b50565b600080600b54611d1584611dbb565b6040517f190100000000000000000000000000000000000000000000000000000000000060208201526022810192909252604282015260620160408051601f1981840301815291905280516020918201209150611d7490840184612466565b73ffffffffffffffffffffffffffffffffffffffff16611d9d82608086013560a0870135611e55565b73ffffffffffffffffffffffffffffffffffffffff16149392505050565b60007fc8dfdde54cc98cd88a1a27e5243a7be688ac8c14d9008cb1cb7667059106044760208301803590604085013590611df59086612466565b60408051602081019590955284019290925260608381019190915273ffffffffffffffffffffffffffffffffffffffff909116608083015283013560a082015260c001604051602081830303815290604052805190602001209050919050565b6000806000611e65868686611e7b565b91509150611e7281611ecd565b50949350505050565b6000807f7fffffffffffffffffffffffffffffffffffffffffffffffffffffffffffffff831681611eb160ff86901c601b6129c4565b9050611ebf87828885612032565b935093505050935093915050565b6000816004811115611ee157611ee1612269565b03611ee95750565b6001816004811115611efd57611efd612269565b03611f4a5760405162461bcd60e51b815260206004820152601860248201527f45434453413a20696e76616c6964207369676e617475726500000000000000006044820152606401610767565b6002816004811115611f5e57611f5e612269565b03611fab5760405162461bcd60e51b815260206004820152601f60248201527f45434453413a20696e76616c6964207369676e6174757265206c656e677468006044820152606401610767565b6003816004811115611fbf57611fbf612269565b03611d035760405162461bcd60e51b815260206004820152602260248201527f45434453413a20696e76616c6964207369676e6174757265202773272076616c60448201527f75650000000000000000000000000000000000000000000000000000000000006064820152608401610767565b6000807f7fffffffffffffffffffffffffffffff5d576e7357a4501ddfe92f46681b20a083111561206957506000905060036120fa565b6040805160008082526020820180845289905260ff881692820192909252606081018690526080810185905260019060a0016020604051602081039080840390855afa1580156120bd573d6000803e3d6000fd5b5050604051601f19015191505073ffffffffffffffffffffffffffffffffffffffff81166120f3576000600192509250506120fa565b9150600090505b94509492505050565b604051806101400160405280600081526020016000815260200160008152602001600081526020016000600181111561213e5761213e612269565b8152602001600015158152602001606081526020016000815260200160008152602001600081525090565b6000806020838503121561217c57600080fd5b823567ffffffffffffffff8082111561219457600080fd5b818501915085601f8301126121a857600080fd5b8135818111156121b757600080fd5b86602060c0830285010111156121cc57600080fd5b60209290920196919550909350505050565b60008083601f8401126121f057600080fd5b50813567ffffffffffffffff81111561220857600080fd5b60208301915083602082850101111561222057600080fd5b9250929050565b6000806020838503121561223a57600080fd5b823567ffffffffffffffff81111561225157600080fd5b61225d858286016121de565b90969095509350505050565b7f4e487b7100000000000000000000000000000000000000000000000000000000600052602160045260246000fd5b600281106122cf577f4e487b7100000000000000000000000000000000000000000000000000000000600052602160045260246000fd5b9052565b6000815180845260005b818110156122f9576020818501810151868301820152016122dd565b506000602082860101526020601f19601f83011685010191505092915050565b60006101408251845260208301516020850152604083015160408501526060830151606085015260808301516123526080860182612298565b5060a083015161236660a086018215159052565b5060c08301518160c086015261237e828601826122d3565b60e085810151908701526101008086015190870152610120948501519490950193909352509192915050565b6020815260006123bd6020830184612319565b9392505050565b6000602080830181845280855180835260408601915060408160051b870101925083870160005b82811015612437577fffffffffffffffffffffffffffffffffffffffffffffffffffffffffffffffc0888603018452612425858351612319565b945092850192908501906001016123eb565b5092979650505050505050565b73ffffffffffffffffffffffffffffffffffffffff81168114611d0357600080fd5b60006020828403121561247857600080fd5b81356123bd81612444565b60006020828403121561249557600080fd5b5035919050565b60006101408c83528b60208401528a60408401528960608401526124c3608084018a612298565b87151560a08401528060c08401526124dd818401886122d3565b60e0840196909652505061010081019290925261012090910152979650505050505050565b6020808252825182820181905260009190848201906040850190845b8181101561253a5783518352928401929184019160010161251e565b50909695505050505050565b6000806000806060858703121561255c57600080fd5b84356002811061256b57600080fd5b9350602085013567ffffffffffffffff81111561258757600080fd5b612593878288016121de565b9598909750949560400135949350505050565b6020808252825182820181905260009190848201906040850190845b8181101561253a57835173ffffffffffffffffffffffffffffffffffffffff16835292840192918401916001016125c2565b7f4e487b7100000000000000000000000000000000000000000000000000000000600052604160045260246000fd5b60006020828403121561263557600080fd5b813567ffffffffffffffff8082111561264d57600080fd5b818401915084601f83011261266157600080fd5b813581811115612673576126736125f4565b604051601f8201601f19908116603f0116810190838211818310171561269b5761269b6125f4565b816040528281528760208487010111156126b457600080fd5b826020860160208301376000928101602001929092525095945050505050565b7f4e487b7100000000000000000000000000000000000000000000000000000000600052603260045260246000fd5b7f4e487b7100000000000000000000000000000000000000000000000000000000600052601160045260246000fd5b60007fffffffffffffffffffffffffffffffffffffffffffffffffffffffffffffffff820361276357612763612703565b5060010190565b8183823760009101908152919050565b600181811c9082168061278e57607f821691505b6020821081036113ed577f4e487b7100000000000000000000000000000000000000000000000000000000600052602260045260246000fd5b60008083546127d58161277a565b600182811680156127ed57600181146128205761284f565b7fffffffffffffffffffffffffffffffffffffffffffffffffffffffffffffff008416875282151583028701945061284f565b8760005260208060002060005b858110156128465781548a82015290840190820161282d565b50505082870194505b50929695505050505050565b600081546128688161277a565b80855260206001838116801561288557600181146128bd576128eb565b7fffffffffffffffffffffffffffffffffffffffffffffffffffffffffffffff008516838901528284151560051b89010195506128eb565b866000528260002060005b858110156128e35781548a82018601529083019084016128c8565b890184019650505b505050505092915050565b84815260806020820152600061290f608083018661285b565b905083151560408301526129266060830184612298565b95945050505050565b818352818160208501375060006020828401015260006020601f19601f840116840101905092915050565b60208152600061296e60208301848661292f565b949350505050565b60006020828403121561298857600080fd5b815180151581146123bd57600080fd5b818103818111156104b3576104b3612703565b6000602082840312156129bd57600080fd5b5051919050565b808201808211156104b3576104b3612703565b601f82111561034e57600081815260208120601f850160051c810160208610156129fe5750805b601f850160051c820191505b81811015612a1d57828155600101612a0a565b505050505050565b815167ffffffffffffffff811115612a3f57612a3f6125f4565b612a5381612a4d845461277a565b846129d7565b602080601f831160018114612aa65760008415612a705750858301515b7fffffffffffffffffffffffffffffffffffffffffffffffffffffffffffffffff600386901b1c1916600185901b178555612a1d565b600085815260208120601f198616915b82811015612ad557888601518255948401946001909101908401612ab6565b5085821015612b1157878501517fffffffffffffffffffffffffffffffffffffffffffffffffffffffffffffffff600388901b60f8161c191681555b5050505050600190811b01905550565b83815260406020820152600061292660408301848661292f565b6020815260006123bd602083018461285b56",
    "linkReferences": {}
  },
  "methodIdentifiers": {
    "VOTE_TYPEHASH()": "86522973",
    "activeRoomIDByCommunityID(bytes)": "f6a54ac6",
    "castVotes((address,uint256,uint256,uint256,bytes32,bytes32)[])": "2111efc7",
    "directory()": "c41c2f24",
    "finalizeVotingRoom(uint256)": "d810fabe",
    "getActiveVotingRoom(bytes)": "54b6ec37",
    "getActiveVotingRooms()": "c1cde92c",
    "getVotingHistory(bytes)": "5dacd0a0",
    "initializeVotingRoom(uint8,bytes,uint256)": "da6d4a3d",
    "listRoomVoters(uint256)": "daf1612b",
    "owner()": "8da5cb5b",
    "setDirectory(address)": "6e91818a",
    "timeBetweenVoting()": "7ed1689c",
    "token()": "fc0c546a",
    "votingLength()": "0a64522f",
    "votingRooms(uint256)": "730d0108",
    "votingVerificationLength()": "ff9bd048"
  },
  "id": 2
}