{
  "abi": [
    {
      "inputs": [
        {
          "internalType": "contract IERC20",
          "name": "_address",
          "type": "address"
        },
        {
          "internalType": "uint256",
          "name": "_votingLength",
          "type": "uint256"
        },
        {
          "internalType": "uint256",
          "name": "_votingVerificationLength",
          "type": "uint256"
        },
        {
          "internalType": "uint256",
          "name": "_cooldownPeriod",
          "type": "uint256"
        },
        {
          "internalType": "uint256",
          "name": "_featuredPerVotingCount",
          "type": "uint256"
        }
      ],
      "stateMutability": "nonpayable",
      "type": "constructor"
    },
    {
      "anonymous": false,
      "inputs": [
        {
          "indexed": false,
          "internalType": "bytes",
          "name": "community",
          "type": "bytes"
        },
        {
          "indexed": false,
          "internalType": "address",
          "name": "voter",
          "type": "address"
        }
      ],
      "name": "AlreadyVoted",
      "type": "event"
    },
    {
      "anonymous": false,
      "inputs": [
        {
          "indexed": false,
          "internalType": "bytes",
          "name": "community",
          "type": "bytes"
        },
        {
          "indexed": false,
          "internalType": "address",
          "name": "voter",
          "type": "address"
        }
      ],
      "name": "CommunityFeaturedRecently",
      "type": "event"
    },
    {
      "anonymous": false,
      "inputs": [
        {
          "indexed": false,
          "internalType": "bytes",
          "name": "community",
          "type": "bytes"
        },
        {
          "indexed": false,
          "internalType": "address",
          "name": "voter",
          "type": "address"
        }
      ],
      "name": "CommunityNotInDirectory",
      "type": "event"
    },
    {
      "anonymous": false,
      "inputs": [
        {
          "indexed": false,
          "internalType": "bytes",
          "name": "community",
          "type": "bytes"
        },
        {
          "indexed": false,
          "internalType": "address",
          "name": "voter",
          "type": "address"
        }
      ],
      "name": "InvalidSignature",
      "type": "event"
    },
    {
      "anonymous": false,
      "inputs": [
        {
          "indexed": false,
          "internalType": "bytes",
          "name": "community",
          "type": "bytes"
        },
        {
          "indexed": false,
          "internalType": "address",
          "name": "voter",
          "type": "address"
        }
      ],
      "name": "NotEnoughToken",
      "type": "event"
    },
    {
      "anonymous": false,
      "inputs": [
        {
          "indexed": false,
          "internalType": "bytes",
          "name": "community",
          "type": "bytes"
        },
        {
          "indexed": false,
          "internalType": "address",
          "name": "voter",
          "type": "address"
        }
      ],
      "name": "VoteCast",
      "type": "event"
    },
    {
      "anonymous": false,
      "inputs": [],
      "name": "VotingFinalized",
      "type": "event"
    },
    {
      "anonymous": false,
      "inputs": [],
      "name": "VotingStarted",
      "type": "event"
    },
    {
      "inputs": [],
      "name": "VOTE_TYPEHASH",
      "outputs": [
        {
          "internalType": "bytes32",
          "name": "",
          "type": "bytes32"
        }
      ],
      "stateMutability": "view",
      "type": "function"
    },
    {
      "inputs": [
        {
          "components": [
            {
              "internalType": "address",
              "name": "voter",
              "type": "address"
            },
            {
              "internalType": "bytes",
              "name": "community",
              "type": "bytes"
            },
            {
              "internalType": "uint256",
              "name": "sntAmount",
              "type": "uint256"
            },
            {
              "internalType": "uint256",
              "name": "timestamp",
              "type": "uint256"
            },
            {
              "internalType": "bytes32",
              "name": "r",
              "type": "bytes32"
            },
            {
              "internalType": "bytes32",
              "name": "vs",
              "type": "bytes32"
            }
          ],
          "internalType": "struct FeaturedVotingContract.SignedVote[]",
          "name": "votes",
          "type": "tuple[]"
        }
      ],
      "name": "castVotes",
      "outputs": [],
      "stateMutability": "nonpayable",
      "type": "function"
    },
    {
      "inputs": [],
      "name": "cooldownPeriod",
      "outputs": [
        {
          "internalType": "uint256",
          "name": "",
          "type": "uint256"
        }
      ],
      "stateMutability": "view",
      "type": "function"
    },
    {
      "inputs": [],
      "name": "directory",
      "outputs": [
        {
          "internalType": "contract Directory",
          "name": "",
          "type": "address"
        }
      ],
      "stateMutability": "view",
      "type": "function"
    },
    {
      "inputs": [],
      "name": "featuredPerVotingCount",
      "outputs": [
        {
          "internalType": "uint256",
          "name": "",
          "type": "uint256"
        }
      ],
      "stateMutability": "view",
      "type": "function"
    },
    {
      "inputs": [],
      "name": "finalizeVoting",
      "outputs": [],
      "stateMutability": "nonpayable",
      "type": "function"
    },
    {
      "inputs": [
        {
          "internalType": "uint256",
          "name": "votingID",
          "type": "uint256"
        }
      ],
      "name": "getVotesByVotingId",
      "outputs": [
        {
          "components": [
            {
              "internalType": "address",
              "name": "voter",
              "type": "address"
            },
            {
              "internalType": "bytes",
              "name": "community",
              "type": "bytes"
            },
            {
              "internalType": "uint256",
              "name": "sntAmount",
              "type": "uint256"
            }
          ],
          "internalType": "struct FeaturedVotingContract.Vote[]",
          "name": "",
          "type": "tuple[]"
        }
      ],
      "stateMutability": "view",
      "type": "function"
    },
    {
      "inputs": [],
      "name": "getVotings",
      "outputs": [
        {
          "components": [
            {
              "internalType": "uint256",
              "name": "id",
              "type": "uint256"
            },
            {
              "internalType": "uint256",
              "name": "startBlock",
              "type": "uint256"
            },
            {
              "internalType": "uint256",
              "name": "startAt",
              "type": "uint256"
            },
            {
              "internalType": "uint256",
              "name": "verificationStartAt",
              "type": "uint256"
            },
            {
              "internalType": "uint256",
              "name": "endAt",
              "type": "uint256"
            },
            {
              "internalType": "bool",
              "name": "finalized",
              "type": "bool"
            }
          ],
          "internalType": "struct FeaturedVotingContract.Voting[]",
          "name": "",
          "type": "tuple[]"
        }
      ],
      "stateMutability": "view",
      "type": "function"
    },
    {
      "inputs": [
        {
          "internalType": "bytes",
          "name": "publicKey",
          "type": "bytes"
        },
        {
          "internalType": "uint256",
          "name": "voteAmount",
          "type": "uint256"
        }
      ],
      "name": "initializeVoting",
      "outputs": [],
      "stateMutability": "nonpayable",
      "type": "function"
    },
    {
      "inputs": [
        {
          "internalType": "bytes",
          "name": "publicKey",
          "type": "bytes"
        }
      ],
      "name": "isInCooldownPeriod",
      "outputs": [
        {
          "internalType": "bool",
          "name": "",
          "type": "bool"
        }
      ],
      "stateMutability": "view",
      "type": "function"
    },
    {
      "inputs": [],
      "name": "owner",
      "outputs": [
        {
          "internalType": "address",
          "name": "",
          "type": "address"
        }
      ],
      "stateMutability": "view",
      "type": "function"
    },
    {
      "inputs": [
        {
          "internalType": "contract Directory",
          "name": "_address",
          "type": "address"
        }
      ],
      "name": "setDirectory",
      "outputs": [],
      "stateMutability": "nonpayable",
      "type": "function"
    },
    {
      "inputs": [],
      "name": "token",
      "outputs": [
        {
          "internalType": "contract IERC20",
          "name": "",
          "type": "address"
        }
      ],
      "stateMutability": "view",
      "type": "function"
    },
    {
      "inputs": [],
      "name": "votingLength",
      "outputs": [
        {
          "internalType": "uint256",
          "name": "",
          "type": "uint256"
        }
      ],
      "stateMutability": "view",
      "type": "function"
    },
    {
      "inputs": [],
      "name": "votingVerificationLength",
      "outputs": [
        {
          "internalType": "uint256",
          "name": "",
          "type": "uint256"
        }
      ],
      "stateMutability": "view",
      "type": "function"
    },
    {
      "inputs": [
        {
          "internalType": "uint256",
          "name": "",
          "type": "uint256"
        }
      ],
      "name": "votings",
      "outputs": [
        {
          "internalType": "uint256",
          "name": "id",
          "type": "uint256"
        },
        {
          "internalType": "uint256",
          "name": "startBlock",
          "type": "uint256"
        },
        {
          "internalType": "uint256",
          "name": "startAt",
          "type": "uint256"
        },
        {
          "internalType": "uint256",
          "name": "verificationStartAt",
          "type": "uint256"
        },
        {
          "internalType": "uint256",
          "name": "endAt",
          "type": "uint256"
        },
        {
          "internalType": "bool",
          "name": "finalized",
          "type": "bool"
        }
      ],
      "stateMutability": "view",
      "type": "function"
    }
  ],
  "bytecode": {
    "object": "0x60806040523480156200001157600080fd5b5060405162002c6638038062002c6683398101604081905262000034916200018e565b60008054336001600160a01b031991821617909155600280549091166001600160a01b03871617905560038490556004839055600682905560058190556040805160c0810182526018608082019081527f466561747572656420566f74696e6720436f6e7472616374000000000000000060a083015281528151808301835260018152603160f81b6020808301919091528201524691810191909152306060820152620000e190620000f0565b600b5550620001e59350505050565b60007f8b73c3c69bb8fe3d512ecc4cf759cc79239f7b179b0ffacaa9a75d522b39400f82600001518051906020012083602001518051906020012084604001518560600151604051602001620001719594939291909485526020850193909352604084019190915260608301526001600160a01b0316608082015260a00190565b604051602081830303815290604052805190602001209050919050565b600080600080600060a08688031215620001a757600080fd5b85516001600160a01b0381168114620001bf57600080fd5b602087015160408801516060890151608090990151929a91995097965090945092505050565b612a7180620001f56000396000f3fe608060405234801561001057600080fd5b50600436106101005760003560e01c80636e91818a11610097578063a598d03c11610066578063a598d03c1461023a578063c41c2f241461027c578063fc0c546a1461029c578063ff9bd048146102bc57600080fd5b80636e91818a1461019b57806380e0111e146101ae57806386522973146101ce5780638da5cb5b146101f557600080fd5b80632d0e9c28116100d35780632d0e9c2814610149578063349071c21461015c5780636c265f9d1461016f5780636e5713321461019257600080fd5b806304646a491461010557806305c1112d146101215780630a64522f146101365780632260b98b1461013f575b600080fd5b61010e60065481565b6040519081526020015b60405180910390f35b6101296102c5565b6040516101189190612193565b61010e60035481565b61014761035f565b005b610147610157366004612256565b6104e3565b61014761016a3660046122a2565b610a0a565b61018261017d366004612317565b610ae9565b6040519015158152602001610118565b61010e60055481565b6101476101a936600461237b565b610cfd565b6101c16101bc366004612398565b610dab565b60405161011891906123b1565b61010e7fc61be5868a517c2688d120fb5bc4073a1804e9a9b307218e2701647bf86f4c7281565b6000546102159073ffffffffffffffffffffffffffffffffffffffff1681565b60405173ffffffffffffffffffffffffffffffffffffffff9091168152602001610118565b61024d610248366004612398565b610edc565b6040805196875260208701959095529385019290925260608401526080830152151560a082015260c001610118565b6001546102159073ffffffffffffffffffffffffffffffffffffffff1681565b6002546102159073ffffffffffffffffffffffffffffffffffffffff1681565b61010e60045481565b60606007805480602002602001604051908101604052809291908181526020016000905b828210156103565760008481526020908190206040805160c08101825260068602909201805483526001808201548486015260028201549284019290925260038101546060840152600481015460808401526005015460ff16151560a083015290835290920191016102e9565b50505050905090565b600754158015906103a457506007805461037b906001906124e7565b8154811061038b5761038b6124fa565b600091825260209091206005600690920201015460ff16155b6103f55760405162461bcd60e51b815260206004820152600f60248201527f6e6f206f6e676f696e6720766f7465000000000000000000000000000000000060448201526064015b60405180910390fd5b6007805460009190610409906001906124e7565b81548110610419576104196124fa565b906000526020600020906006020190504281600401541061047c5760405162461bcd60e51b815260206004820152601260248201527f766f7465207374696c6c206f6e676f696e67000000000000000000000000000060448201526064016103ec565b6005810180547fffffffffffffffffffffffffffffffffffffffffffffffffffffffffffffff001660011790554260048201556104b7610f25565b6040517f0b4fdfa0ecb155e553b7e0a3dabc266f9e01e6f79c154cce531d322df1a1d40590600090a150565b60075415806105255750600780546104fd906001906124e7565b8154811061050d5761050d6124fa565b600091825260209091206005600690920201015460ff165b6105715760405162461bcd60e51b815260206004820152601460248201527f766f746520616c7265616479206f6e676f696e6700000000000000000000000060448201526064016103ec565b6001546040517fb3dbb52a00000000000000000000000000000000000000000000000000000000815273ffffffffffffffffffffffffffffffffffffffff9091169063b3dbb52a906105c99086908690600401612572565b602060405180830381865afa1580156105e6573d6000803e3d6000fd5b505050506040513d601f19601f8201168201806040525081019061060a919061258e565b6106565760405162461bcd60e51b815260206004820152601a60248201527f636f6d6d756e697479206e6f7420696e206469726563746f727900000000000060448201526064016103ec565b6106608383610ae9565b156106d25760405162461bcd60e51b8152602060048201526024808201527f636f6d6d756e69747920686173206265656e206665617475726564207265636560448201527f6e746c790000000000000000000000000000000000000000000000000000000060648201526084016103ec565b6002546040517f70a08231000000000000000000000000000000000000000000000000000000008152336004820152829173ffffffffffffffffffffffffffffffffffffffff16906370a0823190602401602060405180830381865afa158015610740573d6000803e3d6000fd5b505050506040513d601f19601f8201168201806040525081019061076491906125b0565b10156107b25760405162461bcd60e51b815260206004820152601060248201527f6e6f7420656e6f75676820746f6b656e0000000000000000000000000000000060448201526064016103ec565b6007546000906107c39060016125c9565b90506001600a600083815260200190815260200160002085856040516107ea9291906125dc565b908152604080516020928190038301812033600081815291855283822080547fffffffffffffffffffffffffffffffffffffffffffffffffffffffffffffff001696151596909617909555858152600884528290206060820183529381528151601f880184900484028101840190925286825291808301919088908890819084018382808284376000920182905250938552505050602091820186905283546001808201865594825290829020835160039092020180547fffffffffffffffffffffffff00000000000000000000000000000000000000001673ffffffffffffffffffffffffffffffffffffffff9092169190911781559082015191929091908201906108f790826126bc565b5060408201518160020155505060076040518060c00160405280838152602001438152602001428152602001610938600354426115b690919063ffffffff16565b815260200161095760045460035461095091906125c9565b42906115b6565b815260006020918201819052835460018082018655948252828220845160069092020190815591830151938201939093556040808301516002830155606083015160038301556080830151600483015560a090920151600590910180547fffffffffffffffffffffffffffffffffffffffffffffffffffffffffffffff0016911515919091179055517f877e2548498f42b7975a186b94ef1d32c86d420b7b806dd2be2bea293b8959049190a150505050565b60075415801590610a4f575060078054610a26906001906124e7565b81548110610a3657610a366124fa565b600091825260209091206005600690920201015460ff16155b610a9b5760405162461bcd60e51b815260206004820152600f60248201527f6e6f206f6e676f696e6720766f7465000000000000000000000000000000000060448201526064016103ec565b60005b81811015610ae457610ad2838383818110610abb57610abb6124fa565b9050602002810190610acd91906127d6565b6115c9565b80610adc81612814565b915050610a9e565b505050565b6007546000908103610afd57506000610cf7565b6007805460009190610b11906001906124e7565b81548110610b2157610b216124fa565b600091825260209091206005600690920201015460ff16610b4f57600654610b4a9060016125c9565b610b53565b6006545b600754909150610b639082611c65565b905060005b81811015610cf0576000600960006007600185600780549050610b8b91906124e7565b610b9591906124e7565b81548110610ba557610ba56124fa565b9060005260206000209060060201600001548152602001908152602001600020905060005b8154811015610cdb57610cb7828281548110610be857610be86124fa565b906000526020600020018054610bfd9061261b565b80601f0160208091040260200160405190810160405280929190818152602001828054610c299061261b565b8015610c765780601f10610c4b57610100808354040283529160200191610c76565b820191906000526020600020905b815481529060010190602001808311610c5957829003601f168201915b505050505088888080601f016020809104026020016040519081016040528093929190818152602001838380828437600092019190915250611c7b92505050565b15610cc9576001945050505050610cf7565b80610cd381612814565b915050610bca565b50508080610ce890612814565b915050610b68565b5060009150505b92915050565b60005473ffffffffffffffffffffffffffffffffffffffff163314610d645760405162461bcd60e51b815260206004820152600960248201527f4e6f74206f776e6572000000000000000000000000000000000000000000000060448201526064016103ec565b600180547fffffffffffffffffffffffff00000000000000000000000000000000000000001673ffffffffffffffffffffffffffffffffffffffff92909216919091179055565b606060086000838152602001908152602001600020805480602002602001604051908101604052809291908181526020016000905b82821015610ed1576000848152602090819020604080516060810190915260038502909101805473ffffffffffffffffffffffffffffffffffffffff1682526001810180549293919291840191610e369061261b565b80601f0160208091040260200160405190810160405280929190818152602001828054610e629061261b565b8015610eaf5780601f10610e8457610100808354040283529160200191610eaf565b820191906000526020600020905b815481529060010190602001808311610e9257829003601f168201915b5050505050815260200160028201548152505081526020019060010190610de0565b505050509050919050565b60078181548110610eec57600080fd5b60009182526020909120600690910201805460018201546002830154600384015460048501546005909501549395509193909260ff1686565b6007805460009190610f39906001906124e7565b81548110610f4957610f496124fa565b600091825260208083206006909202909101805483526008909152604082208054919350919067ffffffffffffffff811115610f8757610f876125ec565b604051908082528060200260200182016040528015610fcd57816020015b604080518082019091526060815260006020820152815260200190600190039081610fa55790505b5090506000805b835481101561140557838181548110610fef57610fef6124fa565b906000526020600020906003020160020154600260009054906101000a900473ffffffffffffffffffffffffffffffffffffffff1673ffffffffffffffffffffffffffffffffffffffff166370a08231868481548110611051576110516124fa565b600091825260209091206003909102015460405160e083901b7fffffffff0000000000000000000000000000000000000000000000000000000016815273ffffffffffffffffffffffffffffffffffffffff9091166004820152602401602060405180830381865afa1580156110cb573d6000803e3d6000fd5b505050506040513d601f19601f820116820180604052508101906110ef91906125b0565b101561118d577f0218de22dd683f05a68dde5feefca4c25fbc0f66a72b8130b56d1bf658743c79848281548110611128576111286124fa565b906000526020600020906003020160010185838154811061114b5761114b6124fa565b6000918252602090912060039091020154604051611180929173ffffffffffffffffffffffffffffffffffffffff16906128e7565b60405180910390a16113f3565b6000805b838110156112dc5761126b8684815481106111ae576111ae6124fa565b906000526020600020906003020160010180546111ca9061261b565b80601f01602080910402602001604051908101604052809291908181526020018280546111f69061261b565b80156112435780601f1061121857610100808354040283529160200191611243565b820191906000526020600020905b81548152906001019060200180831161122657829003601f168201915b505050505086838151811061125a5761125a6124fa565b602002602001015160000151611c7b565b156112ca57858381548110611282576112826124fa565b9060005260206000209060030201600201548582815181106112a6576112a66124fa565b60200260200101516020018181516112be91906125c9565b905250600191506112dc565b806112d481612814565b915050611191565b50806113f15760405180604001604052808684815481106112ff576112ff6124fa565b9060005260206000209060030201600101805461131b9061261b565b80601f01602080910402602001604051908101604052809291908181526020018280546113479061261b565b80156113945780601f1061136957610100808354040283529160200191611394565b820191906000526020600020905b81548152906001019060200180831161137757829003601f168201915b505050505081526020018684815481106113b0576113b06124fa565b9060005260206000209060030201600201548152508484815181106113d7576113d76124fa565b602002602001018190525082806113ed90612814565b9350505b505b806113fd81612814565b915050610fd4565b5083546000908152600960205260408120905b60055481101561152657600060015b8481101561148757858281518110611441576114416124fa565b60200260200101516020015186828151811061145f5761145f6124fa565b6020026020010151602001511115611475578091505b8061147f81612814565b915050611427565b5084818151811061149a5761149a6124fa565b6020026020010151602001516000036114b35750611526565b828582815181106114c6576114c66124fa565b60209081029190910181015151825460018101845560009384529190922001906114f090826126bc565b506000858281518110611505576115056124fa565b6020908102919091018101510152508061151e81612814565b915050611418565b506001546040517fd62879f100000000000000000000000000000000000000000000000000000000815273ffffffffffffffffffffffffffffffffffffffff9091169063d62879f19061157d90849060040161291f565b600060405180830381600087803b15801561159757600080fd5b505af11580156115ab573d6000803e3d6000fd5b505050505050505050565b60006115c282846125c9565b9392505050565b6115d281611d3d565b61162b577f16001116460b717e935c4a79fd9e1d99bc9559981bbdfe6da8a8f3cd240e816161160460208301836129a3565b611611602085018561237b565b60405161162093929190612a08565b60405180910390a150565b60015473ffffffffffffffffffffffffffffffffffffffff1663b3dbb52a61165660208401846129a3565b6040518363ffffffff1660e01b8152600401611673929190612572565b602060405180830381865afa158015611690573d6000803e3d6000fd5b505050506040513d601f19601f820116820180604052508101906116b4919061258e565b6116e6577f5ead04d5bcfd9db10275637895e9c86a4c18418cfd7cb5375abc5ff7b03de11261160460208301836129a3565b6116f661017d60208301836129a3565b15611729577f6ec68e8d215eacdcace684f5941d240b9b8ae3452184fab8c3a06eaad120edc961160460208301836129a3565b600780546000919061173d906001906124e7565b8154811061174d5761174d6124fa565b90600052602060002090600602019050806004015442106117b05760405162461bcd60e51b815260206004820152600b60248201527f766f746520636c6f73656400000000000000000000000000000000000000000060448201526064016103ec565b600581015460ff16156118055760405162461bcd60e51b815260206004820152600e60248201527f726f6f6d2066696e616c697a656400000000000000000000000000000000000060448201526064016103ec565b806003015482606001351061185c5760405162461bcd60e51b815260206004820152601660248201527f696e76616c696420766f74652074696d657374616d700000000000000000000060448201526064016103ec565b8060020154826060013510156118b45760405162461bcd60e51b815260206004820152601660248201527f696e76616c696420766f74652074696d657374616d700000000000000000000060448201526064016103ec565b80546000908152600a60209081526040909120906118d4908401846129a3565b6040516118e29291906125dc565b90815260200160405180910390206000836000016020810190611905919061237b565b73ffffffffffffffffffffffffffffffffffffffff16815260208101919091526040016000205460ff161561198a577f85c200189b053fd138c5722db986f1b268ad5058ea51960ec3662e5c124140fa61196260208401846129a3565b61196f602086018661237b565b60405161197e93929190612a08565b60405180910390a15050565b60025460408301359073ffffffffffffffffffffffffffffffffffffffff166370a082316119bb602086018661237b565b6040517fffffffff0000000000000000000000000000000000000000000000000000000060e084901b16815273ffffffffffffffffffffffffffffffffffffffff9091166004820152602401602060405180830381865afa158015611a24573d6000803e3d6000fd5b505050506040513d601f19601f82011682018060405250810190611a4891906125b0565b1015611a7c577f0218de22dd683f05a68dde5feefca4c25fbc0f66a72b8130b56d1bf658743c7961196260208401846129a3565b80546000908152600a60209081526040909120600191611a9e908501856129a3565b604051611aac9291906125dc565b90815260200160405180910390206000846000016020810190611acf919061237b565b73ffffffffffffffffffffffffffffffffffffffff1681526020808201929092526040908101600090812080547fffffffffffffffffffffffffffffffffffffffffffffffffffffffffffffff00169415159490941790935583548352600882529182902082516060810190935291908190611b4d9086018661237b565b73ffffffffffffffffffffffffffffffffffffffff168152602001848060200190611b7891906129a3565b8080601f0160208091040260200160405190810160405280939291908181526020018383808284376000920182905250938552505050604086013560209283015283546001808201865594825290829020835160039092020180547fffffffffffffffffffffffff00000000000000000000000000000000000000001673ffffffffffffffffffffffffffffffffffffffff909216919091178155908201519192909190820190611c2990826126bc565b50604091909101516002909101557f5fe392585cc663ee634772bae3b95aa7aa9a6d647c41ade0b9c1f8c48e74077c61196260208401846129a3565b6000818310611c7457816115c2565b5090919050565b60008151835114611c8e57506000610cf7565b60005b8351811015611d3357828181518110611cac57611cac6124fa565b602001015160f81c60f81b7effffffffffffffffffffffffffffffffffffffffffffffffffffffffffffff1916848281518110611ceb57611ceb6124fa565b01602001517fff000000000000000000000000000000000000000000000000000000000000001614611d21576000915050610cf7565b80611d2b81612814565b915050611c91565b5060019392505050565b600080600b54611d4c84611e10565b6040517f1901000000000000000000000000000000000000000000000000000000000000602082015260228101929092526042820152606201604080517fffffffffffffffffffffffffffffffffffffffffffffffffffffffffffffffe081840301815291905280516020918201209150611dc99084018461237b565b73ffffffffffffffffffffffffffffffffffffffff16611df282608086013560a0870135611ec4565b73ffffffffffffffffffffffffffffffffffffffff16149392505050565b60007fc61be5868a517c2688d120fb5bc4073a1804e9a9b307218e2701647bf86f4c72611e40602084018461237b565b611e4d60208501856129a3565b604051611e5b9291906125dc565b60408051918290038220602083019490945273ffffffffffffffffffffffffffffffffffffffff909216818301526060808201939093529084013560808201529083013560a082015260c001604051602081830303815290604052805190602001209050919050565b6000806000611ed4868686611eea565b91509150611ee181611f3c565b50949350505050565b6000807f7fffffffffffffffffffffffffffffffffffffffffffffffffffffffffffffff831681611f2060ff86901c601b6125c9565b9050611f2e878288856120a4565b935093505050935093915050565b6000816004811115611f5057611f50612a42565b03611f585750565b6001816004811115611f6c57611f6c612a42565b03611fb95760405162461bcd60e51b815260206004820152601860248201527f45434453413a20696e76616c6964207369676e6174757265000000000000000060448201526064016103ec565b6002816004811115611fcd57611fcd612a42565b0361201a5760405162461bcd60e51b815260206004820152601f60248201527f45434453413a20696e76616c6964207369676e6174757265206c656e6774680060448201526064016103ec565b600381600481111561202e5761202e612a42565b036120a15760405162461bcd60e51b815260206004820152602260248201527f45434453413a20696e76616c6964207369676e6174757265202773272076616c60448201527f756500000000000000000000000000000000000000000000000000000000000060648201526084016103ec565b50565b6000807f7fffffffffffffffffffffffffffffff5d576e7357a4501ddfe92f46681b20a08311156120db575060009050600361218a565b6040805160008082526020820180845289905260ff881692820192909252606081018690526080810185905260019060a0016020604051602081039080840390855afa15801561212f573d6000803e3d6000fd5b50506040517fffffffffffffffffffffffffffffffffffffffffffffffffffffffffffffffe0015191505073ffffffffffffffffffffffffffffffffffffffff81166121835760006001925092505061218a565b9150600090505b94509492505050565b602080825282518282018190526000919060409081850190868401855b828110156122005781518051855286810151878601528581015186860152606080820151908601526080808201519086015260a09081015115159085015260c090930192908501906001016121b0565b5091979650505050505050565b60008083601f84011261221f57600080fd5b50813567ffffffffffffffff81111561223757600080fd5b60208301915083602082850101111561224f57600080fd5b9250929050565b60008060006040848603121561226b57600080fd5b833567ffffffffffffffff81111561228257600080fd5b61228e8682870161220d565b909790965060209590950135949350505050565b600080602083850312156122b557600080fd5b823567ffffffffffffffff808211156122cd57600080fd5b818501915085601f8301126122e157600080fd5b8135818111156122f057600080fd5b8660208260051b850101111561230557600080fd5b60209290920196919550909350505050565b6000806020838503121561232a57600080fd5b823567ffffffffffffffff81111561234157600080fd5b61234d8582860161220d565b90969095509350505050565b73ffffffffffffffffffffffffffffffffffffffff811681146120a157600080fd5b60006020828403121561238d57600080fd5b81356115c281612359565b6000602082840312156123aa57600080fd5b5035919050565b60006020808301818452808551808352604092508286019150828160051b8701018488016000805b848110156124a9577fffffffffffffffffffffffffffffffffffffffffffffffffffffffffffffffc08a85030186528251606073ffffffffffffffffffffffffffffffffffffffff825116865289820151818b880152805180838901528592505b80831015612458578183018c015188840160800152918b019161243a565b8781016080908101879052938b01518b890152988b0198601f017fffffffffffffffffffffffffffffffffffffffffffffffffffffffffffffffe016909601909101945050918701916001016123d9565b50919998505050505050505050565b7f4e487b7100000000000000000000000000000000000000000000000000000000600052601160045260246000fd5b81810381811115610cf757610cf76124b8565b7f4e487b7100000000000000000000000000000000000000000000000000000000600052603260045260246000fd5b8183528181602085013750600060208284010152600060207fffffffffffffffffffffffffffffffffffffffffffffffffffffffffffffffe0601f840116840101905092915050565b602081526000612586602083018486612529565b949350505050565b6000602082840312156125a057600080fd5b815180151581146115c257600080fd5b6000602082840312156125c257600080fd5b5051919050565b80820180821115610cf757610cf76124b8565b8183823760009101908152919050565b7f4e487b7100000000000000000000000000000000000000000000000000000000600052604160045260246000fd5b600181811c9082168061262f57607f821691505b602082108103612668577f4e487b7100000000000000000000000000000000000000000000000000000000600052602260045260246000fd5b50919050565b601f821115610ae457600081815260208120601f850160051c810160208610156126955750805b601f850160051c820191505b818110156126b4578281556001016126a1565b505050505050565b815167ffffffffffffffff8111156126d6576126d66125ec565b6126ea816126e4845461261b565b8461266e565b602080601f83116001811461273d57600084156127075750858301515b7fffffffffffffffffffffffffffffffffffffffffffffffffffffffffffffffff600386901b1c1916600185901b1785556126b4565b6000858152602081207fffffffffffffffffffffffffffffffffffffffffffffffffffffffffffffffe08616915b8281101561278a5788860151825594840194600190910190840161276b565b50858210156127c657878501517fffffffffffffffffffffffffffffffffffffffffffffffffffffffffffffffff600388901b60f8161c191681555b5050505050600190811b01905550565b600082357fffffffffffffffffffffffffffffffffffffffffffffffffffffffffffffff4183360301811261280a57600080fd5b9190910192915050565b60007fffffffffffffffffffffffffffffffffffffffffffffffffffffffffffffffff8203612845576128456124b8565b5060010190565b600081546128598161261b565b80855260206001838116801561287657600181146128ae576128dc565b7fffffffffffffffffffffffffffffffffffffffffffffffffffffffffffffff008516838901528284151560051b89010195506128dc565b866000528260002060005b858110156128d45781548a82018601529083019084016128b9565b890184019650505b505050505092915050565b6040815260006128fa604083018561284c565b905073ffffffffffffffffffffffffffffffffffffffff831660208301529392505050565b6000602080830181845280855480835260408601915060408160051b8701019250866000528360002060005b82811015612996577fffffffffffffffffffffffffffffffffffffffffffffffffffffffffffffffc0888603018452612984858361284c565b9450928501926001918201910161294b565b5092979650505050505050565b60008083357fffffffffffffffffffffffffffffffffffffffffffffffffffffffffffffffe18436030181126129d857600080fd5b83018035915067ffffffffffffffff8211156129f357600080fd5b60200191503681900382131561224f57600080fd5b604081526000612a1c604083018587612529565b905073ffffffffffffffffffffffffffffffffffffffff83166020830152949350505050565b7f4e487b7100000000000000000000000000000000000000000000000000000000600052602160045260246000fd",
    "linkReferences": {}
  },
  "methodIdentifiers": {
    "VOTE_TYPEHASH()": "86522973",
    "castVotes((address,bytes,uint256,uint256,bytes32,bytes32)[])": "349071c2",
    "cooldownPeriod()": "04646a49",
    "directory()": "c41c2f24",
    "featuredPerVotingCount()": "6e571332",
    "finalizeVoting()": "2260b98b",
    "getVotesByVotingId(uint256)": "80e0111e",
    "getVotings()": "05c1112d",
    "initializeVoting(bytes,uint256)": "2d0e9c28",
    "isInCooldownPeriod(bytes)": "6c265f9d",
    "owner()": "8da5cb5b",
    "setDirectory(address)": "6e91818a",
    "token()": "fc0c546a",
    "votingLength()": "0a64522f",
    "votingVerificationLength()": "ff9bd048",
    "votings(uint256)": "a598d03c"
  },
  "id": 1
}