{
  "abi": [
    {
      "inputs": [
        {
          "internalType": "contract MiniMeToken",
          "name": "_token",
          "type": "address"
        },
        {
          "internalType": "uint256",
          "name": "_votingLength",
          "type": "uint256"
        },
        {
          "internalType": "uint256",
          "name": "_votingVerificationLength",
          "type": "uint256"
        },
        {
          "internalType": "uint256",
          "name": "_cooldownPeriod",
          "type": "uint256"
        },
        {
          "internalType": "uint256",
          "name": "_featuredPerVotingCount",
          "type": "uint256"
        }
      ],
      "stateMutability": "nonpayable",
      "type": "constructor"
    },
    {
      "anonymous": false,
      "inputs": [
        {
          "indexed": false,
          "internalType": "bytes",
          "name": "community",
          "type": "bytes"
        },
        {
          "indexed": false,
          "internalType": "address",
          "name": "voter",
          "type": "address"
        }
      ],
      "name": "AlreadyVoted",
      "type": "event"
    },
    {
      "anonymous": false,
      "inputs": [
        {
          "indexed": false,
          "internalType": "bytes",
          "name": "community",
          "type": "bytes"
        },
        {
          "indexed": false,
          "internalType": "address",
          "name": "voter",
          "type": "address"
        }
      ],
      "name": "CommunityFeaturedRecently",
      "type": "event"
    },
    {
      "anonymous": false,
      "inputs": [
        {
          "indexed": false,
          "internalType": "bytes",
          "name": "community",
          "type": "bytes"
        },
        {
          "indexed": false,
          "internalType": "address",
          "name": "voter",
          "type": "address"
        }
      ],
      "name": "CommunityNotInDirectory",
      "type": "event"
    },
    {
      "anonymous": false,
      "inputs": [
        {
          "indexed": false,
          "internalType": "bytes",
          "name": "community",
          "type": "bytes"
        },
        {
          "indexed": false,
          "internalType": "address",
          "name": "voter",
          "type": "address"
        }
      ],
      "name": "InvalidSignature",
      "type": "event"
    },
    {
      "anonymous": false,
      "inputs": [
        {
          "indexed": false,
          "internalType": "bytes",
          "name": "community",
          "type": "bytes"
        },
        {
          "indexed": false,
          "internalType": "address",
          "name": "voter",
          "type": "address"
        }
      ],
      "name": "NotEnoughToken",
      "type": "event"
    },
    {
      "anonymous": false,
      "inputs": [
        {
          "indexed": false,
          "internalType": "bytes",
          "name": "community",
          "type": "bytes"
        },
        {
          "indexed": false,
          "internalType": "address",
          "name": "voter",
          "type": "address"
        }
      ],
      "name": "VoteCast",
      "type": "event"
    },
    {
      "anonymous": false,
      "inputs": [],
      "name": "VotingFinalized",
      "type": "event"
    },
    {
      "anonymous": false,
      "inputs": [],
      "name": "VotingStarted",
      "type": "event"
    },
    {
      "inputs": [],
      "name": "VOTE_TYPEHASH",
      "outputs": [
        {
          "internalType": "bytes32",
          "name": "",
          "type": "bytes32"
        }
      ],
      "stateMutability": "view",
      "type": "function"
    },
    {
      "inputs": [
        {
          "components": [
            {
              "internalType": "address",
              "name": "voter",
              "type": "address"
            },
            {
              "internalType": "bytes",
              "name": "community",
              "type": "bytes"
            },
            {
              "internalType": "uint256",
              "name": "sntAmount",
              "type": "uint256"
            },
            {
              "internalType": "uint256",
              "name": "timestamp",
              "type": "uint256"
            },
            {
              "internalType": "bytes32",
              "name": "r",
              "type": "bytes32"
            },
            {
              "internalType": "bytes32",
              "name": "vs",
              "type": "bytes32"
            }
          ],
          "internalType": "struct FeaturedVotingContract.SignedVote[]",
          "name": "votes",
          "type": "tuple[]"
        }
      ],
      "name": "castVotes",
      "outputs": [],
      "stateMutability": "nonpayable",
      "type": "function"
    },
    {
      "inputs": [],
      "name": "cooldownPeriod",
      "outputs": [
        {
          "internalType": "uint256",
          "name": "",
          "type": "uint256"
        }
      ],
      "stateMutability": "view",
      "type": "function"
    },
    {
      "inputs": [],
      "name": "directory",
      "outputs": [
        {
          "internalType": "contract Directory",
          "name": "",
          "type": "address"
        }
      ],
      "stateMutability": "view",
      "type": "function"
    },
    {
      "inputs": [],
      "name": "featuredPerVotingCount",
      "outputs": [
        {
          "internalType": "uint256",
          "name": "",
          "type": "uint256"
        }
      ],
      "stateMutability": "view",
      "type": "function"
    },
    {
      "inputs": [
        {
          "internalType": "uint32",
          "name": "limit",
          "type": "uint32"
        }
      ],
      "name": "finalizeVoting",
      "outputs": [],
      "stateMutability": "nonpayable",
      "type": "function"
    },
    {
      "inputs": [
        {
          "internalType": "uint256",
          "name": "votingID",
          "type": "uint256"
        }
      ],
      "name": "getVotesByVotingId",
      "outputs": [
        {
          "components": [
            {
              "internalType": "address",
              "name": "voter",
              "type": "address"
            },
            {
              "internalType": "bytes",
              "name": "community",
              "type": "bytes"
            },
            {
              "internalType": "uint256",
              "name": "sntAmount",
              "type": "uint256"
            }
          ],
          "internalType": "struct FeaturedVotingContract.Vote[]",
          "name": "",
          "type": "tuple[]"
        }
      ],
      "stateMutability": "view",
      "type": "function"
    },
    {
      "inputs": [],
      "name": "getVotings",
      "outputs": [
        {
          "components": [
            {
              "internalType": "uint256",
              "name": "id",
              "type": "uint256"
            },
            {
              "internalType": "uint256",
              "name": "startBlock",
              "type": "uint256"
            },
            {
              "internalType": "uint256",
              "name": "startAt",
              "type": "uint256"
            },
            {
              "internalType": "uint256",
              "name": "verificationStartAt",
              "type": "uint256"
            },
            {
              "internalType": "uint256",
              "name": "endAt",
              "type": "uint256"
            },
            {
              "internalType": "bool",
              "name": "finalized",
              "type": "bool"
            },
            {
              "internalType": "uint32",
              "name": "evaluatingPos",
              "type": "uint32"
            },
            {
              "internalType": "bool",
              "name": "evaluated",
              "type": "bool"
            },
            {
              "internalType": "uint256",
              "name": "endBlock",
              "type": "uint256"
            }
          ],
          "internalType": "struct FeaturedVotingContract.Voting[]",
          "name": "",
          "type": "tuple[]"
        }
      ],
      "stateMutability": "view",
      "type": "function"
    },
    {
      "inputs": [
        {
          "internalType": "bytes",
          "name": "publicKey",
          "type": "bytes"
        },
        {
          "internalType": "uint256",
          "name": "voteAmount",
          "type": "uint256"
        }
      ],
      "name": "initializeVoting",
      "outputs": [],
      "stateMutability": "nonpayable",
      "type": "function"
    },
    {
      "inputs": [
        {
          "internalType": "bytes",
          "name": "publicKey",
          "type": "bytes"
        }
      ],
      "name": "isInCooldownPeriod",
      "outputs": [
        {
          "internalType": "bool",
          "name": "",
          "type": "bool"
        }
      ],
      "stateMutability": "view",
      "type": "function"
    },
    {
      "inputs": [],
      "name": "owner",
      "outputs": [
        {
          "internalType": "address",
          "name": "",
          "type": "address"
        }
      ],
      "stateMutability": "view",
      "type": "function"
    },
    {
      "inputs": [
        {
          "internalType": "contract Directory",
          "name": "_address",
          "type": "address"
        }
      ],
      "name": "setDirectory",
      "outputs": [],
      "stateMutability": "nonpayable",
      "type": "function"
    },
    {
      "inputs": [],
      "name": "token",
      "outputs": [
        {
          "internalType": "contract MiniMeToken",
          "name": "",
          "type": "address"
        }
      ],
      "stateMutability": "view",
      "type": "function"
    },
    {
      "inputs": [],
      "name": "votingLength",
      "outputs": [
        {
          "internalType": "uint256",
          "name": "",
          "type": "uint256"
        }
      ],
      "stateMutability": "view",
      "type": "function"
    },
    {
      "inputs": [],
      "name": "votingVerificationLength",
      "outputs": [
        {
          "internalType": "uint256",
          "name": "",
          "type": "uint256"
        }
      ],
      "stateMutability": "view",
      "type": "function"
    },
    {
      "inputs": [
        {
          "internalType": "uint256",
          "name": "",
          "type": "uint256"
        }
      ],
      "name": "votings",
      "outputs": [
        {
          "internalType": "uint256",
          "name": "id",
          "type": "uint256"
        },
        {
          "internalType": "uint256",
          "name": "startBlock",
          "type": "uint256"
        },
        {
          "internalType": "uint256",
          "name": "startAt",
          "type": "uint256"
        },
        {
          "internalType": "uint256",
          "name": "verificationStartAt",
          "type": "uint256"
        },
        {
          "internalType": "uint256",
          "name": "endAt",
          "type": "uint256"
        },
        {
          "internalType": "bool",
          "name": "finalized",
          "type": "bool"
        },
        {
          "internalType": "uint32",
          "name": "evaluatingPos",
          "type": "uint32"
        },
        {
          "internalType": "bool",
          "name": "evaluated",
          "type": "bool"
        },
        {
          "internalType": "uint256",
          "name": "endBlock",
          "type": "uint256"
        }
      ],
      "stateMutability": "view",
      "type": "function"
    }
  ],
  "bytecode": {
    "object": "0x608060405260006008553480156200001657600080fd5b5060405162002fa938038062002fa9833981016040819052620000399162000193565b60008054336001600160a01b031991821617909155600280549091166001600160a01b03871617905560038490556004839055600682905560058190556040805160c0810182526018608082019081527f466561747572656420566f74696e6720436f6e7472616374000000000000000060a083015281528151808301835260018152603160f81b6020808301919091528201524691810191909152306060820152620000e690620000f5565b600d5550620001ea9350505050565b60007f8b73c3c69bb8fe3d512ecc4cf759cc79239f7b179b0ffacaa9a75d522b39400f82600001518051906020012083602001518051906020012084604001518560600151604051602001620001769594939291909485526020850193909352604084019190915260608301526001600160a01b0316608082015260a00190565b604051602081830303815290604052805190602001209050919050565b600080600080600060a08688031215620001ac57600080fd5b85516001600160a01b0381168114620001c457600080fd5b602087015160408801516060890151608090990151929a91995097965090945092505050565b612daf80620001fa6000396000f3fe608060405234801561001057600080fd5b50600436106101005760003560e01c806380e0111e11610097578063a598d03c11610066578063a598d03c14610245578063c41c2f24146102a6578063fc0c546a146102c6578063ff9bd048146102e657600080fd5b806380e0111e146101a657806386522973146101c65780638da5cb5b146101ed578063a16733411461023257600080fd5b8063349071c2116100d3578063349071c2146101545780636c265f9d146101675780636e5713321461018a5780636e91818a1461019357600080fd5b806304646a491461010557806305c1112d146101215780630a64522f146101365780632d0e9c281461013f575b600080fd5b61010e60065481565b6040519081526020015b60405180910390f35b6101296102ef565b6040516101189190612387565b61010e60035481565b61015261014d366004612472565b6103ba565b005b6101526101623660046124be565b610973565b61017a610175366004612533565b610a76565b6040519015158152602001610118565b61010e60055481565b6101526101a1366004612597565b610c8a565b6101b96101b43660046125b4565b610d38565b60405161011891906125cd565b61010e7fc61be5868a517c2688d120fb5bc4073a1804e9a9b307218e2701647bf86f4c7281565b60005461020d9073ffffffffffffffffffffffffffffffffffffffff1681565b60405173ffffffffffffffffffffffffffffffffffffffff9091168152602001610118565b6101526102403660046126b6565b610e69565b6102586102533660046125b4565b611210565b60408051998a5260208a01989098529688019590955260608701939093526080860191909152151560a085015263ffffffff1660c0840152151560e083015261010082015261012001610118565b60015461020d9073ffffffffffffffffffffffffffffffffffffffff1681565b60025461020d9073ffffffffffffffffffffffffffffffffffffffff1681565b61010e60045481565b60606009805480602002602001604051908101604052809291908181526020016000905b828210156103b157600084815260209081902060408051610120810182526007860290920180548352600180820154848601526002820154928401929092526003810154606084015260048101546080840152600581015460ff808216151560a086015261010080830463ffffffff1660c08701526501000000000090920416151560e0850152600690910154908301529083529092019101610313565b50505050905090565b60095415806103fc5750600980546103d49060019061270b565b815481106103e4576103e461271e565b600091825260209091206005600790920201015460ff165b61044d5760405162461bcd60e51b815260206004820152601460248201527f766f746520616c7265616479206f6e676f696e6700000000000000000000000060448201526064015b60405180910390fd5b6001546040517fb3dbb52a00000000000000000000000000000000000000000000000000000000815273ffffffffffffffffffffffffffffffffffffffff9091169063b3dbb52a906104a59086908690600401612778565b602060405180830381865afa1580156104c2573d6000803e3d6000fd5b505050506040513d601f19601f820116820180604052508101906104e69190612794565b6105325760405162461bcd60e51b815260206004820152601a60248201527f636f6d6d756e697479206e6f7420696e206469726563746f72790000000000006044820152606401610444565b61053c8383610a76565b156105ae5760405162461bcd60e51b8152602060048201526024808201527f636f6d6d756e69747920686173206265656e206665617475726564207265636560448201527f6e746c79000000000000000000000000000000000000000000000000000000006064820152608401610444565b6002546040517f70a08231000000000000000000000000000000000000000000000000000000008152336004820152829173ffffffffffffffffffffffffffffffffffffffff16906370a0823190602401602060405180830381865afa15801561061c573d6000803e3d6000fd5b505050506040513d601f19601f8201168201806040525081019061064091906127b6565b101561068e5760405162461bcd60e51b815260206004820152601060248201527f6e6f7420656e6f75676820746f6b656e000000000000000000000000000000006044820152606401610444565b60095460009061069f9060016127cf565b90506001600c600083815260200190815260200160002085856040516106c69291906127e2565b908152604080516020928190038301812033600081815291855283822080547fffffffffffffffffffffffffffffffffffffffffffffffffffffffffffffff001696151596909617909555858152600a84528290206060820183529381528151601f880184900484028101840190925286825291808301919088908890819084018382808284376000920182905250938552505050602091820186905283546001808201865594825290829020835160039092020180547fffffffffffffffffffffffff00000000000000000000000000000000000000001673ffffffffffffffffffffffffffffffffffffffff9092169190911781559082015191929091908201906107d390826128c2565b5060408201518160020155505060096040518061012001604052808381526020014381526020014281526020016003544261080e91906127cf565b81526020016004546003544261082491906127cf565b61082e91906127cf565b81526000602080830182905260408084018390526060808501849052608094850184905286546001808201895597855293839020865160079095020193845591850151838701558401516002830155830151600382015590820151600482015560a082015160058201805460c085015160e08601517fffffffffffffffffffffffffffffffffffffffffffffffffffffff00000000009092169315157fffffffffffffffffffffffffffffffffffffffffffffffffffffff00000000ff169390931761010063ffffffff9094168402177fffffffffffffffffffffffffffffffffffffffffffffffffffff00ffffffffff166501000000000091151591909102179055909101516006909101556109449061127d565b6040517f877e2548498f42b7975a186b94ef1d32c86d420b7b806dd2be2bea293b89590490600090a150505050565b600954158015906109b857506009805461098f9060019061270b565b8154811061099f5761099f61271e565b600091825260209091206005600790920201015460ff16155b610a045760405162461bcd60e51b815260206004820152600f60248201527f6e6f206f6e676f696e6720766f746500000000000000000000000000000000006044820152606401610444565b6000805b82811015610a67576000610a3e858584818110610a2757610a2761271e565b9050602002810190610a3991906129be565b611821565b90508015610a5457610a516001846129fc565b92505b5080610a5f81612a20565b915050610a08565b50610a718161127d565b505050565b6009546000908103610a8a57506000610c84565b6009805460009190610a9e9060019061270b565b81548110610aae57610aae61271e565b600091825260209091206005600790920201015460ff16610adc57600654610ad79060016127cf565b610ae0565b6006545b600954909150610af09082611e04565b905060005b81811015610c7d576000600b60006009600185600980549050610b18919061270b565b610b22919061270b565b81548110610b3257610b3261271e565b9060005260206000209060070201600001548152602001908152602001600020905060005b8154811015610c6857610c44828281548110610b7557610b7561271e565b906000526020600020018054610b8a90612821565b80601f0160208091040260200160405190810160405280929190818152602001828054610bb690612821565b8015610c035780601f10610bd857610100808354040283529160200191610c03565b820191906000526020600020905b815481529060010190602001808311610be657829003601f168201915b505050505088888080601f016020809104026020016040519081016040528093929190818152602001838380828437600092019190915250611e1c92505050565b15610c56576001945050505050610c84565b80610c6081612a20565b915050610b57565b50508080610c7590612a20565b915050610af5565b5060009150505b92915050565b60005473ffffffffffffffffffffffffffffffffffffffff163314610cf15760405162461bcd60e51b815260206004820152600960248201527f4e6f74206f776e657200000000000000000000000000000000000000000000006044820152606401610444565b600180547fffffffffffffffffffffffff00000000000000000000000000000000000000001673ffffffffffffffffffffffffffffffffffffffff92909216919091179055565b6060600a6000838152602001908152602001600020805480602002602001604051908101604052809291908181526020016000905b82821015610e5e576000848152602090819020604080516060810190915260038502909101805473ffffffffffffffffffffffffffffffffffffffff1682526001810180549293919291840191610dc390612821565b80601f0160208091040260200160405190810160405280929190818152602001828054610def90612821565b8015610e3c5780601f10610e1157610100808354040283529160200191610e3c565b820191906000526020600020905b815481529060010190602001808311610e1f57829003601f168201915b5050505050815260200160028201548152505081526020019060010190610d6d565b505050509050919050565b600954610eb85760405162461bcd60e51b815260206004820152600f60248201527f6e6f206f6e676f696e6720766f746500000000000000000000000000000000006044820152606401610444565b6009805460009190610ecc9060019061270b565b81548110610edc57610edc61271e565b60009182526020909120600790910201600581015490915060ff16610f885742816004015410610f4e5760405162461bcd60e51b815260206004820152601260248201527f766f7465207374696c6c206f6e676f696e6700000000000000000000000000006044820152606401610444565b6005810180544260048401554360068401557fffffffffffffffffffffffffffffffffffffffffffffffffffff0000000000001660011790555b600581015465010000000000900460ff1615610fe65760405162461bcd60e51b815260206004820152601660248201527f766f746520616c72656164792066696e616c697a6564000000000000000000006044820152606401610444565b610fef8261127d565b600581015465010000000000900460ff161561120c5780546000908152600b60205260408120905b60055481101561114557600060015b60085481101561109657600782815481106110435761104361271e565b906000526020600020906002020160010154600782815481106110685761106861271e565b9060005260206000209060020201600101541115611084578091505b8061108e81612a20565b915050611026565b50600781815481106110aa576110aa61271e565b9060005260206000209060020201600101546000036110c95750611145565b82600782815481106110dd576110dd61271e565b6000918252602080832084546001810186559484529220909201916111089160029091020182612a58565b5060006007828154811061111e5761111e61271e565b6000918252602090912060016002909202010155508061113d81612a20565b915050611017565b506001546040517fd62879f100000000000000000000000000000000000000000000000000000000815273ffffffffffffffffffffffffffffffffffffffff9091169063d62879f19061119c908490600401612c02565b600060405180830381600087803b1580156111b657600080fd5b505af11580156111ca573d6000803e3d6000fd5b5050600060088190556111e19250600791506122f8565b6040517f0b4fdfa0ecb155e553b7e0a3dabc266f9e01e6f79c154cce531d322df1a1d40590600090a1505b5050565b6009818154811061122057600080fd5b600091825260209091206007909102018054600182015460028301546003840154600485015460058601546006909601549496509294919390929160ff8082169263ffffffff610100840416926501000000000090049091169089565b60098054600091906112919060019061270b565b815481106112a1576112a161271e565b60009182526020808320600790920290910180548352600a90915260409091206005820154815492935090916112e39163ffffffff610100909104169061270b565b8363ffffffff16111561135e5760405162461bcd60e51b815260206004820152602260248201527f6c696d69742069732067726561746572207468616e20766f746573206c656e6760448201527f74680000000000000000000000000000000000000000000000000000000000006064820152608401610444565b6005820154439060ff1615611374575060068201545b60005b8463ffffffff168163ffffffff16101561179157600584015460009084906113ab908490610100900463ffffffff166129fc565b63ffffffff16815481106113c1576113c161271e565b60009182526020909120600260039092020181810154915481546040517f4ee2cd7e00000000000000000000000000000000000000000000000000000000815273ffffffffffffffffffffffffffffffffffffffff9182166004820152602481018890529294501690634ee2cd7e90604401602060405180830381865afa158015611450573d6000803e3d6000fd5b505050506040513d601f19601f8201168201806040525081019061147491906127b6565b10156114d45780546040517f0218de22dd683f05a68dde5feefca4c25fbc0f66a72b8130b56d1bf658743c79916114c691600185019173ffffffffffffffffffffffffffffffffffffffff1690612c86565b60405180910390a15061177f565b6000805b600854811015611682576116248360010180546114f490612821565b80601f016020809104026020016040519081016040528092919081815260200182805461152090612821565b801561156d5780601f106115425761010080835404028352916020019161156d565b820191906000526020600020905b81548152906001019060200180831161155057829003601f168201915b5050505050600783815481106115855761158561271e565b906000526020600020906002020160000180546115a190612821565b80601f01602080910402602001604051908101604052809291908181526020018280546115cd90612821565b801561161a5780601f106115ef5761010080835404028352916020019161161a565b820191906000526020600020905b8154815290600101906020018083116115fd57829003601f168201915b5050505050611e1c565b15611670578260020154600782815481106116415761164161271e565b9060005260206000209060020201600101600082825461166191906127cf565b90915550600192506116829050565b8061167a81612a20565b9150506114d8565b508061177c57600760405180604001604052808460010180546116a490612821565b80601f01602080910402602001604051908101604052809291908181526020018280546116d090612821565b801561171d5780601f106116f25761010080835404028352916020019161171d565b820191906000526020600020905b81548152906001019060200180831161170057829003601f168201915b5050509183525050600280860154602092830152835460018101855560009485529190932082519293919091020190819061175890826128c2565b50602091909101516001909101556008805490600061177683612a20565b91905055505b50505b8061178981612cbe565b915050611377565b808460050160018282829054906101000a900463ffffffff166117b491906129fc565b825463ffffffff91821661010093840a9081029083021990911617909255855460058801549190910490911603905061181a576005840180547fffffffffffffffffffffffffffffffffffffffffffffffffffff00ffffffffff16650100000000001790555b5050505050565b600061182c82611ede565b61188a577f16001116460b717e935c4a79fd9e1d99bc9559981bbdfe6da8a8f3cd240e816161185e6020840184612ce1565b61186b6020860186612597565b60405161187a93929190612d46565b60405180910390a1506000919050565b60015473ffffffffffffffffffffffffffffffffffffffff1663b3dbb52a6118b56020850185612ce1565b6040518363ffffffff1660e01b81526004016118d2929190612778565b602060405180830381865afa1580156118ef573d6000803e3d6000fd5b505050506040513d601f19601f820116820180604052508101906119139190612794565b611945577f5ead04d5bcfd9db10275637895e9c86a4c18418cfd7cb5375abc5ff7b03de11261185e6020840184612ce1565b6119556101756020840184612ce1565b15611988577f6ec68e8d215eacdcace684f5941d240b9b8ae3452184fab8c3a06eaad120edc961185e6020840184612ce1565b600980546000919061199c9060019061270b565b815481106119ac576119ac61271e565b9060005260206000209060070201905080600401544210611a0f5760405162461bcd60e51b815260206004820152600b60248201527f766f746520636c6f7365640000000000000000000000000000000000000000006044820152606401610444565b600581015460ff1615611a645760405162461bcd60e51b815260206004820152600e60248201527f726f6f6d2066696e616c697a65640000000000000000000000000000000000006044820152606401610444565b8060030154836060013510611abb5760405162461bcd60e51b815260206004820152601660248201527f696e76616c696420766f74652074696d657374616d70000000000000000000006044820152606401610444565b806002015483606001351015611b135760405162461bcd60e51b815260206004820152601660248201527f696e76616c696420766f74652074696d657374616d70000000000000000000006044820152606401610444565b80546000908152600c6020908152604090912090611b3390850185612ce1565b604051611b419291906127e2565b90815260200160405180910390206000846000016020810190611b649190612597565b73ffffffffffffffffffffffffffffffffffffffff16815260208101919091526040016000205460ff1615611bee577f85c200189b053fd138c5722db986f1b268ad5058ea51960ec3662e5c124140fa611bc16020850185612ce1565b611bce6020870187612597565b604051611bdd93929190612d46565b60405180910390a150600092915050565b80546000908152600c60209081526040909120600191611c1090860186612ce1565b604051611c1e9291906127e2565b90815260200160405180910390206000856000016020810190611c419190612597565b73ffffffffffffffffffffffffffffffffffffffff1681526020808201929092526040908101600090812080547fffffffffffffffffffffffffffffffffffffffffffffffffffffffffffffff00169415159490941790935583548352600a82529182902082516060810190935291908190611cbf90870187612597565b73ffffffffffffffffffffffffffffffffffffffff168152602001858060200190611cea9190612ce1565b8080601f0160208091040260200160405190810160405280939291908181526020018383808284376000920182905250938552505050604087013560209283015283546001808201865594825290829020835160039092020180547fffffffffffffffffffffffff00000000000000000000000000000000000000001673ffffffffffffffffffffffffffffffffffffffff909216919091178155908201519192909190820190611d9b90826128c2565b50604091909101516002909101557f5fe392585cc663ee634772bae3b95aa7aa9a6d647c41ade0b9c1f8c48e74077c611dd76020850185612ce1565b611de46020870187612597565b604051611df393929190612d46565b60405180910390a150600192915050565b6000818310611e135781611e15565b825b9392505050565b60008151835114611e2f57506000610c84565b60005b8351811015611ed457828181518110611e4d57611e4d61271e565b602001015160f81c60f81b7effffffffffffffffffffffffffffffffffffffffffffffffffffffffffffff1916848281518110611e8c57611e8c61271e565b01602001517fff000000000000000000000000000000000000000000000000000000000000001614611ec2576000915050610c84565b80611ecc81612a20565b915050611e32565b5060019392505050565b600080600d54611eed84611f93565b6040517f190100000000000000000000000000000000000000000000000000000000000060208201526022810192909252604282015260620160408051601f1981840301815291905280516020918201209150611f4c90840184612597565b73ffffffffffffffffffffffffffffffffffffffff16611f7582608086013560a0870135612047565b73ffffffffffffffffffffffffffffffffffffffff16149392505050565b60007fc61be5868a517c2688d120fb5bc4073a1804e9a9b307218e2701647bf86f4c72611fc36020840184612597565b611fd06020850185612ce1565b604051611fde9291906127e2565b60408051918290038220602083019490945273ffffffffffffffffffffffffffffffffffffffff909216818301526060808201939093529084013560808201529083013560a082015260c001604051602081830303815290604052805190602001209050919050565b600080600061205786868661206d565b91509150612064816120bf565b50949350505050565b6000807f7fffffffffffffffffffffffffffffffffffffffffffffffffffffffffffffff8316816120a360ff86901c601b6127cf565b90506120b187828885612227565b935093505050935093915050565b60008160048111156120d3576120d3612d80565b036120db5750565b60018160048111156120ef576120ef612d80565b0361213c5760405162461bcd60e51b815260206004820152601860248201527f45434453413a20696e76616c6964207369676e617475726500000000000000006044820152606401610444565b600281600481111561215057612150612d80565b0361219d5760405162461bcd60e51b815260206004820152601f60248201527f45434453413a20696e76616c6964207369676e6174757265206c656e677468006044820152606401610444565b60038160048111156121b1576121b1612d80565b036122245760405162461bcd60e51b815260206004820152602260248201527f45434453413a20696e76616c6964207369676e6174757265202773272076616c60448201527f75650000000000000000000000000000000000000000000000000000000000006064820152608401610444565b50565b6000807f7fffffffffffffffffffffffffffffff5d576e7357a4501ddfe92f46681b20a083111561225e57506000905060036122ef565b6040805160008082526020820180845289905260ff881692820192909252606081018690526080810185905260019060a0016020604051602081039080840390855afa1580156122b2573d6000803e3d6000fd5b5050604051601f19015191505073ffffffffffffffffffffffffffffffffffffffff81166122e8576000600192509250506122ef565b9150600090505b94509492505050565b508054600082556002029060005260206000209081019061222491905b80821115612339576000612329828261233d565b5060006001820155600201612315565b5090565b50805461234990612821565b6000825580601f10612359575050565b601f01602090049060005260206000209081019061222491905b808211156123395760008155600101612373565b602080825282518282018190526000919060409081850190868401855b8281101561241c5781518051855286810151878601528581015186860152606080820151908601526080808201519086015260a08082015115159086015260c08082015163ffffffff169086015260e080820151151590860152610100908101519085015261012090930192908501906001016123a4565b5091979650505050505050565b60008083601f84011261243b57600080fd5b50813567ffffffffffffffff81111561245357600080fd5b60208301915083602082850101111561246b57600080fd5b9250929050565b60008060006040848603121561248757600080fd5b833567ffffffffffffffff81111561249e57600080fd5b6124aa86828701612429565b909790965060209590950135949350505050565b600080602083850312156124d157600080fd5b823567ffffffffffffffff808211156124e957600080fd5b818501915085601f8301126124fd57600080fd5b81358181111561250c57600080fd5b8660208260051b850101111561252157600080fd5b60209290920196919550909350505050565b6000806020838503121561254657600080fd5b823567ffffffffffffffff81111561255d57600080fd5b61256985828601612429565b90969095509350505050565b73ffffffffffffffffffffffffffffffffffffffff8116811461222457600080fd5b6000602082840312156125a957600080fd5b8135611e1581612575565b6000602082840312156125c657600080fd5b5035919050565b60006020808301818452808551808352604092508286019150828160051b8701018488016000805b848110156126a7577fffffffffffffffffffffffffffffffffffffffffffffffffffffffffffffffc08a85030186528251606073ffffffffffffffffffffffffffffffffffffffff825116865289820151818b880152805180838901528592505b80831015612674578183018c015188840160800152918b0191612656565b8781016080908101879052938b01518b890152988b0198601f01601f1916909601909101945050918701916001016125f5565b50919998505050505050505050565b6000602082840312156126c857600080fd5b813563ffffffff81168114611e1557600080fd5b7f4e487b7100000000000000000000000000000000000000000000000000000000600052601160045260246000fd5b81810381811115610c8457610c846126dc565b7f4e487b7100000000000000000000000000000000000000000000000000000000600052603260045260246000fd5b818352818160208501375060006020828401015260006020601f19601f840116840101905092915050565b60208152600061278c60208301848661274d565b949350505050565b6000602082840312156127a657600080fd5b81518015158114611e1557600080fd5b6000602082840312156127c857600080fd5b5051919050565b80820180821115610c8457610c846126dc565b8183823760009101908152919050565b7f4e487b7100000000000000000000000000000000000000000000000000000000600052604160045260246000fd5b600181811c9082168061283557607f821691505b60208210810361286e577f4e487b7100000000000000000000000000000000000000000000000000000000600052602260045260246000fd5b50919050565b601f821115610a7157600081815260208120601f850160051c8101602086101561289b5750805b601f850160051c820191505b818110156128ba578281556001016128a7565b505050505050565b815167ffffffffffffffff8111156128dc576128dc6127f2565b6128f0816128ea8454612821565b84612874565b602080601f831160018114612943576000841561290d5750858301515b7fffffffffffffffffffffffffffffffffffffffffffffffffffffffffffffffff600386901b1c1916600185901b1785556128ba565b600085815260208120601f198616915b8281101561297257888601518255948401946001909101908401612953565b50858210156129ae57878501517fffffffffffffffffffffffffffffffffffffffffffffffffffffffffffffffff600388901b60f8161c191681555b5050505050600190811b01905550565b600082357fffffffffffffffffffffffffffffffffffffffffffffffffffffffffffffff418336030181126129f257600080fd5b9190910192915050565b63ffffffff818116838216019080821115612a1957612a196126dc565b5092915050565b60007fffffffffffffffffffffffffffffffffffffffffffffffffffffffffffffffff8203612a5157612a516126dc565b5060010190565b818103612a63575050565b612a6d8254612821565b67ffffffffffffffff811115612a8557612a856127f2565b612a93816128ea8454612821565b6000601f821160018114612ae55760008315612aaf5750848201545b7fffffffffffffffffffffffffffffffffffffffffffffffffffffffffffffffff600385901b1c1916600184901b17845561181a565b600085815260209020601f19841690600086815260209020845b83811015612b1f5782860154825560019586019590910190602001612aff565b50858310156129ae579301547fffffffffffffffffffffffffffffffffffffffffffffffffffffffffffffffff60f8600387901b161c19169092555050600190811b01905550565b60008154612b7481612821565b808552602060018381168015612b915760018114612bc957612bf7565b7fffffffffffffffffffffffffffffffffffffffffffffffffffffffffffffff008516838901528284151560051b8901019550612bf7565b866000528260002060005b85811015612bef5781548a8201860152908301908401612bd4565b890184019650505b505050505092915050565b6000602080830181845280855480835260408601915060408160051b8701019250866000528360002060005b82811015612c79577fffffffffffffffffffffffffffffffffffffffffffffffffffffffffffffffc0888603018452612c678583612b67565b94509285019260019182019101612c2e565b5092979650505050505050565b604081526000612c996040830185612b67565b905073ffffffffffffffffffffffffffffffffffffffff831660208301529392505050565b600063ffffffff808316818103612cd757612cd76126dc565b6001019392505050565b60008083357fffffffffffffffffffffffffffffffffffffffffffffffffffffffffffffffe1843603018112612d1657600080fd5b83018035915067ffffffffffffffff821115612d3157600080fd5b60200191503681900382131561246b57600080fd5b604081526000612d5a60408301858761274d565b905073ffffffffffffffffffffffffffffffffffffffff83166020830152949350505050565b7f4e487b7100000000000000000000000000000000000000000000000000000000600052602160045260246000fd",
    "linkReferences": {}
  },
  "methodIdentifiers": {
    "VOTE_TYPEHASH()": "86522973",
    "castVotes((address,bytes,uint256,uint256,bytes32,bytes32)[])": "349071c2",
    "cooldownPeriod()": "04646a49",
    "directory()": "c41c2f24",
    "featuredPerVotingCount()": "6e571332",
    "finalizeVoting(uint32)": "a1673341",
    "getVotesByVotingId(uint256)": "80e0111e",
    "getVotings()": "05c1112d",
    "initializeVoting(bytes,uint256)": "2d0e9c28",
    "isInCooldownPeriod(bytes)": "6c265f9d",
    "owner()": "8da5cb5b",
    "setDirectory(address)": "6e91818a",
    "token()": "fc0c546a",
    "votingLength()": "0a64522f",
    "votingVerificationLength()": "ff9bd048",
    "votings(uint256)": "a598d03c"
  },
  "id": 1
}