{
  "abi": [
    {
      "inputs": [
        {
          "internalType": "contract IERC20",
          "name": "_address",
          "type": "address"
        },
        {
          "internalType": "uint256",
          "name": "_votingLength",
          "type": "uint256"
        },
        {
          "internalType": "uint256",
          "name": "_votingVerificationLength",
          "type": "uint256"
        },
        {
          "internalType": "uint256",
          "name": "_cooldownPeriod",
          "type": "uint256"
        },
        {
          "internalType": "uint256",
          "name": "_featuredPerVotingCount",
          "type": "uint256"
        }
      ],
      "stateMutability": "nonpayable",
      "type": "constructor"
    },
    {
      "anonymous": false,
      "inputs": [
        {
          "indexed": false,
          "internalType": "bytes",
          "name": "community",
          "type": "bytes"
        },
        {
          "indexed": false,
          "internalType": "address",
          "name": "voter",
          "type": "address"
        }
      ],
      "name": "AlreadyVoted",
      "type": "event"
    },
    {
      "anonymous": false,
      "inputs": [
        {
          "indexed": false,
          "internalType": "bytes",
          "name": "community",
          "type": "bytes"
        },
        {
          "indexed": false,
          "internalType": "address",
          "name": "voter",
          "type": "address"
        }
      ],
      "name": "CommunityFeaturedRecently",
      "type": "event"
    },
    {
      "anonymous": false,
      "inputs": [
        {
          "indexed": false,
          "internalType": "bytes",
          "name": "community",
          "type": "bytes"
        },
        {
          "indexed": false,
          "internalType": "address",
          "name": "voter",
          "type": "address"
        }
      ],
      "name": "CommunityNotInDirectory",
      "type": "event"
    },
    {
      "anonymous": false,
      "inputs": [
        {
          "indexed": false,
          "internalType": "bytes",
          "name": "community",
          "type": "bytes"
        },
        {
          "indexed": false,
          "internalType": "address",
          "name": "voter",
          "type": "address"
        }
      ],
      "name": "InvalidSignature",
      "type": "event"
    },
    {
      "anonymous": false,
      "inputs": [
        {
          "indexed": false,
          "internalType": "bytes",
          "name": "community",
          "type": "bytes"
        },
        {
          "indexed": false,
          "internalType": "address",
          "name": "voter",
          "type": "address"
        }
      ],
      "name": "NotEnoughToken",
      "type": "event"
    },
    {
      "anonymous": false,
      "inputs": [
        {
          "indexed": false,
          "internalType": "bytes",
          "name": "community",
          "type": "bytes"
        },
        {
          "indexed": false,
          "internalType": "address",
          "name": "voter",
          "type": "address"
        }
      ],
      "name": "VoteCast",
      "type": "event"
    },
    {
      "anonymous": false,
      "inputs": [],
      "name": "VotingFinalized",
      "type": "event"
    },
    {
      "anonymous": false,
      "inputs": [],
      "name": "VotingStarted",
      "type": "event"
    },
    {
      "inputs": [],
      "name": "VOTE_TYPEHASH",
      "outputs": [
        {
          "internalType": "bytes32",
          "name": "",
          "type": "bytes32"
        }
      ],
      "stateMutability": "view",
      "type": "function"
    },
    {
      "inputs": [
        {
          "components": [
            {
              "internalType": "address",
              "name": "voter",
              "type": "address"
            },
            {
              "internalType": "bytes",
              "name": "community",
              "type": "bytes"
            },
            {
              "internalType": "uint256",
              "name": "sntAmount",
              "type": "uint256"
            },
            {
              "internalType": "uint256",
              "name": "timestamp",
              "type": "uint256"
            },
            {
              "internalType": "bytes32",
              "name": "r",
              "type": "bytes32"
            },
            {
              "internalType": "bytes32",
              "name": "vs",
              "type": "bytes32"
            }
          ],
          "internalType": "struct FeaturedVotingContract.SignedVote[]",
          "name": "votes",
          "type": "tuple[]"
        }
      ],
      "name": "castVotes",
      "outputs": [],
      "stateMutability": "nonpayable",
      "type": "function"
    },
    {
      "inputs": [],
      "name": "cooldownPeriod",
      "outputs": [
        {
          "internalType": "uint256",
          "name": "",
          "type": "uint256"
        }
      ],
      "stateMutability": "view",
      "type": "function"
    },
    {
      "inputs": [],
      "name": "directory",
      "outputs": [
        {
          "internalType": "contract Directory",
          "name": "",
          "type": "address"
        }
      ],
      "stateMutability": "view",
      "type": "function"
    },
    {
      "inputs": [],
      "name": "featuredPerVotingCount",
      "outputs": [
        {
          "internalType": "uint256",
          "name": "",
          "type": "uint256"
        }
      ],
      "stateMutability": "view",
      "type": "function"
    },
    {
      "inputs": [],
      "name": "finalizeVoting",
      "outputs": [],
      "stateMutability": "nonpayable",
      "type": "function"
    },
    {
      "inputs": [
        {
          "internalType": "uint256",
          "name": "votingID",
          "type": "uint256"
        }
      ],
      "name": "getVotesByVotingId",
      "outputs": [
        {
          "components": [
            {
              "internalType": "address",
              "name": "voter",
              "type": "address"
            },
            {
              "internalType": "bytes",
              "name": "community",
              "type": "bytes"
            },
            {
              "internalType": "uint256",
              "name": "sntAmount",
              "type": "uint256"
            }
          ],
          "internalType": "struct FeaturedVotingContract.Vote[]",
          "name": "",
          "type": "tuple[]"
        }
      ],
      "stateMutability": "view",
      "type": "function"
    },
    {
      "inputs": [],
      "name": "getVotings",
      "outputs": [
        {
          "components": [
            {
              "internalType": "uint256",
              "name": "id",
              "type": "uint256"
            },
            {
              "internalType": "uint256",
              "name": "startBlock",
              "type": "uint256"
            },
            {
              "internalType": "uint256",
              "name": "startAt",
              "type": "uint256"
            },
            {
              "internalType": "uint256",
              "name": "verificationStartAt",
              "type": "uint256"
            },
            {
              "internalType": "uint256",
              "name": "endAt",
              "type": "uint256"
            },
            {
              "internalType": "bool",
              "name": "finalized",
              "type": "bool"
            }
          ],
          "internalType": "struct FeaturedVotingContract.Voting[]",
          "name": "",
          "type": "tuple[]"
        }
      ],
      "stateMutability": "view",
      "type": "function"
    },
    {
      "inputs": [
        {
          "internalType": "bytes",
          "name": "publicKey",
          "type": "bytes"
        },
        {
          "internalType": "uint256",
          "name": "voteAmount",
          "type": "uint256"
        }
      ],
      "name": "initializeVoting",
      "outputs": [],
      "stateMutability": "nonpayable",
      "type": "function"
    },
    {
      "inputs": [
        {
          "internalType": "bytes",
          "name": "publicKey",
          "type": "bytes"
        }
      ],
      "name": "isInCooldownPeriod",
      "outputs": [
        {
          "internalType": "bool",
          "name": "",
          "type": "bool"
        }
      ],
      "stateMutability": "view",
      "type": "function"
    },
    {
      "inputs": [],
      "name": "owner",
      "outputs": [
        {
          "internalType": "address",
          "name": "",
          "type": "address"
        }
      ],
      "stateMutability": "view",
      "type": "function"
    },
    {
      "inputs": [
        {
          "internalType": "contract Directory",
          "name": "_address",
          "type": "address"
        }
      ],
      "name": "setDirectory",
      "outputs": [],
      "stateMutability": "nonpayable",
      "type": "function"
    },
    {
      "inputs": [],
      "name": "token",
      "outputs": [
        {
          "internalType": "contract IERC20",
          "name": "",
          "type": "address"
        }
      ],
      "stateMutability": "view",
      "type": "function"
    },
    {
      "inputs": [],
      "name": "votingLength",
      "outputs": [
        {
          "internalType": "uint256",
          "name": "",
          "type": "uint256"
        }
      ],
      "stateMutability": "view",
      "type": "function"
    },
    {
      "inputs": [],
      "name": "votingVerificationLength",
      "outputs": [
        {
          "internalType": "uint256",
          "name": "",
          "type": "uint256"
        }
      ],
      "stateMutability": "view",
      "type": "function"
    },
    {
      "inputs": [
        {
          "internalType": "uint256",
          "name": "",
          "type": "uint256"
        }
      ],
      "name": "votings",
      "outputs": [
        {
          "internalType": "uint256",
          "name": "id",
          "type": "uint256"
        },
        {
          "internalType": "uint256",
          "name": "startBlock",
          "type": "uint256"
        },
        {
          "internalType": "uint256",
          "name": "startAt",
          "type": "uint256"
        },
        {
          "internalType": "uint256",
          "name": "verificationStartAt",
          "type": "uint256"
        },
        {
          "internalType": "uint256",
          "name": "endAt",
          "type": "uint256"
        },
        {
          "internalType": "bool",
          "name": "finalized",
          "type": "bool"
        }
      ],
      "stateMutability": "view",
      "type": "function"
    }
  ],
  "bytecode": {
    "object": "0x60806040523480156200001157600080fd5b5060405162002c4f38038062002c4f83398101604081905262000034916200018e565b60008054336001600160a01b031991821617909155600280549091166001600160a01b03871617905560038490556004839055600682905560058190556040805160c0810182526018608082019081527f466561747572656420566f74696e6720436f6e7472616374000000000000000060a083015281528151808301835260018152603160f81b6020808301919091528201524691810191909152306060820152620000e190620000f0565b600b5550620001e59350505050565b60007f8b73c3c69bb8fe3d512ecc4cf759cc79239f7b179b0ffacaa9a75d522b39400f82600001518051906020012083602001518051906020012084604001518560600151604051602001620001719594939291909485526020850193909352604084019190915260608301526001600160a01b0316608082015260a00190565b604051602081830303815290604052805190602001209050919050565b600080600080600060a08688031215620001a757600080fd5b85516001600160a01b0381168114620001bf57600080fd5b602087015160408801516060890151608090990151929a91995097965090945092505050565b612a5a80620001f56000396000f3fe608060405234801561001057600080fd5b50600436106101005760003560e01c80636e91818a11610097578063a598d03c11610066578063a598d03c1461023a578063c41c2f241461027c578063fc0c546a1461029c578063ff9bd048146102bc57600080fd5b80636e91818a1461019b57806380e0111e146101ae57806386522973146101ce5780638da5cb5b146101f557600080fd5b80632d0e9c28116100d35780632d0e9c2814610149578063349071c21461015c5780636c265f9d1461016f5780636e5713321461019257600080fd5b806304646a491461010557806305c1112d146101215780630a64522f146101365780632260b98b1461013f575b600080fd5b61010e60065481565b6040519081526020015b60405180910390f35b6101296102c5565b604051610118919061217c565b61010e60035481565b61014761035f565b005b61014761015736600461223f565b6104e3565b61014761016a36600461228b565b610a04565b61018261017d366004612300565b610ae3565b6040519015158152602001610118565b61010e60055481565b6101476101a9366004612364565b610cf7565b6101c16101bc366004612381565b610da5565b604051610118919061239a565b61010e7fc61be5868a517c2688d120fb5bc4073a1804e9a9b307218e2701647bf86f4c7281565b6000546102159073ffffffffffffffffffffffffffffffffffffffff1681565b60405173ffffffffffffffffffffffffffffffffffffffff9091168152602001610118565b61024d610248366004612381565b610ed6565b6040805196875260208701959095529385019290925260608401526080830152151560a082015260c001610118565b6001546102159073ffffffffffffffffffffffffffffffffffffffff1681565b6002546102159073ffffffffffffffffffffffffffffffffffffffff1681565b61010e60045481565b60606007805480602002602001604051908101604052809291908181526020016000905b828210156103565760008481526020908190206040805160c08101825260068602909201805483526001808201548486015260028201549284019290925260038101546060840152600481015460808401526005015460ff16151560a083015290835290920191016102e9565b50505050905090565b600754158015906103a457506007805461037b906001906124d0565b8154811061038b5761038b6124e3565b600091825260209091206005600690920201015460ff16155b6103f55760405162461bcd60e51b815260206004820152600f60248201527f6e6f206f6e676f696e6720766f7465000000000000000000000000000000000060448201526064015b60405180910390fd5b6007805460009190610409906001906124d0565b81548110610419576104196124e3565b906000526020600020906006020190504281600401541061047c5760405162461bcd60e51b815260206004820152601260248201527f766f7465207374696c6c206f6e676f696e67000000000000000000000000000060448201526064016103ec565b6005810180547fffffffffffffffffffffffffffffffffffffffffffffffffffffffffffffff001660011790554260048201556104b7610f1f565b6040517f0b4fdfa0ecb155e553b7e0a3dabc266f9e01e6f79c154cce531d322df1a1d40590600090a150565b60075415806105255750600780546104fd906001906124d0565b8154811061050d5761050d6124e3565b600091825260209091206005600690920201015460ff165b6105715760405162461bcd60e51b815260206004820152601460248201527f766f746520616c7265616479206f6e676f696e6700000000000000000000000060448201526064016103ec565b6001546040517fb3dbb52a00000000000000000000000000000000000000000000000000000000815273ffffffffffffffffffffffffffffffffffffffff9091169063b3dbb52a906105c9908690869060040161255b565b602060405180830381865afa1580156105e6573d6000803e3d6000fd5b505050506040513d601f19601f8201168201806040525081019061060a9190612577565b6106565760405162461bcd60e51b815260206004820152601a60248201527f636f6d6d756e697479206e6f7420696e206469726563746f727900000000000060448201526064016103ec565b6106608383610ae3565b156106d25760405162461bcd60e51b8152602060048201526024808201527f636f6d6d756e69747920686173206265656e206665617475726564207265636560448201527f6e746c790000000000000000000000000000000000000000000000000000000060648201526084016103ec565b6002546040517f70a08231000000000000000000000000000000000000000000000000000000008152336004820152829173ffffffffffffffffffffffffffffffffffffffff16906370a0823190602401602060405180830381865afa158015610740573d6000803e3d6000fd5b505050506040513d601f19601f820116820180604052508101906107649190612599565b10156107b25760405162461bcd60e51b815260206004820152601060248201527f6e6f7420656e6f75676820746f6b656e0000000000000000000000000000000060448201526064016103ec565b6007546000906107c39060016125b2565b90506001600a600083815260200190815260200160002085856040516107ea9291906125c5565b908152604080516020928190038301812033600081815291855283822080547fffffffffffffffffffffffffffffffffffffffffffffffffffffffffffffff001696151596909617909555858152600884528290206060820183529381528151601f880184900484028101840190925286825291808301919088908890819084018382808284376000920182905250938552505050602091820186905283546001808201865594825290829020835160039092020180547fffffffffffffffffffffffff00000000000000000000000000000000000000001673ffffffffffffffffffffffffffffffffffffffff9092169190911781559082015191929091908201906108f790826126a5565b5060408201518160020155505060076040518060c001604052808381526020014381526020014281526020016003544261093191906125b2565b81526020016004546003544261094791906125b2565b61095191906125b2565b815260006020918201819052835460018082018655948252828220845160069092020190815591830151938201939093556040808301516002830155606083015160038301556080830151600483015560a090920151600590910180547fffffffffffffffffffffffffffffffffffffffffffffffffffffffffffffff0016911515919091179055517f877e2548498f42b7975a186b94ef1d32c86d420b7b806dd2be2bea293b8959049190a150505050565b60075415801590610a49575060078054610a20906001906124d0565b81548110610a3057610a306124e3565b600091825260209091206005600690920201015460ff16155b610a955760405162461bcd60e51b815260206004820152600f60248201527f6e6f206f6e676f696e6720766f7465000000000000000000000000000000000060448201526064016103ec565b60005b81811015610ade57610acc838383818110610ab557610ab56124e3565b9050602002810190610ac791906127bf565b6115b0565b80610ad6816127fd565b915050610a98565b505050565b6007546000908103610af757506000610cf1565b6007805460009190610b0b906001906124d0565b81548110610b1b57610b1b6124e3565b600091825260209091206005600690920201015460ff16610b4957600654610b449060016125b2565b610b4d565b6006545b600754909150610b5d9082611c4c565b905060005b81811015610cea576000600960006007600185600780549050610b8591906124d0565b610b8f91906124d0565b81548110610b9f57610b9f6124e3565b9060005260206000209060060201600001548152602001908152602001600020905060005b8154811015610cd557610cb1828281548110610be257610be26124e3565b906000526020600020018054610bf790612604565b80601f0160208091040260200160405190810160405280929190818152602001828054610c2390612604565b8015610c705780601f10610c4557610100808354040283529160200191610c70565b820191906000526020600020905b815481529060010190602001808311610c5357829003601f168201915b505050505088888080601f016020809104026020016040519081016040528093929190818152602001838380828437600092019190915250611c6492505050565b15610cc3576001945050505050610cf1565b80610ccd816127fd565b915050610bc4565b50508080610ce2906127fd565b915050610b62565b5060009150505b92915050565b60005473ffffffffffffffffffffffffffffffffffffffff163314610d5e5760405162461bcd60e51b815260206004820152600960248201527f4e6f74206f776e6572000000000000000000000000000000000000000000000060448201526064016103ec565b600180547fffffffffffffffffffffffff00000000000000000000000000000000000000001673ffffffffffffffffffffffffffffffffffffffff92909216919091179055565b606060086000838152602001908152602001600020805480602002602001604051908101604052809291908181526020016000905b82821015610ecb576000848152602090819020604080516060810190915260038502909101805473ffffffffffffffffffffffffffffffffffffffff1682526001810180549293919291840191610e3090612604565b80601f0160208091040260200160405190810160405280929190818152602001828054610e5c90612604565b8015610ea95780601f10610e7e57610100808354040283529160200191610ea9565b820191906000526020600020905b815481529060010190602001808311610e8c57829003601f168201915b5050505050815260200160028201548152505081526020019060010190610dda565b505050509050919050565b60078181548110610ee657600080fd5b60009182526020909120600690910201805460018201546002830154600384015460048501546005909501549395509193909260ff1686565b6007805460009190610f33906001906124d0565b81548110610f4357610f436124e3565b600091825260208083206006909202909101805483526008909152604082208054919350919067ffffffffffffffff811115610f8157610f816125d5565b604051908082528060200260200182016040528015610fc757816020015b604080518082019091526060815260006020820152815260200190600190039081610f9f5790505b5090506000805b83548110156113ff57838181548110610fe957610fe96124e3565b906000526020600020906003020160020154600260009054906101000a900473ffffffffffffffffffffffffffffffffffffffff1673ffffffffffffffffffffffffffffffffffffffff166370a0823186848154811061104b5761104b6124e3565b600091825260209091206003909102015460405160e083901b7fffffffff0000000000000000000000000000000000000000000000000000000016815273ffffffffffffffffffffffffffffffffffffffff9091166004820152602401602060405180830381865afa1580156110c5573d6000803e3d6000fd5b505050506040513d601f19601f820116820180604052508101906110e99190612599565b1015611187577f0218de22dd683f05a68dde5feefca4c25fbc0f66a72b8130b56d1bf658743c79848281548110611122576111226124e3565b9060005260206000209060030201600101858381548110611145576111456124e3565b600091825260209091206003909102015460405161117a929173ffffffffffffffffffffffffffffffffffffffff16906128d0565b60405180910390a16113ed565b6000805b838110156112d6576112658684815481106111a8576111a86124e3565b906000526020600020906003020160010180546111c490612604565b80601f01602080910402602001604051908101604052809291908181526020018280546111f090612604565b801561123d5780601f106112125761010080835404028352916020019161123d565b820191906000526020600020905b81548152906001019060200180831161122057829003601f168201915b5050505050868381518110611254576112546124e3565b602002602001015160000151611c64565b156112c45785838154811061127c5761127c6124e3565b9060005260206000209060030201600201548582815181106112a0576112a06124e3565b60200260200101516020018181516112b891906125b2565b905250600191506112d6565b806112ce816127fd565b91505061118b565b50806113eb5760405180604001604052808684815481106112f9576112f96124e3565b9060005260206000209060030201600101805461131590612604565b80601f016020809104026020016040519081016040528092919081815260200182805461134190612604565b801561138e5780601f106113635761010080835404028352916020019161138e565b820191906000526020600020905b81548152906001019060200180831161137157829003601f168201915b505050505081526020018684815481106113aa576113aa6124e3565b9060005260206000209060030201600201548152508484815181106113d1576113d16124e3565b602002602001018190525082806113e7906127fd565b9350505b505b806113f7816127fd565b915050610fce565b5083546000908152600960205260408120905b60055481101561152057600060015b848110156114815785828151811061143b5761143b6124e3565b602002602001015160200151868281518110611459576114596124e3565b602002602001015160200151111561146f578091505b80611479816127fd565b915050611421565b50848181518110611494576114946124e3565b6020026020010151602001516000036114ad5750611520565b828582815181106114c0576114c06124e3565b60209081029190910181015151825460018101845560009384529190922001906114ea90826126a5565b5060008582815181106114ff576114ff6124e3565b60209081029190910181015101525080611518816127fd565b915050611412565b506001546040517fd62879f100000000000000000000000000000000000000000000000000000000815273ffffffffffffffffffffffffffffffffffffffff9091169063d62879f190611577908490600401612908565b600060405180830381600087803b15801561159157600080fd5b505af11580156115a5573d6000803e3d6000fd5b505050505050505050565b6115b981611d26565b611612577f16001116460b717e935c4a79fd9e1d99bc9559981bbdfe6da8a8f3cd240e81616115eb602083018361298c565b6115f86020850185612364565b604051611607939291906129f1565b60405180910390a150565b60015473ffffffffffffffffffffffffffffffffffffffff1663b3dbb52a61163d602084018461298c565b6040518363ffffffff1660e01b815260040161165a92919061255b565b602060405180830381865afa158015611677573d6000803e3d6000fd5b505050506040513d601f19601f8201168201806040525081019061169b9190612577565b6116cd577f5ead04d5bcfd9db10275637895e9c86a4c18418cfd7cb5375abc5ff7b03de1126115eb602083018361298c565b6116dd61017d602083018361298c565b15611710577f6ec68e8d215eacdcace684f5941d240b9b8ae3452184fab8c3a06eaad120edc96115eb602083018361298c565b6007805460009190611724906001906124d0565b81548110611734576117346124e3565b90600052602060002090600602019050806004015442106117975760405162461bcd60e51b815260206004820152600b60248201527f766f746520636c6f73656400000000000000000000000000000000000000000060448201526064016103ec565b600581015460ff16156117ec5760405162461bcd60e51b815260206004820152600e60248201527f726f6f6d2066696e616c697a656400000000000000000000000000000000000060448201526064016103ec565b80600301548260600135106118435760405162461bcd60e51b815260206004820152601660248201527f696e76616c696420766f74652074696d657374616d700000000000000000000060448201526064016103ec565b80600201548260600135101561189b5760405162461bcd60e51b815260206004820152601660248201527f696e76616c696420766f74652074696d657374616d700000000000000000000060448201526064016103ec565b80546000908152600a60209081526040909120906118bb9084018461298c565b6040516118c99291906125c5565b908152602001604051809103902060008360000160208101906118ec9190612364565b73ffffffffffffffffffffffffffffffffffffffff16815260208101919091526040016000205460ff1615611971577f85c200189b053fd138c5722db986f1b268ad5058ea51960ec3662e5c124140fa611949602084018461298c565b6119566020860186612364565b604051611965939291906129f1565b60405180910390a15050565b60025460408301359073ffffffffffffffffffffffffffffffffffffffff166370a082316119a26020860186612364565b6040517fffffffff0000000000000000000000000000000000000000000000000000000060e084901b16815273ffffffffffffffffffffffffffffffffffffffff9091166004820152602401602060405180830381865afa158015611a0b573d6000803e3d6000fd5b505050506040513d601f19601f82011682018060405250810190611a2f9190612599565b1015611a63577f0218de22dd683f05a68dde5feefca4c25fbc0f66a72b8130b56d1bf658743c79611949602084018461298c565b80546000908152600a60209081526040909120600191611a859085018561298c565b604051611a939291906125c5565b90815260200160405180910390206000846000016020810190611ab69190612364565b73ffffffffffffffffffffffffffffffffffffffff1681526020808201929092526040908101600090812080547fffffffffffffffffffffffffffffffffffffffffffffffffffffffffffffff00169415159490941790935583548352600882529182902082516060810190935291908190611b3490860186612364565b73ffffffffffffffffffffffffffffffffffffffff168152602001848060200190611b5f919061298c565b8080601f0160208091040260200160405190810160405280939291908181526020018383808284376000920182905250938552505050604086013560209283015283546001808201865594825290829020835160039092020180547fffffffffffffffffffffffff00000000000000000000000000000000000000001673ffffffffffffffffffffffffffffffffffffffff909216919091178155908201519192909190820190611c1090826126a5565b50604091909101516002909101557f5fe392585cc663ee634772bae3b95aa7aa9a6d647c41ade0b9c1f8c48e74077c611949602084018461298c565b6000818310611c5b5781611c5d565b825b9392505050565b60008151835114611c7757506000610cf1565b60005b8351811015611d1c57828181518110611c9557611c956124e3565b602001015160f81c60f81b7effffffffffffffffffffffffffffffffffffffffffffffffffffffffffffff1916848281518110611cd457611cd46124e3565b01602001517fff000000000000000000000000000000000000000000000000000000000000001614611d0a576000915050610cf1565b80611d14816127fd565b915050611c7a565b5060019392505050565b600080600b54611d3584611df9565b6040517f1901000000000000000000000000000000000000000000000000000000000000602082015260228101929092526042820152606201604080517fffffffffffffffffffffffffffffffffffffffffffffffffffffffffffffffe081840301815291905280516020918201209150611db290840184612364565b73ffffffffffffffffffffffffffffffffffffffff16611ddb82608086013560a0870135611ead565b73ffffffffffffffffffffffffffffffffffffffff16149392505050565b60007fc61be5868a517c2688d120fb5bc4073a1804e9a9b307218e2701647bf86f4c72611e296020840184612364565b611e36602085018561298c565b604051611e449291906125c5565b60408051918290038220602083019490945273ffffffffffffffffffffffffffffffffffffffff909216818301526060808201939093529084013560808201529083013560a082015260c001604051602081830303815290604052805190602001209050919050565b6000806000611ebd868686611ed3565b91509150611eca81611f25565b50949350505050565b6000807f7fffffffffffffffffffffffffffffffffffffffffffffffffffffffffffffff831681611f0960ff86901c601b6125b2565b9050611f178782888561208d565b935093505050935093915050565b6000816004811115611f3957611f39612a2b565b03611f415750565b6001816004811115611f5557611f55612a2b565b03611fa25760405162461bcd60e51b815260206004820152601860248201527f45434453413a20696e76616c6964207369676e6174757265000000000000000060448201526064016103ec565b6002816004811115611fb657611fb6612a2b565b036120035760405162461bcd60e51b815260206004820152601f60248201527f45434453413a20696e76616c6964207369676e6174757265206c656e6774680060448201526064016103ec565b600381600481111561201757612017612a2b565b0361208a5760405162461bcd60e51b815260206004820152602260248201527f45434453413a20696e76616c6964207369676e6174757265202773272076616c60448201527f756500000000000000000000000000000000000000000000000000000000000060648201526084016103ec565b50565b6000807f7fffffffffffffffffffffffffffffff5d576e7357a4501ddfe92f46681b20a08311156120c45750600090506003612173565b6040805160008082526020820180845289905260ff881692820192909252606081018690526080810185905260019060a0016020604051602081039080840390855afa158015612118573d6000803e3d6000fd5b50506040517fffffffffffffffffffffffffffffffffffffffffffffffffffffffffffffffe0015191505073ffffffffffffffffffffffffffffffffffffffff811661216c57600060019250925050612173565b9150600090505b94509492505050565b602080825282518282018190526000919060409081850190868401855b828110156121e95781518051855286810151878601528581015186860152606080820151908601526080808201519086015260a09081015115159085015260c09093019290850190600101612199565b5091979650505050505050565b60008083601f84011261220857600080fd5b50813567ffffffffffffffff81111561222057600080fd5b60208301915083602082850101111561223857600080fd5b9250929050565b60008060006040848603121561225457600080fd5b833567ffffffffffffffff81111561226b57600080fd5b612277868287016121f6565b909790965060209590950135949350505050565b6000806020838503121561229e57600080fd5b823567ffffffffffffffff808211156122b657600080fd5b818501915085601f8301126122ca57600080fd5b8135818111156122d957600080fd5b8660208260051b85010111156122ee57600080fd5b60209290920196919550909350505050565b6000806020838503121561231357600080fd5b823567ffffffffffffffff81111561232a57600080fd5b612336858286016121f6565b90969095509350505050565b73ffffffffffffffffffffffffffffffffffffffff8116811461208a57600080fd5b60006020828403121561237657600080fd5b8135611c5d81612342565b60006020828403121561239357600080fd5b5035919050565b60006020808301818452808551808352604092508286019150828160051b8701018488016000805b84811015612492577fffffffffffffffffffffffffffffffffffffffffffffffffffffffffffffffc08a85030186528251606073ffffffffffffffffffffffffffffffffffffffff825116865289820151818b880152805180838901528592505b80831015612441578183018c015188840160800152918b0191612423565b8781016080908101879052938b01518b890152988b0198601f017fffffffffffffffffffffffffffffffffffffffffffffffffffffffffffffffe016909601909101945050918701916001016123c2565b50919998505050505050505050565b7f4e487b7100000000000000000000000000000000000000000000000000000000600052601160045260246000fd5b81810381811115610cf157610cf16124a1565b7f4e487b7100000000000000000000000000000000000000000000000000000000600052603260045260246000fd5b8183528181602085013750600060208284010152600060207fffffffffffffffffffffffffffffffffffffffffffffffffffffffffffffffe0601f840116840101905092915050565b60208152600061256f602083018486612512565b949350505050565b60006020828403121561258957600080fd5b81518015158114611c5d57600080fd5b6000602082840312156125ab57600080fd5b5051919050565b80820180821115610cf157610cf16124a1565b8183823760009101908152919050565b7f4e487b7100000000000000000000000000000000000000000000000000000000600052604160045260246000fd5b600181811c9082168061261857607f821691505b602082108103612651577f4e487b7100000000000000000000000000000000000000000000000000000000600052602260045260246000fd5b50919050565b601f821115610ade57600081815260208120601f850160051c8101602086101561267e5750805b601f850160051c820191505b8181101561269d5782815560010161268a565b505050505050565b815167ffffffffffffffff8111156126bf576126bf6125d5565b6126d3816126cd8454612604565b84612657565b602080601f83116001811461272657600084156126f05750858301515b7fffffffffffffffffffffffffffffffffffffffffffffffffffffffffffffffff600386901b1c1916600185901b17855561269d565b6000858152602081207fffffffffffffffffffffffffffffffffffffffffffffffffffffffffffffffe08616915b8281101561277357888601518255948401946001909101908401612754565b50858210156127af57878501517fffffffffffffffffffffffffffffffffffffffffffffffffffffffffffffffff600388901b60f8161c191681555b5050505050600190811b01905550565b600082357fffffffffffffffffffffffffffffffffffffffffffffffffffffffffffffff418336030181126127f357600080fd5b9190910192915050565b60007fffffffffffffffffffffffffffffffffffffffffffffffffffffffffffffffff820361282e5761282e6124a1565b5060010190565b6000815461284281612604565b80855260206001838116801561285f5760018114612897576128c5565b7fffffffffffffffffffffffffffffffffffffffffffffffffffffffffffffff008516838901528284151560051b89010195506128c5565b866000528260002060005b858110156128bd5781548a82018601529083019084016128a2565b890184019650505b505050505092915050565b6040815260006128e36040830185612835565b905073ffffffffffffffffffffffffffffffffffffffff831660208301529392505050565b6000602080830181845280855480835260408601915060408160051b8701019250866000528360002060005b8281101561297f577fffffffffffffffffffffffffffffffffffffffffffffffffffffffffffffffc088860301845261296d8583612835565b94509285019260019182019101612934565b5092979650505050505050565b60008083357fffffffffffffffffffffffffffffffffffffffffffffffffffffffffffffffe18436030181126129c157600080fd5b83018035915067ffffffffffffffff8211156129dc57600080fd5b60200191503681900382131561223857600080fd5b604081526000612a05604083018587612512565b905073ffffffffffffffffffffffffffffffffffffffff83166020830152949350505050565b7f4e487b7100000000000000000000000000000000000000000000000000000000600052602160045260246000fd",
    "linkReferences": {}
  },
  "methodIdentifiers": {
    "VOTE_TYPEHASH()": "86522973",
    "castVotes((address,bytes,uint256,uint256,bytes32,bytes32)[])": "349071c2",
    "cooldownPeriod()": "04646a49",
    "directory()": "c41c2f24",
    "featuredPerVotingCount()": "6e571332",
    "finalizeVoting()": "2260b98b",
    "getVotesByVotingId(uint256)": "80e0111e",
    "getVotings()": "05c1112d",
    "initializeVoting(bytes,uint256)": "2d0e9c28",
    "isInCooldownPeriod(bytes)": "6c265f9d",
    "owner()": "8da5cb5b",
    "setDirectory(address)": "6e91818a",
    "token()": "fc0c546a",
    "votingLength()": "0a64522f",
    "votingVerificationLength()": "ff9bd048",
    "votings(uint256)": "a598d03c"
  },
  "id": 1
}